:020000040000fa
:080000000002040000000000f2
:020000040000fa
:100400008f5522000eff27000e018800000000001b
:10041000000020000000e000020032000001200087
:10042000200288000c000700e0912100110020004c
:100430001d000700100020000000e0000200320054
:10044000ee02020000000000e4b402000000000020
:100450000040da000000fe00605621000000e000cd
:1004600002003200a0202000900188000000060059
:10047000f03fb1000180b10006003500ee03090035
:1004800000000000403fb1000180b100fbff3d00d3
:100490001000b000203fb0000200350000800900cd
:1004a0000000000000000600a10288008000780023
:1004b0000000eb001a003700e280400054a0b400b6
:1004c0009101ba00e280400054a0b4009102ba0049
:1004d000e280400054a0b4000002eb00472bde0095
:1004e000f507b200a6018800602ce10008003a0080
:1004f0000049eb000201e800020039003420ec0062
:1005000002f0a0008301e900f9ff3e00040037007b
:100510006128e100010032000082eb0004000700c6
:100520001101ba000200e000e3ff3a0000000600fb
:1005300004d0a300e20f49001c00390081027800ba
:100540003549ba000201e800020039003420ec000d
:1005500002f0a0008301e9000f0032002549ba0033
:100560000201e800020039003420ec0002f0a00093
:100570008301e900080032000400e00006003200b8
:1005800015c9ba000201e800020039003420ec006d
:1005900002f0a0008301e9008180e80054a0b400cb
:1005a0000300e000e2ff3a00000006009102ba00fa
:1005b000055978008301e900f7ff3200c82ade0000
:1005c000055978008301e900f3ff32000400e000e0
:1005d000f1ff320011d9ba00eeff370040be020031
:1005e0000000000052d30200000000008634020028
:1005f0000100000054e8020000000000faf30200cd
:1006000000000000000006009c8c040000000000b8
:10061000ee2c0400010000005e8d040000000000cc
:10062000aa8d040000000000f68d04000000000008
:10063000408e0400000000005a8e040000000000fc
:100640001e320400010000009afb040000000000bc
:10065000a8fb040000000000c837040001000000ef
:10066000e22804000100000030b304000000000094
:10067000f8a904000000000006aa04000000000021
:100680007aa9040000000000aaa9040000000000ec
:1006900046aa04000000000086aa04000000000032
:1006a000b4aa0400000000004eab040000000000eb
:1006b000f4aa04000000000034ab040000000000b5
:1006c0008eab040000000000f6ab04000000000048
:1006d00060ac04000000000086ac040000000000d4
:1006e000b4ac040000000000e2ac04000000000014
:1006f00010ad04000000000056ad04000000000032
:10070000aead040000000000f2ad040000000000e7
:100710004cae040000000000a6ae04000000000083
:1007200000af0400000000005aaf04000000000009
:10073000b4af0400000000000eb004000000000090
:1007400032b00400000000007cb104000000000092
:1007500098b0040000000000e8b0040000000000b1
:1007600092b1040000000000aab1040000000000e3
:10077000b8b1040000000000c6b104000000000091
:1007800048b2040000000000d4b1040000000000e2
:100790005eb2040000000000b6b2040000000000d9
:1007a000dab204000000000004b3040000000000fe
:1007b0004eb604000000000062b604000000000015
:1007c000feb10400000000000cb2040000000000b4
:1007d00012b104000000000020b10400000000007d
:1007e000a417040001000000c61704000100000067
:1007f00032170400010000005c1704000100000033
:10080000da17040001000000fc17040001000000da
:10081000cc15040001000000e016040001000000f7
:10082000101804000100000032180400010000004c
:100830005e14040001000000ca140400010000005e
:1008400046180400010000006818040001000000c0
:100850006213040001000000ae1304000100000058
:100860007c180400010000009e1804000100000034
:10087000fe12040001000000161304000100000035
:10088000b218040001000000d418040001000000a8
:100890009e12040001000000b012040001000000dc
:1008a00074b00400000000000a19040001000000f8
:1008b00026120400010000003812040001000000ac
:1008c000d411040001000000f21104000100000036
:1008d00010e40400000000004ae4040000000000ee
:1008e000dadf040000000000e4df04000000000084
:1008f00052dd0400000000005cdd04000000000088
:10090000a0db040000000000aadb040000000000df
:1009100054da04000000000066da04000000000061
:100920006eeb0400000000007aeb04000000000001
:1009300088eb04000000000096eb040000000000bb
:10094000a0eb040000000000c8eb04000000000061
:1009500004ed040000000000faed040000000000b7
:100960009eee040000000000c0ee04000000000045
:1009700000ef0400000000002ef104000000000061
:100980000040da000000fe000600fa00000f7800c8
:100990001107980022079800ae0090001e009000fa
:1009a000643502000100000038d0bf000004e00000
:1009b00004003200ae0090001e009000322e0200b3
:1009c000010000002e0090000080fa0000000600e8
:1009d0006900e100040035006d00e100030034000f
:1009e0000002b10001003200000005001000050007
:1009f000889fbe0080047800b01a81000000e000eb
:100a000004003a00160007000084eb000000e0003c
:100a100008003500b81a81000900e0000500320026
:100a2000090044000e0007000000e00001003d0046
:100a30000084eb00080078004f04be0000000600b0
:100a40002002e20004003d002342ab00020032001d
:100a50002302ab00feff32000040da00feff370049
:100a6000800078000100e00003003a008035220099
:100a7000b01a8900000005000080eb0082552200ba
:100a8000828f500002003e00b11a89000000eb0086
:100a9000000006004f89de00820178002c0237003a
:100aa000f4ff2f003a0237000001be005302070096
:100ab0000470a70003f0a1006509b1001600320020
:100ac0000d0035006828e10006003500f0ff2f001a
:100ad000f1ff27000300e00013003b0001002800a5
:100ae0000000050000004000818048008502e90008
:100af000fcff3a0008003700f88f420002003c007b
:100b00008000eb00000005008100d1000080d300d0
:100b10008502e800fcff3a000300e00002003b0011
:100b200060001000e08018000000060014002000a3
:100b300017023700889fbe008a9fbe008c1f780076
:100b4000430207001002200002003b00f09f8800d3
:100b5000470237008a0062006408e10002003a00a0
:100b6000f09f88004f0237006108e100fcff32006f
:100b70000800be00030478000328070001f0a1006c
:100b8000402b070008f0a600040037000001be005b
:100b900091042400b0fd2000da28070009f0a70026
:100ba00001f0a2003b02370004002000f8013700ea
:100bb000040020003e023700889fbe008a9fbe00ce
:100bc0008c1f78000006eb00e00f5000e08f58000b
:100bd000e00f5900e08f590007003d006044b80065
:100be0006055b8000000540081805c0002015d0087
:100bf00083815d001c002000e00f5200e08f5a004e
:100c0000e00f5b00e08f5b0007003d006044b80030
:100c10006055b8000402540085825c0006035d0044
:100c200087835d000c00a200700207000c00e0004a
:100c3000060032006022b8006033b80000005200a5
:100c400081805a0002015b0083815b004f067800bf
:100c50004f05be004f04be0000000600889fbe0086
:100c60008a9fbe0030044200b0844a0030054b0029
:100c700090854b006000b1000898be000a90be004d
:100c8000c100070002003100680040001008e800c1
:100c90004f05be004f04be0000000600889fbe0046
:100ca0008a9fbe003004be002005be000418540018
:100cb00005985c0006185d0007985d001100200093
:100cc000b1000700010039008000eb00108810001f
:100cd0004f05be004f04be00000006001200fa00df
:100ce000889fbe008a9fbe008c9fbe00e0b79f0019
:100cf000f1b79f0082bf9f0093bf9f000605be0013
:100d00000404be000000eb00d0b79f00c0b79f00f6
:100d1000b0b79f00a0b79f0090b79f000006eb0000
:100d20005fb19700cfb09700820141003fb09700bc
:100d30000200e00004003d00980007007e8057009c
:100d4000c6ff070003003700940007007e805700ad
:100d5000d2ff0700dfb697000d00e0000c00350061
:100d60006fb29700ffb297000fbb97009fbb970031
:100d700010002000010020006011b8000002720085
:100d8000818272000203730083837300580007009e
:100d90000c06e80001042000810f5600e0ff3a0035
:100da0000d00e00004003d000802be000a03be0082
:100db0007e805700a9ff07005fa897000000e000b1
:100dc00005003a001fb29700afb297003fb39700fb
:100dd000cfb39700460007006fb09700ffb09700b1
:100de0000fb997009fb997004f06be004f05be0090
:100df0004f04be000080fa0000000600881f780043
:100e000018002000881f7800b4ff07008f87e900d2
:100e10004f04780000000600801feb00afff0700c2
:100e20008f87e90000000600889fbe008a9fbe00f1
:100e30003d00070007003d004000070018002000ab
:100e40004500070008003d002b0007000004eb00f0
:100e5000050037000004eb003f00070002003d00e2
:100e60002500070018002000e4ff07000800e0004c
:100e7000010032003d0007004f05be004f04be00d8
:100e800000000600889fbe008a9fbe008c1f78006d
:100e90002500070008003d00280007001c00200076
:100ea0000820e10009a8e1000ab0e1000bb8e10068
:100eb00007003d00050037000006eb002600070094
:100ec00003003d006044b8006055b8000c00070006
:100ed000d1ff07000c00e0000100320023000700f2
:100ee0004f0678004f05be004f04be00000006000c
:100ef00008000700000006006044b8006055b80014
:100f00000402540085825c0006035d0087835d0057
:100f100000000600a4b79f00b5b79f00c6b79f00aa
:100f2000d7b79f0000000600e00f5000e08f580088
:100f3000e00f5900e08f5900000006006044b8003f
:100f40006055b8000000540081805c0002015d0023
:100f500083815d0000000600e00f5200e08f5a0020
:100f6000e00f5b00e08f5b00000006006022b8002d
:100f70006033b8000000520081805a0002015b001b
:100f800083815b00000006000440e10005c8e10029
:100f900006d0e10007d8e100000006004f09de009e
:100fa00082817100b3b79f004f01de008180400055
:100fb00082807000a1b79f008fb097004f09de00bc
:100fc000000040000200700090b79f007fa89700cb
:100fd0004f01de00818040008280700081b79f0059
:100fe0000d0007004f3ade000000400004007000d2
:100ff000f0af9f00080007000402420085824a000b
:1010000006034b0087834b00c2ff07000802be00a7
:101010000a03be00000006002fb29700bfb297007f
:101020004fb39700dfb39700000006006011b800cf
:1010300090013700839f68000100e00002003d003e
:1010400060001000e08018000300e00002003d0096
:1010500060011100e0811900032b07004f00e00040
:1010600002003b0060001000e08018000000060055
:10107000020ab900001bb9000200b800810042005a
:10108000810043000000060081037800db000700b8
:101090000001be006000b8000478a30013003a000d
:1010a0006220e10015003e000d0039008301d100ef
:1010b0000281d3008180d3008301d1000281d3005b
:1010c0008180d3008301d1000281d3008180d300cd
:1010d0000538b000c42add00f300b200838172003d
:1010e00007f0a70003f0a00000000600f3ff2700b0
:1010f000f2ff2f006110b900fbff370003ff27004c
:10110000f7ff37008f1fd100890107008f87e900a3
:101110000000e00000000600801feb0084010700d3
:101120008f87e9000000e00000000600809feb00d0
:101130007f0107008f87e9000000e0000000060043
:101140001400fa00889fbe008a9fbe008c9fbe00dc
:101150000004be000205be00680047000a90be0001
:101160000890be009b0107000070a7000bf0a100d3
:101170000bf8a30020003a009e0990000e09900091
:10118000fe0090006e0090009e029000344320000c
:1011900084825200ca0132000a003c00b4fc2f00d5
:1011a0000428e100140034008301d1000281d3003f
:1011b0008180d3000080d3008502e800faff3a0066
:1011c000bf013700b40020000428e10007003c0004
:1011d00000004000818048000201490083814900ed
:1011e0008502e900faff3a00b50137000300280044
:1011f00002002000010037006011b8006000b80054
:10120000af013700889fbe000082700004027100a9
:10121000048271002400320036432000c500200003
:101220008383cf000a0039000541b1008283cf00db
:10123000070039000541b1008183cf000400390067
:101240000541b1008083cf00010039000541b100a4
:1012500085c353006022b800120032000a003b0030
:1012600084827200610260008301d1000281d30098
:101270008180d3000080d3000603e8008743e800a4
:10128000f7ff3a0007003700000040008180480067
:1012900002014900838149000603e9008743e90010
:1012a000f9ff3a008b0107004f04be000000060062
:1012b0001400fa00889fbe008a9fbe008c9fbe006b
:1012c0000004be000205be00680047000a90be0090
:1012d0000890be003f0107000070a7000bf0a100be
:1012e0000bf8a30016003a009e0290003043200045
:1012f00080825200b0fe2f000028e1000d003c006b
:10130000b0fc2f000028e1000d0034001e09900001
:101310008e0890007e0090000501b0000201d1000f
:101320008180d3000080d3008502e800fbff3a00f3
:101330006301370001002800000020006001370031
:101340006000b8005e0137006011b800adff3700e3
:10135000881f7800030478000300e00007003d00c8
:1013600060001000e080180060011900e0811900a1
:1013700002003b0001f02d0003003700bd00070014
:1013800008f0a70001f0a0004f047800000006005c
:10139000889fbe008a9fbe00841f78002c00070033
:1013a0004f00780011003300f0ff2f00838f6c0096
:1013b00006003b00040565000a00a700080037008e
:1013c00009f0a6001000200008003700820f54002a
:1013d000838f5c00030039001000200001003e00f4
:1013e0000000200009f0a7000000ea004f05be0041
:1013f0004f04be000000e00000000600c70ade0047
:10140000f107b200f50fb20008003200e1cf420050
:10141000020032000170a00024000500810f70005e
:10142000010032000408050044000500810f70002f
:1014300002003a00140005008502e90000004000a7
:1014400081c04800fcff3b000170a00024000500a3
:101450000004be00e9ff07000003be000405be0053
:101460000200be00e5ff0700844f75000000060083
:101470000200be006450e100050036006420e10077
:10148000020036000968a30001003a000800be000f
:101490000160a0004f0678004f05be004f04be005b
:1014a00000000600f0ff2f00f1ff2700f9ff3700d2
:1014b000889fbe008a9fbe008c1f78004f26dd00eb
:1014c000e3ff0700eaff33006120e1004300320040
:1014d0006250e10041003e003e0039006420e1001e
:1014e0003c003200058255000f003b000402e8007a
:1014f00038003a00800f5300818f5b0035003400c4
:101500000800be0003f0a10001f0a60003f0a00057
:101510000cf0a70084260700deff37000603430017
:1015200087834b000c4646000005530081855b0015
:10153000020033000a03be000c00a0000402e90010
:10154000f6ff3b00850578000602430087824b00ca
:1015500004003a006000b80009f0a70001f0a00004
:10156000ccff37000002520081825a000704e000dd
:10157000040033000603430087834b008b05e9001a
:10158000faff3700090578000604be000203be001a
:101590006011b800fb000700e00f5200e08f5a0016
:1015a0000700350002003c000c08a30004003200d4
:1015b0000601be0003f0a0000cf0a7005a260700a9
:1015c0000a85680001f0a1000af0a70001f0a00060
:1015d000b0ff37000800be00aeff37001002200049
:1015e0000cf0a600f09f8800aeff3700889fbe0079
:1015f0008a9fbe008c9fbe000404b8000506b80098
:101600008904460060854e000606b8000a054600bb
:10161000e0854e000706b8008b054600040eb800b2
:10162000890446000a854e00e0854d00050eb8008d
:101630000a0546008b854e00060eb8008b05460055
:101640000416b8000a0546008b854e000516b80042
:101650008b054600041eb8008b0546000800be003e
:101660000a01be004f06be004f05be004f04be007b
:1016700000000600889fbe008a9fbe0000827000a6
:101680000402710004827100260032000004be00d2
:101690000200be006011b8006b0920009502200016
:1016a0000182cf000a0039000541b1000082cf005d
:1016b000070039000541b1000982cf00040039005c
:1016c0000541b1000882cf00010039000541b10099
:1016d00005425200120032000a003b008281710074
:1016e000610164008100d1000080d3008984d300af
:1016f0000884d3008b05e8000442e800f7ff3a00b5
:10170000070037000804440089844c0000004800aa
:10171000818048008b05e9000442e900f9ff3a00a6
:10172000980007004f05be004f04be0000000600f1
:10173000889fbe008a9fbe008c9fbe000404be002e
:101740000605be00809fbe00829fbe00b30007005a
:10175000040678000800be000a01be00af000700c2
:10176000840678004f03be004f02be008d4f760006
:101770007fb0970013003300f0ff2f008b8f6b00ba
:1017800006003b000d0666000c00a7000a003700ab
:1017900007f0a600100020000a003700880f520052
:1017a000898f5a008a0f5b008b8f5b000300390022
:1017b0001000200001003e000000200007f0a700fc
:1017c0000000ea004f06be004f05be004f04be00f9
:1017d00000000600800078005002be005003be00ea
:1017e0004439de00f700b200f37f200003016100fe
:1017f000090032000218e10016003a00850172006b
:1018000083017300838173000008200015003a00f3
:10181000400020001300370085017200830173002f
:101820008381730005003a0004a8be0006a8be002c
:10183000100020000b0037000201e9000402420002
:1018400085824a0006034b0087834b000748a300ac
:10185000f9ff32000740a00004a8be0006a8be00a1
:1018600020002000800098009200980000000600f0
:10187000680447000294be000094be00fc044700c8
:101880008694be008494be0009007800d1ff070052
:1018900008007800cfff070099007800814f7000a2
:1018a0000b003b000800be006e0007004f00b100b7
:1018b00003003700f3ff2700f2ff2f006110b9008b
:1018c0004f06be004f05be004f04be000080fa0068
:1018d00000000600180020005700200008045300f4
:1018e0000d003d000600200097fc2f000740e1009e
:1018f0001e00340084827200610260008301d10006
:101900000281d3008180d3000080d3000804e80066
:10191000f8ff3a00470020006104600005047400ed
:10192000040464000d00320061004000e0804800c3
:1019300060014900e081490003b8a50007003200ba
:101940000603e8006538e10004003a008301d10095
:101950000281d3008180d3000080d300f87f200073
:101960000830e10003003500080378006000b8008b
:101970006011b8004433dd00f300b200830173004e
:101980000000060081002000618055000b003d0032
:101990000b00200061fe2f000100e1001d0034005b
:1019a00082817100610164008904d1000884d30040
:1019b0000000e800faff3a007100200061006400b6
:1019c000030070000200600009003200610444005e
:1019d000e0844c000988a500050032008b05e80072
:1019e0006808e10002003a008904d1000884d300ad
:1019f000f20f20000258e10005003d00c75ddd0048
:101a0000f907b20089807500080078000000060020
:101a10000bf827008b0078000000050005ff270069
:101a200005826100070032000428e1000100320055
:101a3000240005000600070001003a0044000500ec
:101a40000408050002000700f9ff3a001400050031
:101a50006f82610081027000850271008502720050
:101a600000000600e48240001078a3000700320066
:101a7000640240001178a3003400be001401be00cf
:101a8000040032000330a700000006003500be004d
:101a90001501be000330a0000000060080007800a1
:101aa0003104e000feff3a000080ea0000804000c0
:101ab00000000600889fbe0001047800b800900076
:101ac0008084eb000118a3003a0032001801900056
:101ad0000198a30002003a000200e00035003a003d
:101ae0000190a0003104980080047800f90fb20042
:101af0000200e00002003a0028009000000c78008c
:101b0000ea8f540005003a000178a30003003a0070
:101b100088007800d0002000e6ff07001800900041
:101b2000d8009000810f50000b0032000000e80048
:101b3000100498001800780009487800000ce800ac
:101b400011c0b300e034220001487800ea8f54004d
:101b500018003a0005003700880078000940780036
:101b6000c602070080047800120037003800900099
:101b70000088a3000f00320018019000a800900018
:101b80004800900080fb070098009000810f5000f3
:101b900004003200380090000003b30030049800c5
:101ba0008084eb000000eb001004980028009000f7
:101bb000000c7800090078004f04be000000060009
:101bc000b041780031c1510002003a000304e00046
:101bd000fbff3a000200fb00000006000001780055
:101be000b1417800035978000304e000fcff3a009b
:101bf000000006000000fa0068815700cfb8970087
:101c0000a02f2200e50207000080fa000000060075
:101c10000a003700b04178000304e00003003200fe
:101c20000201e900b1cf5100040032008381fb00c2
:101c30001480fb00008051000000060001027800c3
:101c40000200e000f3ff3a00000005008001780088
:101c5000060037000201e900b1427800855978009a
:101c6000030278000504e000060032000302780059
:101c70000200e000f7ff3a0002003700005aeb00d4
:101c80000201e9000200e000fcff3a00000006004b
:101c90000001780082017800030178003204e0003e
:101ca000fcff3a0031417800825978000204e000dc
:101cb000fcff3a00000006008001780002003700b7
:101cc000b15978000201e9000200e000fcff3a008f
:101cd00000000600889fbe000004be00050037001b
:101ce0000000fb008900780072ff0700e10f400050
:101cf00004003200384078000004e000f8ff3a00a9
:101d00000000eb004f04be0000000600881f7800b2
:101d1000a12f2200efff070000047800a12f22006e
:101d2000a000200063ff0700080078004f0478003f
:101d3000000006000000fa0068815700cfb8970045
:101d4000a02f2200f10507000080fa000000060025
:101d500080017800808f500009003100028240002d
:101d6000800f520006003600840178008200400097
:101d7000c36078000201e900fdff3a0000000600a0
:101d80000200e00003003200b15978000201e900ce
:101d9000fbff3700000006000001e9000080eb00b7
:101da000e50f510005003e000201410040332200d2
:101db00002014000120078000109780000000600ce
:101dc0008000e900e58f500010003e008180400057
:101dd0004233220081004100910078000100e000c0
:101de00002003a00100020001b090700e18f4000ac
:101df000080032000001eb00e18f500006003200c5
:101e0000010001000001eb00030037000081eb003e
:101e10000100370001017800020078000000060090
:101e200010002000e6ff0700100020000a0907004c
:101e30000000fa0068815700cfb89700a02f220059
:101e4000d10907000080fa00000006000000fa0037
:101e500068815700cfb89700a02f22008a0f070093
:101e60000080fa0000000600800078000100780081
:101e70003041780003c2b300834f5100faff3200b3
:101e8000e94f5100f8ff3200edc14100834f51008e
:101e900003003a008000780013c0b300050037004b
:101ea0008041eb00b4c2b300844f510001003a00fe
:101eb000800078000000eb0002003700ea00b90063
:101ec000000041003101fb000203b100e90f5100a5
:101ed000faff36000304e000010032000000ea00cf
:101ee00000000600889fbe008a9fbe008c9fbe0037
:101ef0008e1f7800010678000c00e000010032001f
:101f0000000e780080047800090578008a047800c3
:101f1000b905fb000b007800adfa07000000e000f7
:101f2000f9ff3a00d0022000808f550003003a00ec
:101f30000905780018c0b300050037000044eb0025
:101f4000b0022000808f550001003a00090578009a
:101f50006000b8008004eb000007eb0001003700d0
:101f60000a05e8000a0178000848a30005003a00c5
:101f7000e3c2b3009acf110002003a000844a00067
:101f8000f7ff37009a4578008b01fb000303b1008f
:101f9000e98f510016003e000814a0000801fb0064
:101fa000e98f54000e0032000248a3000100320005
:101fb0000e07e9008904e800a200200003002000c9
:101fc0002bfc070002cdb30002c145000281fb00db
:101fd0008001eb000000410081804900e0ff3700f4
:101fe0000248a300deff3a000e07e800dcff3700de
:101ff00053c6b30083cf5500040032008004eb00c9
:1020000053c4b30083cf55002d003a005a417800e5
:10201000d3c2b300834f510002003a000834a0003d
:1020200003003700b3c2b300834f510001003a00f0
:102030000a05e8000a017800020578003a427800b3
:1020400003c3b300834f5200faff32008402fb0047
:102050000503b1008004eb00e98f520015003e003b
:10206000834452008984fb000a0178001242780000
:102070008402fb000503b100e98f52000d003e0011
:10208000ea4bb900834452008984fb0086844400f3
:10209000524278008402fb000503b100e98f520030
:1020a00004003e00ea4bb900834152008381fb00eb
:1020b000830443000838a300010032008904ea00c9
:1020c0000c00e000030032000818a30001003200f9
:1020d000020e78006ffa07000005be000006be0081
:1020e0006011b80091fa0700000178006000b800a4
:1020f0000200e000580032008e84440032f82f00c5
:10210000828f540003003d0022022000f29f8800cd
:102110005100370000082000808f54000700340071
:1021200020022000f09f88000808a300450032002c
:102130000000200001f82f00470037000900e000f0
:102140001b003d008904ea0006003700922f2000a2
:10215000530125000a00be008b2207000005be00c7
:10216000ea845400e98f5400f8ff3c000600370071
:1021700002002000031224000a00be008222070091
:102180000005be008904e9000900e000f8ff3a00fc
:102190000a06be0002002000030820000a00be005c
:1021a00062fa07000000e00021003d001b0037003c
:1021b0000900e00007003a001d003700922f2000c0
:1021c000530125000a00be003c2407000005be00a4
:1021d000ea845400e9cf5400f8ff3e0006003700bf
:1021e00002002000031224000a00be00332407006e
:1021f0000005be008904e9000900e000f8ff3a008c
:102200000a06be00f2ff2f00f3f727000a00be0007
:1022100023fa07000000e000050034000808a300ce
:102220000b00320000002000010828000a003700df
:102230000808a300010032000df0a2000c00be004f
:10224000050037000000200001f8270002003700d9
:1022500000002000010820004f0778004f06be0054
:102260004f05be004f04be00000006001dff3700f2
:102270008000eb001bff37000000fa006881570068
:10228000cfb89700a02f2200ee1107000080fa00bf
:1022900000000600889fbe000004be000800e000a9
:1022a00003003a00e89f80000800e00013003200bd
:1022b0000800be00841b0700000444001804e0006e
:1022c00004003a000000eb00e09f88000004eb00ef
:1022d0000a0037000800be008e1b07000000440003
:1022e000e09f88001004e000020032000058eb007c
:1022f000010037000000eb00e09f88000800780034
:102300004f04be0000000600a12f2200e9fd3700a7
:102310000000fa0068815700cfb89700a02f220074
:10232000571c07000080fa0000000600889fbe00ce
:102330008a9fbe008c9fbe0041322200221981007c
:102340000200e0000b003a0064814000221989007d
:1023500072198900a100980061198900214190003b
:102360000204a000a2409800614190000204a00075
:10237000e2409800670440004244de004244dd0031
:10238000641981008135220089552200818454001e
:102390002d002000110009008d04d800800678006f
:1023a0000886e8000c0646008001eb0002003700ba
:1023b000130020000b027800a44090000108a30045
:1023c000020032000a003700120a78001401780077
:1023d000a24090000108a300fbff320088004200e9
:1023e000810f5100020039000800e00041003d006b
:1023f000940578000b00a100848f5500edff3e008e
:10240000e18f5100eaff3a008d0f540002003600c0
:10241000890f5400130039006141b8006148b900c8
:10242000b4ff2f00050020000000520081805a00f8
:10243000800f5100818f590002003500640544006f
:102440000900370080352200ba55220000055500ea
:1024500008054500110009000985d8008985b900e3
:10246000010037000c0578000a00780060f90700c9
:10247000e10f400005003a00640544000a007800be
:102480005bf90700e10f40002b0032007119810059
:102490008008780071198100e4814000214190009a
:1024a000830f5000020032000204a0000100370038
:1024b0000204a100a2409800640555000a054000ee
:1024c0000a0878007a19890041322200010d78004b
:1024d00072198100a24090000104a00021419800df
:1024e000a04090000104a100214098008001eb0071
:1024f000b0ff370061198900810f510007003600d5
:102500001101be008219890093198900940878008e
:102510000041eb0061198100a2409800631981001d
:10252000030a7800a44090000104a0002142980012
:1025300064004200010037000000eb004f06be00bf
:102540004f05be004f04be00000006000000e00082
:10255000080032006400500061198100810f5000b2
:102560000100310060198900a04090000104a10021
:102570002140980000000600889fbe008a9fbe0090
:102580000004be000900e00007003a000000eb0074
:102590000800e0003600320008007800ebff07007a
:1025a0000000eb00320037000800e00003003a00b2
:1025b000090078005dff07002d003700640054001b
:1025c0009005780068f897000008a3000200320028
:1025d00008007800ddff07000900780053ff0700be
:1025e000800478000000eb000900e00020003200c9
:1025f000888f54001b00320069bd97000905550003
:1026000042d5de0088855500c2ddde000a01780073
:102610008b0f5500010036000b0178004211dd00e0
:102620008800780009007800a3fd0700888f540017
:102630000e0031004255dd000a854400880f550028
:102640000a0036000804550042c4de004244dd00a2
:10265000088444008019810091198100008cbe001b
:1026600002003700080078000100370009007800f8
:102670004f05be004f04be00000006000200fa0035
:10268000889fbe00a0ff9f000104780038009000e2
:102690000068a30033003a00e200600005003a0041
:1026a0000003b30030049800110498000080eb0090
:1026b0002e003700d80490000900e00006003a0020
:1026c00012002000e680570048009000aef8070096
:1026d0001904980023003700a80090000100e000d2
:1026e00008003a001135220021049800010c7800fe
:1026f0002100200051049800110498000030a0002f
:102700003004980018019000a80090004800900044
:102710009df80700280090008080eb0011049800cd
:10272000aff8970001487800000ce8002ff89700f8
:10273000ea4f50000b003a00380090000088a300d8
:102740000800320018019000a80090004800900096
:102750008df807000000eb0010049800a80090001e
:10276000010c7800aff897000100fb004f04be0099
:102770000080fa0000000600d001900002815100a4
:102780004240a9000300340010017800014978009c
:102790000208e8000100780000000600fe874700fc
:1027a000889fbe008a9fbe008c9fbe008e1f78004f
:1027b00080067800d1af9f0092b79f000007eb0022
:1027c0003d033700dfa897008100e800d1af9f00ec
:1027d00051c2b300814f500003003a005fa8970038
:1027e0000006eb0011003700bd0090000000fb0068
:1027f0000168a300070032000e0178008000780015
:102800000d007800dcff07000000e00005003a0042
:10281000290337008d007800a6fc0700e10f400077
:10282000250332000e07e8002303370080007800fc
:1028300030417800d3c2b300834f51000c00320006
:1028400007003c00edc15100834f51000a003200e7
:10285000ebc14100834f51000d003a0008003700e2
:1028600003c3b300834f510009003a00060037004c
:102870000c30a000edff37000c00a000ebff37008c
:102880000c10a000e9ff37000c20a000e7ff370084
:102890000c18a300010032000c00a1000c38a300aa
:1028a000010032000c20a1000200fb000003b10077
:1028b000e90f50000c003e00010178000000eb0021
:1028c000ea00b900b200fb000103b1000080400043
:1028d000820078009201fb000303b100e98f5100f0
:1028e000f7ff3600080037000000eb00a3c2b3007a
:1028f000834f510004003a001fb197004200780056
:1029000092b79f008100e8008001eb00a3b79f0011
:10291000e2c2b300914f11000c003a000ce0a0009d
:1029200064415100d14f11000300320001017800d1
:1029300003027800090037001fb29700c402780034
:1029400094b79f00a5b79f008100e80001017800bf
:1029500009003700ea22b9000482410082007800b1
:10296000b201fb000303b100e98f5100f9ff36000b
:10297000a4b79f00f5ff3700b2407800d2af9f00a8
:10298000c3c6b30083cf5000250032000f003c00c7
:1029900032c6b30082cf5000a000320004003c00d9
:1029a0000104e000c90232006b4151000f00370002
:1029b00042c6b30082cf500017003200654141008b
:1029c00082cf5000b3003a001300370032c7b30083
:1029d00082cf50001f00320007003c0064415100cc
:1029e00082cf5000140032000241e80082cf500034
:1029f000a8003a001300370052c7b30082cf50003e
:102a0000ab0032006341410082cf5000a1003a0088
:102a1000e1d79f000d003700e1d79f00a6003700e7
:102a2000010120000c48a300010032000100280031
:102a30000c867000d0ff3700e1d79f000c60a0002b
:102a40009d003700e1d79f000c50a0000c70a00043
:102a500099003700e1d79f009fb39700c700780027
:102a600097b79f00b1b79f000100e00002003a0055
:102a700049cd2100b9b79f003fb197008000eb001e
:102a8000010037008100e800810141001304e000eb
:102a9000fcff3a00c1b79f002fb597000a00e00085
:102aa00005003200cfb597008b0f550002003100b2
:102ab0008a007800c1b79f00cfb097000004eb00f8
:102ac000810f5000010036000104500068066600c6
:102ad0002b003a00110037003d0090000068a30071
:102ae000070032000e017800010220000d0078007e
:102af00021ff07000000e00006003a000600370052
:102b00008d00780000022000eafb0700e10f400082
:102b1000010032000e07e8000804e9000800e000a8
:102b2000edff3a000084eb00150037003d009000f7
:102b30000068a3000900320008007800b000fb0024
:102b4000000478000e0178000d0078000aff0700ed
:102b50000000e00008003a000f003700880078000d
:102b60003100fb00010478008d007800d1fb0700e4
:102b7000e10f4000080032000e07e80006003700b1
:102b8000acb79f00080678003fb49700cfb4970019
:102b90005fb59700efb59700090078008004e90061
:102ba0000000e000e1ff3a00b8b79f00c9b79f00fe
:102bb000dab79f00ebb79f000c0478002fb69700a0
:102bc0000c00e0003c023200110037003d00900094
:102bd0000068a300070032000e0178000102200007
:102be0000d007800e4fe07000000e00006003a0057
:102bf000060037008d00780000022000adfb0700c2
:102c0000e10f4000010032000e07e8000804e9006f
:102c10000800e000edff3a00270237009fb297005e
:102c20004504780095b79f00cfc4de00614db90020
:102c30000802be000a03be004822de00c828dd00ec
:102c400004827000e4d79f000c48a3000900320002
:102c50000404e00007003200e14f420005003200aa
:102c6000f4d79f0088df9f0022002000c2b79f009a
:102c700003003700f8d79f0013002000c3b79f0060
:102c800064fd2f000f0242000402e800b4b79f0069
:102c900081ff3700e1d79f0065fd2f008582470047
:102ca000b5b79f0016002000c6b79f007aff370017
:102cb000e1d79f000c0cb3008c007800010cb2002f
:102cc00032003a000c00e00005003d009fb0970084
:102cd0004105be004104be0091b79f0008003700c7
:102ce0000c48a3000b0032001fb297004401be0045
:102cf00094b79f000204be004fcdde008a05780025
:102d0000b8b79f00c9b79f00dab79f00ebb79f0025
:102d1000090037009fb49700c900780099b79f0059
:102d2000610ab900612bb900b4b79f00c5b79f0015
:102d3000d6b79f00e7b79f003fb49700cfb4970086
:102d40005fb59700efb59700e00f5400e08f5c008f
:102d5000e00f5d00e08f5d0022003d003c00b3000d
:102d60006022b8006033b8000804520089845a0019
:102d70000a055b008b855b00b8b79f00c9b79f0051
:102d8000dab79f00ebb79f00160037000c00e00099
:102d900004003d001fb497004803be004802be0077
:102da000050037000c48a300050032001fb497004f
:102db0004802be006033b80098b79f000500370096
:102dc0009fb49700c900780099b79f00610ab800c6
:102dd0006033b800b4b79f00c5b79f00d6b79f0057
:102de000e7b79f00afb297000500e0000d003a0082
:102df00016002000a6b79f003fb49700cfb49700fd
:102e00005fb59700efb59700e00f5400e08f5c00ce
:102e1000e00f5d00e08f5d00020032008004eb00f7
:102e2000a9b79f000c0578000a0cb2008ab79f0072
:102e300001042000810f55003400320003003c00e3
:102e40000a00e000080032004800370001082000b6
:102e50008fb59700818f550014003200010c2000bf
:102e6000818f550041003a0042ce210011c0b300cd
:102e70003202be003203be003fb49700cfb49700c9
:102e80005fb59700efb597000440e10005c8e10089
:102e900006d0e10007d8e100330039008140e800a6
:102ea000f4cf5000f2ff3a002f00370011c0b300fa
:102eb00004012000050020006033b8003fb49700f3
:102ec000cfb497005fb59700efb597000440e100dd
:102ed00005c8e10006d0e10007d8e1002200390072
:102ee000490020000402d0008582d2000683d2006f
:102ef0008783d2008904e900faff3a008140e800a4
:102f0000f0cf5000edff3a001700370011c0b300ba
:102f100084002000050020006033b8003fb4970013
:102f2000cfb497005fb59700efb597000440e1007c
:102f300005c8e10006d0e10007d8e1000a00390029
:102f4000390020000402d0008582d2000683d2001e
:102f50008783d2008904e900faff3a008140e80043
:102f6000f5cf5000edff3a00e1d79f006fd59700f5
:102f70008a00fb00afb597008b8f500002003d0028
:102f8000ebd79f00040037002fb19700810f51004d
:102f900001003d00a1b79f000000e00003003200e7
:102fa000e3006600010032000000e9000ce8a30025
:102fb00006003200afb19700830f500002003400ca
:102fc00003005000010037000000eb006fd29700b3
:102fd0008400fb008002eb00f5af9f00810f5000e2
:102fe0000200340081005000f1af9f000c28a300c4
:102ff0003c003200610166000c18a3000f00320093
:103000003d0090000068a30006003200b1022000dd
:103010000200e000010032008180e8000e0178002b
:103020000d003700b00220000200e0000100320075
:103030000080e8008d0078000e0037000200e000fc
:10304000100032003d0090000068a300070032002d
:103050000e017800010220000d007800c6fd070077
:103060000000e00006003a00060037008d007800fe
:10307000000220008ffa0700e10f4000010032003b
:103080000e07e8007fab97000600e0005200320018
:10309000060478003d0090000068a300070032009d
:1030a0000e017800010320000d007800b2fd07003a
:1030b0000000e00006003a00060037008d007800ae
:1030c000000320007bfa0700e10f400001003200fe
:1030d0000e07e8000804e900eeff3a00f8af9f0091
:1030e0003d003700ffab97000700e00016003200fc
:1030f0000c38a30014003a00070478003d0090004b
:103100000068a300070032000e01780001022000d1
:103110000d00780098fd07000000e00006003a006e
:10312000060037008d0078000002200061fa0700d9
:10313000e10f4000010032000e07e8000804e9003a
:10314000eeff3a00f8af9f00610166000c18a30083
:103150000f0032003d0090000068a300060032001e
:10316000b10220000200e000010032008180e8008e
:103170000e0178000d003700b00220000200e000d0
:10318000010032000080e8008d0078000e0037005a
:103190000200e000100032003d0090000068a30033
:1031a000070032000e017800010220000d007800b7
:1031b00071fd07000000e00006003a00060037003d
:1031c0008d007800000220003afa0700e10f40006d
:1031d000010032000e07e8002fb497008800e900d4
:1031e000c308dd00c0cd210000804000e0af9f009b
:1031f00096003700afb497008904e900a9b79f0093
:10320000000420000fb59700800f55006a003200bf
:1032100003003c000a00e00008003200770037009d
:10322000000820008fb59700808f55004c003200b9
:10323000000c2000808f550070003a000c00e00068
:103240001e003d006fa897003004be002005be00a0
:103250000802be000a03be003fb09700cfb097003f
:103260005fb19700efb19700e4f60700e0d79f0049
:103270000000fb00cf80de006109b9000802be003b
:103280000a03be004cf607003fb29700cfb297008a
:103290005fb39700efb397000002520081825a009b
:1032a00002035b0083835b00b4b79f00c5b79f0038
:1032b000d6b79f00e7b79f00250037000c48a30052
:1032c0001a0032003fb29700cfb297006fab970061
:1032d0003604be002605be000801be000400be0084
:1032e000f4b79f0085bf9f005f220700e0d79f00d3
:1032f0000000fb00cf80de000801be005cf7070085
:103300007fb297008fba97000002520081825a0064
:103310000404be006055b800b8b79f00c9b79f004d
:10332000dab79f00ebb79f0009003700efac9700ba
:10333000190178003fb59700110009000285d800f7
:10334000a2002000110009000280d800e1d79f00f0
:10335000efd597000b43b000ebd79f002700370055
:1033600030cc21000c58a3000100320020cb2100fa
:103370002fb19700c210dd003fb29700cfb2970087
:103380005fb39700efb397008100e90005003300b9
:103390008703d1000683d3008582d3000482d30043
:1033a000f9ff37006f026200040240001442780007
:1033b000e4d79f0011003700afb19700e318b900c0
:1033c0003fb29700cfb297005fb39700efb397007b
:1033d000000478000804e900050033008703d100e9
:1033e0000683d3008582d3000482d300f9ff37001f
:1033f000674062000043b000e0d79f00bd0090002e
:10340000efd497000900fb000168a3000700320019
:103410000e017800800078000d007800d6fc0700cf
:103420000000e00005003a00050037008d0078003c
:10343000a0f90700e10f4000010032000e07e8008c
:103440006fad970068055500eaaf9f00afb59700d4
:103450000b00e00067ff3a000c38a30016003200b2
:103460007fa897000000e0001300340000047800fb
:103470003d0090000068a300070032000e017800b4
:10348000010220000d007800bbfc07000000e000f6
:1034900006003a00060037008d0078000002200088
:1034a00084f90700e10f4000010032000e07e80038
:1034b0000804e900eeff3a00dfa897001140780009
:1034c000e0d79f000004e000befc3a000e00780048
:1034d0004f0778004f06be004f05be004f04be00e8
:1034e000ef01b10000000600d00190000281510000
:1034f0004240a9000300340010017800014978001f
:103500000208e8000100780000000600fe8747007e
:10351000889fbe008a9fbe008c9fbe008e1f7800d1
:1035200080067800d1af9f0092b79f000007eb00a4
:103530003d033700dfa897008100e800d1af9f006e
:1035400051c2b300814f500003003a005fa89700ba
:103550000006eb0011003700bd0090000000fb00ea
:103560000168a300070032000e0178008000780097
:103570000d007800dcff07000000e00005003a00c5
:10358000290337008d0078004af90700e10f400059
:10359000250332000e07e80023033700800078007f
:1035a00030417800d3c2b300834f51000c00320089
:1035b00007003c00edc15100834f51000a0032006a
:1035c000ebc14100834f51000d003a000800370065
:1035d00003c3b300834f510009003a0006003700cf
:1035e0000c30a000edff37000c00a000ebff37000f
:1035f0000c10a000e9ff37000c20a000e7ff370007
:103600000c18a300010032000c00a1000c38a3002c
:10361000010032000c20a1000200fb000003b100f9
:10362000e90f50000c003e00010178000000eb00a3
:10363000ea00b900b200fb000103b10000804000c5
:10364000820078009201fb000303b100e98f510072
:10365000f7ff3600080037000000eb00a3c2b300fc
:10366000834f510004003a001fb1970042007800d8
:1036700092b79f008100e8008001eb00a3b79f0094
:10368000e2c2b300914f11000c003a000ce0a00020
:1036900064415100d14f1100030032000101780054
:1036a00003027800090037001fb29700c4027800b7
:1036b00094b79f00a5b79f008100e8000101780042
:1036c00009003700ea22b900048241008200780034
:1036d000b201fb000303b100e98f5100f9ff36008e
:1036e000a4b79f00f5ff3700b2407800d2af9f002b
:1036f000c3c6b30083cf5000250032000f003c004a
:1037000032c6b30082cf5000a000320004003c005b
:103710000104e000c90232006b4151000f00370084
:1037200042c6b30082cf500017003200654141000d
:1037300082cf5000b3003a001300370032c7b30005
:1037400082cf50001f00320007003c00644151004e
:1037500082cf5000140032000241e80082cf5000b6
:10376000a8003a001300370052c7b30082cf5000c0
:10377000ab0032006341410082cf5000a1003a000b
:10378000e1d79f000d003700e1d79f00a60037006a
:10379000010120000c48a3000100320001002800b4
:1037a0000c867000d0ff3700e1d79f000c60a000ae
:1037b0009d003700e1d79f000c50a0000c70a000c6
:1037c00099003700e1d79f009fb39700c7007800aa
:1037d00097b79f00b1b79f000100e00002003a00d8
:1037e000e9d92100b9b79f003fb197008000eb00f5
:1037f000010037008100e800810141001304e0006e
:10380000fcff3a00c1b79f002fb597000a00e00007
:1038100005003200cfb597008b0f55000200310034
:103820008a007800c1b79f00cfb097000004eb007a
:10383000810f500001003600010450006806660048
:103840002b003a00110037003d0090000068a300f3
:10385000070032000e017800010220000d00780000
:1038600021ff07000000e00006003a0006003700d4
:103870008d007800000220008ef80700e10f400064
:10388000010032000e07e8000804e9000800e0002b
:10389000edff3a000084eb00150037003d0090007a
:1038a0000068a3000900320008007800b000fb00a7
:1038b000000478000e0178000d0078000aff070070
:1038c0000000e00008003a000f0037008800780090
:1038d0003100fb00010478008d00780075f80700c6
:1038e000e10f4000080032000e07e8000600370034
:1038f000acb79f00080678003fb49700cfb497009c
:103900005fb59700efb59700090078008004e900e3
:103910000000e000e1ff3a00b8b79f00c9b79f0080
:10392000dab79f00ebb79f000c0478002fb6970022
:103930000c00e0003c023200110037003d00900016
:103940000068a300070032000e0178000102200089
:103950000d007800e4fe07000000e00006003a00d9
:10396000060037008d0078000002200051f80700a3
:10397000e10f4000010032000e07e8000804e900f2
:103980000800e000edff3a00270237009fb29700e1
:103990004504780095b79f00cfc4de00614db900a3
:1039a0000802be000a03be004822de00c828dd006f
:1039b00004827000e4d79f000c48a3000900320085
:1039c0000404e00007003200e14f4200050032002d
:1039d000f4d79f0088df9f0022002000c2b79f001d
:1039e00003003700f8d79f0013002000c3b79f00e3
:1039f00064fd2f000f0242000402e800b4b79f00ec
:103a000081ff3700e1d79f0065fd2f0085824700c9
:103a1000b5b79f0016002000c6b79f007aff370099
:103a2000e1d79f000c0cb3008c007800010cb200b1
:103a300032003a000c00e00005003d009fb0970006
:103a40004105be004104be0091b79f000800370049
:103a50000c48a3000b0032001fb297004401be00c7
:103a600094b79f000204be004fcdde008a057800a7
:103a7000b8b79f00c9b79f00dab79f00ebb79f00a8
:103a8000090037009fb49700c900780099b79f00dc
:103a9000610ab900612bb900b4b79f00c5b79f0098
:103aa000d6b79f00e7b79f003fb49700cfb4970009
:103ab0005fb59700efb59700e00f5400e08f5c0012
:103ac000e00f5d00e08f5d0022003d003c00b30090
:103ad0006022b8006033b8000804520089845a009c
:103ae0000a055b008b855b00b8b79f00c9b79f00d4
:103af000dab79f00ebb79f00160037000c00e0001c
:103b000004003d001fb497004803be004802be00f9
:103b1000050037000c48a300050032001fb49700d1
:103b20004802be006033b80098b79f000500370018
:103b30009fb49700c900780099b79f00610ab80048
:103b40006033b800b4b79f00c5b79f00d6b79f00d9
:103b5000e7b79f00afb297000500e0000d003a0004
:103b600016002000a6b79f003fb49700cfb497007f
:103b70005fb59700efb59700e00f5400e08f5c0051
:103b8000e00f5d00e08f5d00020032008004eb007a
:103b9000a9b79f000c0578000a0cb2008ab79f00f5
:103ba00001042000810f55003400320003003c0066
:103bb0000a00e00008003200480037000108200039
:103bc0008fb59700818f550014003200010c200042
:103bd000818f550041003a00e2da210011c0b300a4
:103be0003202be003203be003fb49700cfb497004c
:103bf0005fb59700efb597000440e10005c8e1000c
:103c000006d0e10007d8e100330039008140e80028
:103c1000f4cf5000f2ff3a002f00370011c0b3007c
:103c200004012000050020006033b8003fb4970075
:103c3000cfb497005fb59700efb597000440e1005f
:103c400005c8e10006d0e10007d8e10022003900f4
:103c5000490020000402d0008582d2000683d200f1
:103c60008783d2008904e900faff3a008140e80026
:103c7000f0cf5000edff3a001700370011c0b3003d
:103c800084002000050020006033b8003fb4970096
:103c9000cfb497005fb59700efb597000440e100ff
:103ca00005c8e10006d0e10007d8e1000a003900ac
:103cb000390020000402d0008582d2000683d200a1
:103cc0008783d2008904e900faff3a008140e800c6
:103cd000f5cf5000edff3a00e1d79f006fd5970078
:103ce0008a00fb00afb597008b8f500002003d00ab
:103cf000ebd79f00040037002fb19700810f5100d0
:103d000001003d00a1b79f000000e0000300320069
:103d1000e3006600010032000000e9000ce8a300a7
:103d200006003200afb19700830f5000020034004c
:103d300003005000010037000000eb006fd2970035
:103d40008400fb008002eb00f5af9f00810f500064
:103d50000200340081005000f1af9f000c28a30046
:103d60003c003200610166000c18a3000f00320015
:103d70003d0090000068a30006003200b102200060
:103d80000200e000010032008180e8000e017800ae
:103d90000d003700b00220000200e00001003200f8
:103da0000080e8008d0078000e0037000200e0007f
:103db000100032003d0090000068a30007003200b0
:103dc0000e017800010220000d007800c6fd0700fa
:103dd0000000e00006003a00060037008d00780081
:103de0000002200033f70700e10f4000010032001d
:103df0000e07e8007fab97000600e000520032009b
:103e0000060478003d0090000068a300070032001f
:103e10000e017800010320000d007800b2fd0700bc
:103e20000000e00006003a00060037008d00780030
:103e3000000320001ff70700e10f400001003200df
:103e40000e07e8000804e900eeff3a00f8af9f0013
:103e50003d003700ffab97000700e000160032007e
:103e60000c38a30014003a00070478003d009000cd
:103e70000068a300070032000e0178000102200054
:103e80000d00780098fd07000000e00006003a00f1
:103e9000060037008d0078000002200005f70700bb
:103ea000e10f4000010032000e07e8000804e900bd
:103eb000eeff3a00f8af9f00610166000c18a30006
:103ec0000f0032003d0090000068a30006003200a1
:103ed000b10220000200e000010032008180e80011
:103ee0000e0178000d003700b00220000200e00053
:103ef000010032000080e8008d0078000e003700dd
:103f00000200e000100032003d0090000068a300b5
:103f1000070032000e017800010220000d00780039
:103f200071fd07000000e00006003a0006003700bf
:103f30008d00780000022000def60700e10f40004f
:103f4000010032000e07e8002fb497008800e90056
:103f5000c308dd0060da210000804000e0af9f0070
:103f600096003700afb497008904e900a9b79f0015
:103f7000000420000fb59700800f55006a00320042
:103f800003003c000a00e000080032007700370020
:103f9000000820008fb59700808f55004c0032003c
:103fa000000c2000808f550070003a000c00e000eb
:103fb0001e003d006fa897003004be002005be0023
:103fc0000802be000a03be003fb09700cfb09700c2
:103fd0005fb19700efb1970088f30700e0d79f002b
:103fe0000000fb00cf80de006109b9000802be00be
:103ff0000a03be00f0f207003fb29700cfb297006d
:104000005fb39700efb397000002520081825a001d
:1040100002035b0083835b00b4b79f00c5b79f00ba
:10402000d6b79f00e7b79f00250037000c48a300d4
:104030001a0032003fb29700cfb297006fab9700e3
:104040003604be002605be000801be000400be0006
:10405000f4b79f0085bf9f00031f0700e0d79f00b4
:104060000000fb00cf80de000801be0000f4070066
:104070007fb297008fba97000002520081825a00e7
:104080000404be006055b800b8b79f00c9b79f00d0
:10409000dab79f00ebb79f0009003700efac97003d
:1040a000190178003fb59700110009000285d8007a
:1040b000a2002000110009000280d800e1d79f0073
:1040c000efd597000b43b000ebd79f0027003700d8
:1040d000d0d821000c58a30001003200c0d7210025
:1040e0002fb19700c210dd003fb29700cfb297000a
:1040f0005fb39700efb397008100e900050033003c
:104100008703d1000683d3008582d3000482d300c5
:10411000f9ff37006f026200040240001442780089
:10412000e4d79f0011003700afb19700e318b90042
:104130003fb29700cfb297005fb39700efb39700fd
:10414000000478000804e900050033008703d1006b
:104150000683d3008582d3000482d300f9ff3700a1
:10416000674062000043b000e0d79f00bd009000b0
:10417000efd497000900fb000168a300070032009c
:104180000e017800800078000d007800d6fc070052
:104190000000e00005003a00050037008d007800bf
:1041a00044f60700e10f4000010032000e07e8006e
:1041b0006fad970068055500eaaf9f00afb5970057
:1041c0000b00e00067ff3a000c38a3001600320035
:1041d0007fa897000000e00013003400000478007e
:1041e0003d0090000068a300070032000e01780037
:1041f000010220000d007800bbfc07000000e00079
:1042000006003a00060037008d007800000220000a
:1042100028f60700e10f4000010032000e07e80019
:104220000804e900eeff3a00dfa89700114078008b
:10423000e0d79f000004e000befc3a000e007800ca
:104240004f0778004f06be004f05be004f04be006a
:10425000ef01b10000000600000478003f1a0700db
:1042600008007800f6f107000800fa00889fbe00f9
:104270008a9fbe000084fb00d1c6b300814f50006e
:10428000340036004b062000110009000b84d800d2
:1042900081057800720040004300dd0009a2210082
:1042a000008044006022b8000600200007fe2300c2
:1042b0005001be004000be00d81e07000002be0034
:1042c0000203be0084bf9f0095bf9f00a6bf9f0052
:1042d000b7bf9f00aa002000110009008a85d800fe
:1042e00080057800e9854500c35ddd008b854400cd
:1042f0003b02be002b03be000fb897009fb897008b
:104300002fb99700bfb99700c41e07000002be0076
:104310000203be0084bf9f0095bf9f00a6bf9f0001
:10432000b7bf9f00110009000a84d800010478007b
:104330004344dd00888444003902be002903be00e6
:104340000fb897009fb897002fb99700bfb9970093
:104350001d003700ea4f500013003600aa0020006d
:10436000110009000a84d8000105780069044000a2
:104370004344dd0009a22100088444006022b80003
:104380000600200007fe23003800be002801be0002
:10439000a21e07004355dd008a8444003902be0096
:1043a0002903be00080037004344dd0000a22100bd
:1043b000080440006022b8000600200007fe230029
:1043c0003800be002801be00941e07004f05be0045
:1043d0004f04be000080fa00000006000800fa004a
:1043e000889fbe008a9fbe00d1c6b3000004e000d3
:1043f00023003d000040ea000004fb00814f500014
:104400000a00340042062000110009000204d8000e
:10441000a9002000110009008900d800e90040002f
:10442000c308dd000aa2210021003700ea4f500036
:1044300010003400a2002000110009000204d8007e
:1044400001017800690040004300dd0001a2210065
:10445000008040004311dd00828040003102be0038
:104460002103be005001be004000be006b1e0700cd
:10447000380037004344dd0000a22100320037003d
:104480000004fb00814f500023003400420620004e
:10449000110009000204d800a90020001100090041
:1044a0008900d800e9004000c308dd000a97210018
:1044b000810045003102be002103be008b092000af
:1044c0008a8545003b00be002b01be00531e07003d
:1044d0000002be000203be0084bf9f0095bf9f0084
:1044e000a6bf9f00b7bf9f00110009000904d800b4
:1044f000010478004344dd00080545003a02be008f
:104500002a03be000fb897009fb897002fb99700f5
:10451000bfb99700d5ff3700ea4f500008003400bc
:10452000a2002000110009000204d8000101780057
:10453000690040004300dd0001972100c4ff3700ff
:104540004344dd0000972100080440003800be000d
:104550002801be004f05be004f04be000080fa00d7
:1045600000000600d0019000028151004240a900e5
:104570000300340010017800014978000208e800c7
:104580000100780000000600ef03b000889fbe0025
:104590008a9fbe008c9fbe008e1f780000067800a8
:1045a000e19f9f0082af9f006000b8006011b800db
:1045b00080a79f0091a79f00a2a79f00b3a79f007d
:1045c0008006eb009b053700ef9897008100e8001c
:1045d000e19f9f0051c2b300814f500003003a0099
:1045e0006f9997000007eb0011003700bc009000a6
:1045f0000000fb000168a300070032000d017800f5
:10460000800078000c007800d6ff07000000e00072
:1046100005003a00870537008c00780025f5070073
:10462000e10f4000830532008d06e8008105370068
:1046300002007800b2407800d3c2b30083cf5000ac
:104640000c00320007003c00edc1510083cf500048
:104650000a003200ebc1410083cf50000d003a0048
:104660000800370003c3b30083cf500009003a00ad
:10467000060037000e30a000edff37000e00a0004e
:10468000ebff37000e10a000e9ff37000e20a0005e
:10469000e7ff37000e18a300010032000e00a10052
:1046a0000e38a300010032000e20a1000101fb0022
:1046b0000203b100e90f51000e003e0080007800b7
:1046c0000001eb0092b79f00ea11b9003100fb0036
:1046d0000003b10002014000010078009101fb00dd
:1046e0000303b100e98f5100f7ff360092b79f0036
:1046f0000a0037008001eb0093b79f00a2c2b3000d
:1047000082cf500005003a000faa9700c40278003b
:1047100084af9f0095b79f000000e800e1c2b3009e
:1047200090cf100017003a000ee0a000e4c0500047
:10473000d0cf100003003200800078008001eb0031
:10474000090037008fab9700c700780087af9f0044
:10475000d1af9f000000e800000178000d00370095
:10476000ea18b90080014100010078003101fb0026
:104770000203b100e90f5100f9ff3600d3af9f00eb
:10478000f5ff37000ec0a0000001eb00d2af9f0084
:10479000f1ff370082017800334078000301780090
:1047a000c1c6b300814f50002b003200e39f9f0031
:1047b00014003c00e8c05000814f5000240032003b
:1047c00009003c00ecc05000814f50002e00320028
:1047d000ebc04000814f5000980032000004e00020
:1047e00019053200b400370061c6b300814f500094
:1047f0001f003200e3c04000814f5000ae003a007d
:104800001300370031c7b300814f5000220032003f
:1048100007003c00e4c05000814f500017003200f8
:104820008140e800814f5000a3003a001600370095
:1048300051c7b300814f5000a4003200e3c04000d4
:10484000814f50009c003a00e0779f001000370035
:10485000e0779f009f003700000120000e48a30072
:1048600001003200000028000e077000c9ff370069
:10487000e0779f000ea0a00096003700e0779f0031
:104880000e60a00093003700e0779f000e50a0005c
:104890000e70a0008f003700e0779f008fa997006f
:1048a0004300780083af9f00000478000000e00020
:1048b00001003a0088e62100080178000000eb00c2
:1048c000010037000000e800800041001104e00012
:1048d000fcff3a00800478005faa97000400e00023
:1048e00003003200890f5200010031008404780077
:1048f0008001eb009fb29700898f520001003600c3
:104900008981520068036700d6af9f002c003a00ef
:1049100003077800110037003c0090000068a300f6
:10492000070032000d017800010220000c00780021
:104930000cff07000000e00006003a000600370008
:104940008c007800000220005af40700e10f4000bc
:10495000010032008d06e8000e07e9000e00e000bd
:10496000edff3a008081eb00150037003c0090001d
:104970000068a3000900320008007800b000fb00c6
:10498000000478000d0178000c007800f5fe0700a7
:104990000000e00008003a000a00370088007800b4
:1049a0003100fb00010478008c00780041f407001e
:1049b000e10f4000030032008d06e80001003700df
:1049c00003077800090078008004e9000000e00097
:1049d000e6ff3a008e017800dfab97000700e000a9
:1049e0009404320003077800110037003c00900067
:1049f0000068a300070032000d01780001022000ca
:104a00000c007800d7fe07000000e00006003a0026
:104a1000060037008c0078000002200025f4070013
:104a2000e10f4000010032008d06e8000e07e900aa
:104a30000e00e000edff3a007e0437008fa89700db
:104a40004100780081af9f006102b900612bb9007d
:104a500094af9f00a5af9f00b6af9f00c7af9f0068
:104a60004822de004828dd0004027000e4779f0041
:104a70000e48a300090032000404e00007003200e1
:104a8000e14f420005003200f4779f00afd097005d
:104a9000817f9f0029002000030037002fd197005d
:104aa000f2779f001900200063fb2f008f814100e7
:104ab0000304e80088ff3700e0779f0068fb2f00c1
:104ac0000f0444001900200083ff3700e0779f00a7
:104ad0000e0cb3000070200000006700640232007a
:104ae0000ec8a3000200320064002000d4af9f0073
:104af0000e48a300090032000faa97004401be002f
:104b00004400be0084af9f0090af9f00a1af9f0004
:104b1000b2af9f00c3af9f000a0037008faa970073
:104b20004500be0085af9f0057f107000002be00a0
:104b30000203be0094af9f00a5af9f00b6af9f00d9
:104b4000c7af9f006022b8006033b8001fa897006d
:104b5000afa897003fa99700cfa9970069f1070078
:104b60000000e0000a003d001fa89700afa89700d2
:104b70003fa99700cfa9970003f0a20090af9f0034
:104b8000a1af9f00b2af9f00c3af9f003e00b30034
:104b90000000eb00d09f9f006022b8006033b80097
:104ba0001fa89700afa897003fa99700cfa997002b
:104bb00059f107000000e00034003200a4fb2f0090
:104bc0000f0242001fa89700afa897003fa99700c7
:104bd000cfa997001e1d07005f9897000000e9000d
:104be000e300b900a2002000110009000200d80073
:104bf000d09f9f000000e00002003d000000e9009f
:104c0000d09f9f005f9c97000840ea00f3fd0700db
:104c10001faa9700afaa97003fab9700cfab9700b2
:104c20007e1c07000002be000203be0084a79f0096
:104c300095a79f00a6a79f00b7a79f006022b80076
:104c40000600200007ff23002ef107000000e0000f
:104c500002003d000804e9000b0037006022b800a4
:104c600006002000470224000fa097009fa0970095
:104c70002fa19700bfa197002cf107000000e000d2
:104c8000020035000804e800d89f9f00dfaa9700c3
:104c9000f88f52000f003c000540780072fd0700bd
:104ca0000002be000203be001fa89700afa8970035
:104cb0003fa99700cfa99700e71c07000002be009c
:104cc0000203be0094af9f00a5af9f00b6af9f0048
:104cd000c7af9f005f9c9700e90f540015003c0090
:104ce0006022b8006033b8001fa89700afa89700f3
:104cf0003fa99700cfa9970007f107000000e00047
:104d0000320032001fa89700afa897003fa9970074
:104d1000cfa997000af10700e00f5000e08f58007c
:104d2000e00f5900e08f590028003a00e10f5400cd
:104d3000260034000400200005002e00b6e022000a
:104d4000170124000fa097009fa097002fa19700a4
:104d5000bfa19700ebf007000000e00002003d005b
:104d6000730454000100370072045400d89f9f0060
:104d70002f78970099fd07000002be000203be00d5
:104d800084a79f0095a79f00a6a79f00b7a79f0095
:104d90001fa89700afa897003fa99700cfa9970039
:104da000f81c0700e6f007000205be000004be0084
:104db0006000b8006011b80090af9f00a1af9f00e5
:104dc000b2af9f00c3af9f00170037001fa8970026
:104dd000afa897003fa99700cfa99700d8f0070088
:104de0000205be000004be0006f107000002be007e
:104df0000203be001fa89700afa897003fa9970025
:104e0000cfa99700931c07000002be000203be005a
:104e100094af9f00a5af9f00b6af9f00c7af9f00a4
:104e20000000eb00d09f9f0085e7210014c0b30075
:104e3000080037003500be003501be000040e1002b
:104e400001c8e10002d0e10003d8e100030039000d
:104e50000442e800f44f5200f6ff3a00e4779f0066
:104e60005f9897009fb29700008052005fab970059
:104e7000860050000400fb000080500090b79f00a7
:104e80000600e000020032000000e90090b79f0039
:104e900063006700030032009fb397008703e900b7
:104ea00097b79f000e28a3005000320061016700f1
:104eb0000e18a3000f0032003c0090000068a30011
:104ec00006003200b10220000200e00001003200c2
:104ed0008180e8000d0178000d003700b00220004d
:104ee0000200e000010032000080e8008c00780041
:104ef0000e0037000200e000330032003c0090005a
:104f00000068a300070032000d01780001022000b4
:104f10000c00780093fd07000000e00006003a0056
:104f2000290037008c00780000022000e1f2070021
:104f3000e10f4000240032008d06e8002200370017
:104f40003c0090000068a3000f0032000d017800c3
:104f5000010320000c007800f4b79f0085bf9f007c
:104f6000d6b79f00e7b79f007efd07007fb297008e
:104f70008fba97005fb39700efb397000000e0008f
:104f80000e003a000e0037008c007800000320006d
:104f9000f4b79f0085bf9f00d6b79f00e7b79f007b
:104fa000c4f207007fb297008fba97005fb39700f3
:104fb000efb39700e10f4000010032008d06e800da
:104fc0008904e900030037000802be000a03be009e
:104fd0009fb497000900e000d9ff3c0099b79f00fb
:104fe0000605be000404be00670037000e38a300ab
:104ff0001e003a00c8a79f00d9a79f00eaa79f00fc
:10500000fba79f009fb49700110037003c00900061
:105010000068a300070032000d01780001022000a3
:105020000c0078004ffd07000000e00006003a0089
:10503000060037008c007800000220009df2070077
:10504000e10f4000010032008d06e8008904e9000c
:105050000900e000edff3c0099b79f004fa49700c6
:10506000dfa497006fa59700ffa597006101670077
:105070000e18a3000e0032003c0090000068a30050
:1050800005003200b10220000200e00025003200dd
:105090008180e80023003700b00220000200e00019
:1050a000010032000080e8008c00780032003700f8
:1050b0000200e000340032003c0090000068a300d1
:1050c000030032000d0178000102200016003700b5
:1050d0008c00780000022000270037003c0190007f
:1050e0008100fb0000e721000268a30013003200ea
:1050f000c308dd00010040003002be002003be00f6
:105100000800be000a01be003cef0700a40020001a
:10511000050020006033b8003fef070001032000c6
:10512000808040000d0178000c0078000dfd070024
:105130000000e00013003a0013003700c308dd0050
:10514000010040003002be002003be000800be0087
:105150000a01be0029ef0700a4002000050020007e
:105160006033b8002cef070002032000000141006b
:105170008c007800020078004ef20700e10f40003a
:10518000010032008d06e8006f7097008040e90052
:10519000e1779f000004e000d0ff3a0013003700e1
:1051a0003c0090000068a300070032000d01780069
:1051b000010320000c007800eafc07000000e0007a
:1051c00006003a00060037008c007800000320003b
:1051d00038f20700e10f4000010032008d06e800c0
:1051e0005f9897000000e900d09f9f005f989700ac
:1051f0000000e000eaff3c00dfa89700f28f5000bb
:105200000300340020c1b300e0779f0002003700a4
:105210002fd99700e2779f006f7097008000fb0006
:10522000dfa9970081805100d1af9f000004e0000a
:10523000100032003c0090000068a300070032001c
:105240000d017800e10220000c007800c5fc070089
:105250000000e00006003a00060037008c007800ed
:10526000e002200013f20700e10f400001003200cd
:105270008d06e8006f70970058fc07000002be0022
:105280000203be001fa89700afa897003fa9970090
:10529000cfa99700e11a0700a9ef070033003700f4
:1052a0003c01900001e721000000fb000268a30020
:1052b000130032004300dd00008040003002be00d9
:1052c0002003be000800be000a01be00cbee0700ae
:1052d000a4002000050020006033b800ceee0700d7
:1052e0000003b0000d017800800078000c00780009
:1052f0009cfc07000000e00011003a00110037009c
:105300004300dd00008040003002be002003be00ec
:105310000800be000a01be00b8ee0700a40020008d
:10532000050020006033b800bbee07000003b000aa
:105330008c007800dff10700e10f4000010032002f
:105340008d06e8006f7297000400fb004300dd004b
:1053500001e72100008040003002be002003be00b3
:105360000800be000a01be00abee07000205be0049
:105370000004be00ef7097000140e900e0779f0055
:105380000104e000c6ff3a0098af9f00a9af9f005c
:10539000baaf9f00cbaf9f00dfac97001100370082
:1053a0003c0090000068a300070032000d01780067
:1053b000010320000c0078006afc07000000e000f8
:1053c00006003a00060037008c0078000003200039
:1053d000b8f10700e10f4000010032008d06e8003f
:1053e0008904e9000900e000edff3a001fac9700d6
:1053f000afac97003fad9700cfad97000e38a3003c
:105400000c0232009fb097000100e0000902340056
:10541000d8af9f00e9af9f00faaf9f008bb79f0006
:10542000810478003c0090000068a300070032006f
:105430000d017800010220000c00780049fc0700f3
:105440000000e00006003a00060037008c007800fb
:105450000002200097f10700e10f40000100320038
:105460008d06e8008904e900eeff3a00f1013700fb
:105470000e007800000cb20021003a000e00e0009f
:1054800005003d008faa97004505be004504be00fb
:1054900085af9f000d0037000e48a30006003200c4
:1054a0000fab97004604be0086af9f004fcdde00d5
:1054b0008a057800050037008fab97004704780015
:1054c00087af9f00cfc4de00614db900e00f5400ec
:1054d000e08f5c00e00f5d00e08f5d001b003d0091
:1054e0003e00b3006000b8006011b800080450002e
:1054f000898458000a0559008b855900130037002c
:105500000e00e00005003d000fa897004005be001a
:105510004004be0080af9f000c0037000e48a3007f
:10552000050032008fa897004104be006055b80006
:1055300081af9f00050037000fa997004204780053
:1055400082af9f008004eb006055b800dfa9970090
:105550000300e00009003a0014002000d4af9f00cf
:10556000e00f5400e08f5c00e00f5d00e08f5d0015
:10557000020032008002eb00d5af9f000e037800de
:10558000060cb20096af9f0000042000800f53006d
:105590002c00320003003c000600e000080032004e
:1055a0003c003700000820009fab9700808f53001d
:1055b00010003200000c2000808f530035003a00ac
:1055c00085e7210014c0b3003500be003501be00e0
:1055d0000040e10001c8e10002d0e10003d8e10091
:1055e0002b0039000442e800f44f5200f6ff3a0065
:1055f0002700370014c0b300000120000100200084
:105600006011b8000040e10001c8e10002d0e100f3
:1056100003d8e1001e003900450020000000d00042
:105620008180d2000281d2008381d2008502e9000c
:10563000faff3a000442e800f04f5200f1ff3a004e
:105640001300370014c0b3008000200001002000c8
:105650006011b8000040e10001c8e10002d0e100a3
:1056600003d8e1000a003900360020000000d00015
:105670008180d2000281d2008381d2000603e9003a
:10568000faff3a000442e800f54f5200f1ff3a00f9
:10569000e4779f00ef7397000700fb00dfa89700f7
:1056a000810f500002003d00e1779f0004003700a9
:1056b0005fa99700800f510001003d00d0af9f000f
:1056c0009fb197000300e000040032006300670010
:1056d000020032008301e90093b79f000ee8a300a7
:1056e000090032001fb29700dfaa9700850f520011
:1056f000030034000502520094b79f0002003700f7
:105700000003eb0096b79f00ef7397000700fb00c4
:105710008000eb00c1a79f001fb19700800f5100d0
:105720000200340000005100c0a79f000e28a30013
:1057300044003200610167000e18a3000f00320020
:105740003c0090000068a30006003200b102200077
:105750000200e000010032008180e8000d017800c5
:105760000d003700b00220000200e000010032000e
:105770000080e8008c0078000e0037000200e00096
:10578000100032003c0090000068a30007003200c7
:105790000d017800010220000c00780071fb070069
:1057a0000000e00006003a00060037008c00780098
:1057b00000022000bff00700e10f400001003200ae
:1057c0008d06e800cfa197000300e00062003200e0
:1057d00098b79f00a9b79f00bab79f00cbb79f00ab
:1057e000830478003c0090000068a30007003200aa
:1057f0000d017800010320000c00780059fb070020
:105800000000e00006003a00060037008c00780037
:1058100000032000a7f00700e10f40000100320064
:105820008d06e8008904e900eeff3a00c9a79f0051
:105830001fb49700afb497003fb59700cfb597005e
:1058400045003700cfa297000500e0001e0032009f
:105850000e38a3001c003a0098b79f00a9b79f001c
:10586000bab79f00cbb79f00850478003c0090003a
:105870000068a300070032000d017800010220003b
:105880000c00780037fb07000000e00006003a003b
:10589000060037008c0078000002200085f0070029
:1058a000e10f4000010032008d06e8008904e900a4
:1058b000eeff3a00c9a79f001fb49700afb497004e
:1058c0003fb59700cfb59700610167000e18a300a0
:1058d0000f0032003c0090000068a3000600320078
:1058e000b10220000200e000010032008180e800e7
:1058f0000d0178000d003700b00220000200e0002a
:10590000010032000080e8008c0078000e003700b3
:105910000200e000100032003c0090000068a3008c
:10592000070032000d017800010220000c00780011
:105930000cfb07000000e00006003a0006003700fc
:105940008c007800000220005af00700e10f4000b0
:10595000010032008d06e8005fa997008200e9008f
:10596000c308dd0000e7210000804000f09f9f0099
:1059700098b79f00a9b79f00bab79f00cbb79f0009
:1059800091003700dfaa97008502e900d5af9f009c
:10599000000420001fab9700800f53006500320009
:1059a00003003c000600e0000800320072003700ef
:1059b000000820009fab9700808f53004800320002
:1059c000000c2000808f53006b003a000e00e000b6
:1059d0001a003d007f9897003004be002005be00ed
:1059e0000802be000a03be001fb09700afb09700c8
:1059f0003fb19700cfb1970000ed0700e0779f001f
:105a00000000fb00cf80de006109b9000802be0083
:105a10000a03be0068ec07001fb29700afb2970000
:105a20003fb39700cfb397000002520081825a0023
:105a300002035b0083835b00170037000e48a3005e
:105a40001a0032001fb29700afb297007f9b9700f9
:105a50003604be002605be000801be000400be00dc
:105a6000f4b79f0085bf9f007f180700e0779f0075
:105a70000000fb00cf80de000801be007ced0700c7
:105a80007fb297008fba97000000520081805a00c1
:105a90000002be006033b80094b79f00a5b79f0016
:105aa000b6b79f00c7b79f0009003700ff9a97005d
:105ab000150178001fb39700110009000283d80078
:105ac000a2002000110009000280d800e1779f00a9
:105ad000ef7397000743b000e7779f002600370079
:105ae00070e521000e58a3000100320060e421009f
:105af0005fac9700c240dd001fb29700afb29700c5
:105b00003fb39700cfb397008100e9000500330051
:105b10008703d1000683d3008582d3000482d3009b
:105b2000f9ff3700ef0062000100400010407800ec
:105b300010003700dfa89700e308b9001fb29700f4
:105b4000afb297003fb39700cfb39700000478003f
:105b50000804e900050033008703d1000683d30061
:105b60008582d3000482d300f9ff370067406200ca
:105b70000043b000e0779f00bc0090006f71970079
:105b80000200fb000168a300070032000d0178004d
:105b9000800078000c00780072fa07000000e00036
:105ba00005003a00050037008c007800c1ef0700bf
:105bb000e10f4000010032008d06e800ff999700d8
:105bc000e8815100f39f9f005faa97000400e00066
:105bd0006cff3a000e38a30016003200cfa29700e7
:105be0000500e00013003400050778003c00900039
:105bf0000068a300070032000d01780001022000b8
:105c00000c00780057fa07000000e00006003a0098
:105c1000060037008c00780000022000a5ef070086
:105c2000e10f4000010032008d06e8000e07e90098
:105c3000eeff3a006f9b970016407800e0779f00d8
:105c40000004e00060fa3a000d0078004f07780089
:105c50004f06be004f05be004f04be00ef03b1006b
:105c600000000600d0019000028151004240a900ce
:105c70000300340010017800014978000208e800b0
:105c800001007800000006002f02b000889fbe00cf
:105c90008a9fbe008c9fbe008e1f78000006780091
:105ca000f1af9f0092b79f008006eb009102370092
:105cb000ffa897008100e800f1af9f0051c2b30038
:105cc000814f500003003a007fa897008040eb000e
:105cd00011003700bc0090000000fb000168a30029
:105ce000070032000d017800800078000c00780079
:105cf000dcff07000000e00005003a007d023700ed
:105d00008c0078006bef0700e10f40007902320051
:105d10008d06e8007702370000017800b041780076
:105d2000d4c2b30084cf51000c00320007003c0005
:105d30006d42520084cf51000a0032006b42420093
:105d400084cf51000d003a000800370004c3b300af
:105d500084cf510009003a00060037000134a0004a
:105d6000edff37000104a000ebff37000114a00095
:105d7000e9ff37000124a000e7ff37000118a30066
:105d8000010032000104a1000138a300010032002b
:105d90000124a1000300fb000003b100e90f500043
:105da0000c003e00820178000000eb00ea00b90020
:105db0003301fb000203b100000041000301780041
:105dc0001302fb000403b100e90f5200f7ff360095
:105dd000080037000000eb00a4c2b30084cf5100dc
:105de00004003a009fb197004300780093b79f00ea
:105df0000201e8000007eb00e3c2b30092cf1100fc
:105e000009003a00e4c15100d2cf11000200320073
:105e100082017800080037001fb29700440778001d
:105e200094b79f000201e800820178000800370063
:105e3000ea71b90002074200030178003302fb0057
:105e40000403b100e90f5200f9ff3600f6ff3700f6
:105e500003027800344178008401780035c7b3002c
:105e6000854f51001c0032000a003c00f0c2520075
:105e7000854f51008d003200e9c24200854f51002c
:105e80000c003200f4af9f000204e0001e0232005a
:105e9000a5003700f4af9f0053c7b300834f5100f4
:105ea000a8003200e3c14100834f51009e003a0038
:105eb0000600370002c1b3000148a3000100320010
:105ec0000041eb0082c07000e1ff3700a2d79f00c5
