:020000040000fa
:080000000002040000000000f2
:020000040000fa
:100400000f6722000e3f24000e018800000000004c
:10041000000020000000e000020032000001200087
:10042000200288000c000700c09e2e000100200062
:100430001f000700100020000000e0000200320052
:10044000b60202000000000040cc020000000000e4
:100450000040da000000fe004440a90020472100cf
:100460000000e0000300320020002000a00188000e
:100470004440a80000000600f03fb1000180b10038
:1004800006003500ee03090000000000403fb10007
:100490000180b100fbff3d001000b000203fb00024
:1004a0000200350000800900000000000000060086
:1004b00091018800800078000000eb0015003700f3
:1004c000e280400032a0b4009101ba00e280400016
:1004d00032a0b4009102ba00e280400032a0b40021
:1004e0000002eb00472bde00f507b200602ce100b4
:1004f00004003a000059eb008301e900fdff3e00d3
:10050000040037006128e100010032000082eb00a6
:10051000040007001101ba000200e000e8ff3a0001
:10052000000006003159ba008301e9000c003200d6
:100530002159ba008301e900080032000400e000fc
:1005400003003a00e280400032a0b400f5ff37001b
:1005500011d9ba008301e900faff3a008100e800ee
:10056000e180400032a0b400000006007ed5020009
:10057000000000001cbe02000000000078370200ee
:1005800001000000e0e9020000000000e622020095
:100590000100000000000600188c040000000000ac
:1005a0001031040001000000da8c0400000000009b
:1005b000268d040000000000728d04000000000081
:1005c000bc8d040000000000d68d04000000000077
:1005d000143304000100000036fd04000000000098
:1005e00044fd0400000000002e3b04000100000058
:1005f000042d04000100000084ca04000000000073
:100600004cc10400000000005ac1040000000000ba
:10061000cec0040000000000fec004000000000086
:100620009ac1040000000000dac1040000000000cc
:1006300008c2040000000000a2c204000000000084
:1006400048c204000000000088c20400000000004e
:10065000e2c20400000000004ac3040000000000e1
:10066000b4c3040000000000dac30400000000006e
:1006700008c404000000000036c4040000000000ac
:1006800064c4040000000000aac4040000000000cc
:1006900002c504000000000046c504000000000080
:1006a000a0c5040000000000fac50400000000001e
:1006b00054c6040000000000aec6040000000000a4
:1006c00008c704000000000062c70400000000002a
:1006d00086c7040000000000d0c80400000000002d
:1006e000ecc70400000000003cc80400000000004b
:1006f000e6c8040000000000fec80400000000007e
:100700000cc90400000000001ac904000000000029
:100710009cc904000000000028c90400000000007b
:10072000b2c90400000000000aca04000000000072
:100730002eca04000000000058ca04000000000097
:100740008ccd040000000000a0cd040000000000db
:1007500052c904000000000060c90400000000004d
:1007600066c804000000000074c804000000000017
:10077000a011040001000000c211040001000000eb
:10078000ae100400010000003a1104000100000056
:10079000d611040001000000f8110400010000005f
:1007a00018100400010000004210040001000000c5
:1007b0000c120400010000002e12040001000000d1
:1007c000b20e040001000000c60f0400010000008a
:1007d0004212040001000000641204000100000045
:1007e000440d040001000000b00d040001000000f1
:1007f00078120400010000009a12040001000000b9
:10080000480c040001000000940c040001000000ea
:10081000ae12040001000000d0120400010000002c
:10082000e40b040001000000fc0b040001000000c8
:10083000e41204000100000006130400010000009f
:10084000840b040001000000960b0400010000006e
:10085000c8c70400000000003c13040001000000b1
:100860000c0b0400010000001e0b0400010000003e
:10087000ba0a040001000000d80a040001000000c8
:1008800074e7040000000000b4e70400000000006a
:1008900088e6040000000000c8e604000000000034
:1008a0007ce5040000000000bce50400000000003e
:1008b00092e4040000000000d2e404000000000004
:1008c000aee2040000000000ece2040000000000c2
:1008d00022e104000000000060e1040000000000cc
:1008e000a2df040000000000e0df040000000000c0
:1008f0000adf04000000000014df04000000000014
:100900009a1e040001000000a61e04000100000061
:10091000b41e040001000000e01e040001000000fd
:100920000a1f040001000000221f04000100000053
:100930003a1f040001000000561f040001000000df
:10094000a81f040001000000b21f04000100000005
:10095000bc1f040001000000fe1f04000100000095
:10096000441f0400010000000040da000000fe0007
:100970000600fa00000f780011079800220798007f
:10098000ae0090001e0090005438020001000000ec
:1009900038c8bf000004e00004003200ae00900040
:1009a0001e00900050320200010000002e00900056
:1009b0000080fa00000006006900e1000400350034
:1009c0006d00e100030034000002b10001003200bc
:1009d0000000050010000500889fbe00800478001c
:1009e000702381000000e00004003a0016000700b8
:1009f0000084eb000000e00008003500782381004f
:100a00000900e00005003200090044000e00070064
:100a10000000e00001003d000084eb0008007800c9
:100a20004f04be00000006002002e20004003d006a
:100a30002342ab00020032002302ab00feff320073
:100a40000040da00feff3700800078000100e0007f
:100a500003003a00004722007023890000000500cf
:100a60000080eb0002672200828f500002003e00ef
:100a7000712389000000eb00000006004f89de00b2
:100a80008201780019023700f4ff2f002702370097
:100a90000001be00400207000470a70003f0a1009f
:100aa0006509b100160032000d0035006828e1002c
:100ab00006003500f0ff2f00f1ff27000300e000e3
:100ac00013003b000100280000000500000040006a
:100ad000818048008502e900fcff3a0008003700e9
:100ae000f88f420002003c008000eb00000005008f
:100af0008100d1000080d3008502e800fcff3a00ad
:100b00000300e00002003b0060001000e0801800dd
:100b1000000006001400200004023700889fbe0079
:100b20008a9fbe008c1f7800300207001002200050
:100b300002003b0050238900340237008a00620023
:100b40006408e10002003a00502389003c023700ab
:100b50006108e100fcff32000800be0003047800d9
:100b6000c727070001f0a100042b070008f0a6002a
:100b7000040037000001be0091042400b0fd2000f5
:100b80009e28070009f0a70001f0a2002802370004
:100b900004002000e5013700020ab900001bb9007b
:100ba0000200b800810042008100430000000600fe
:100bb000889fbe008a9fbe0030044200b0844a0075
:100bc00030054b0090854b006000b1000898be00d6
:100bd0000a90be00c100070002003100680040001a
:100be0001008e8004f05be004f04be0000000600dc
:100bf000889fbe008a9fbe003004be002005be0054
:100c00000418540005985c0006185d0007985d0004
:100c100011002000b1000700010039008000eb0046
:100c2000108810004f05be004f04be0000000600f3
:100c30001200fa00889fbe008a9fbe008c9fbe00f3
:100c4000e0b79f00f1b79f0082bf9f0093bf9f0056
:100c50000605be000404be000000eb00d0b79f00f4
:100c6000c0b79f00b0b79f00a0b79f0090b79f008c
:100c70000006eb005fb19700cfb097008201410002
:100c80003fb097000200e00004003d00980007001c
:100c90007e805700c6ff070003003700940007005e
:100ca0007e805700d2ff0700dfb697000d00e000fe
:100cb0000c0035006fb29700ffb297000fbb970092
:100cc0009fbb970010002000010020006011b800b9
:100cd000000272008182720002037300838373003a
:100ce000580007000c06e80001042000810f5600a0
:100cf000e0ff3a000d00e00004003d000802be00e5
:100d00000a03be007e805700a9ff07005fa8970076
:100d10000000e00005003a001fb29700afb2970054
:100d20003fb39700cfb39700460007006fb097001e
:100d3000ffb097000fb997009fb997004f06be000c
:100d40004f05be004f04be000080fa000000060000
:100d5000881f780018002000881f7800b4ff070063
:100d60008f87e9004f04780000000600801feb0029
:100d7000afff07008f87e90000000600889fbe00d4
:100d80008a9fbe003d00070007003d0040000700ad
:100d9000180020004500070008003d002b00070058
:100da0000004eb00050037000004eb003f000700e3
:100db00002003d002500070018002000e4ff0700a6
:100dc0000800e000010032003d0007004f05be00b2
:100dd0004f04be0000000600889fbe008a9fbe0030
:100de0008c1f78002500070008003d002800070040
:100df0001c0020000820e10009a8e1000ab0e10081
:100e00000bb8e10007003d00050037000006eb00cd
:100e10002600070003003d006044b8006055b8009c
:100e20000c000700d1ff07000c00e00001003200b9
:100e3000230007004f0678004f05be004f04be0098
:100e40000000060008000700000006006044b8002b
:100e50006055b8000402540085825c0006035d0002
:100e600087835d0000000600a4b79f00b5b79f0010
:100e7000c6b79f00d7b79f0000000600e00f5000e4
:100e8000e08f5800e00f5900e08f59000000060085
:100e90006044b8006055b8000000540081805c00d8
:100ea00002015d0083815d0000000600e00f52003a
:100eb000e08f5a00e00f5b00e08f5b00000006004f
:100ec0006022b8006033b8000000520081805a00f0
:100ed00002015b0083815b00000006000440e1002a
:100ee00005c8e10006d0e10007d8e10000000600d7
:100ef0004f09de0082817100b3b79f004f01de0011
:100f00008180400082807000a1b79f008fb0970061
:100f10004f09de00000040000200700090b79f0003
:100f20007fa897004f01de00818040008280700022
:100f300081b79f000d0007004f3ade00000040001f
:100f400004007000f0af9f00080007000402420098
:100f500085824a0006034b0087834b00c2ff0700cf
:100f60000802be000a03be00000006002fb2970070
:100f7000bfb297004fb39700dfb3970000000600a1
:100f8000889fbe008a9fbe008c1f78000006eb0081
:100f9000e00f5000e08f5800e00f5900e08f59003b
:100fa00007003d006044b8006055b80000005400e0
:100fb00081805c0002015d0083815d001c002000d7
:100fc000e00f5200e08f5a00e00f5b00e08f5b0003
:100fd00007003d006044b8006055b80004025400aa
:100fe00085825c0006035d0087835d000c00a20023
:100ff000160107000c00e000060032006022b80075
:101000006033b8000000520081805a0002015b008a
:1010100083815b004f0678004f05be004f04be0081
:101020000000060081037800db0007000001be001d
:101030006000b8000478a30013003a006220e100c9
:1010400015003e000d0039008301d1000281d3005c
:101050008180d3008301d1000281d3008180d3003d
:101060008301d1000281d3008180d3000538b00014
:10107000c42add00f300b2008381720007f0a700ec
:1010800003f0a00000000600f3ff2700f2ff2f008e
:101090006110b900fbff370003ff2700f7ff37009f
:1010a0008f1fd1000b0107008f87e9000000e000cf
:1010b00000000600801feb00060107008f87e90093
:1010c0000000e00000000600809feb000101070027
:1010d0008f87e9000000e000000006001400fa001d
:1010e000889fbe008a9fbe008c9fbe000004be0089
:1010f0000205be00680047000a90be000890be00ce
:101100001d0107000070a7000bf0a1000bf8a30061
:1011100020003a009e0990000e099000fe00900009
:101120006e0090009e0290003443200084825200a2
:101130004c0132000a003c00b4fc2f000428e100fe
:10114000140034008301d1000281d3008180d300d8
:101150000080d3008502e800faff3a004101370021
:10116000b40020000428e10007003c00000040001b
:101170008180480002014900838149008502e9001d
:10118000faff3a0037013700030028000200200070
:10119000010037006011b8006000b800310137006d
:1011a000889fbe00008270000402710004827100fa
:1011b0002400320036432000c50020008383cf0086
:1011c0000a0039000541b1008283cf0007003900d1
:1011d0000541b1008183cf00040039000541b10011
:1011e0008083cf00010039000541b10085c3530061
:1011f0006022b800120032000a003b0084827200b4
:10120000610260008301d1000281d3008180d3009c
:101210000080d3000603e8008743e800f7ff3a00a8
:1012200007003700000040008180480002014900ab
:10123000838149000603e9008743e900f9ff3a008a
:101240000d0107004f04be00000006001400fa0064
:10125000889fbe008a9fbe008c9fbe000004be0017
:101260000205be00680047000a90be000890be005c
:10127000c10007000070a7000bf0a1000bf8a3004d
:1012800016003a009e0290003043200080825200f7
:10129000b0fe2f000028e1000d003c00b0fc2f0044
:1012a0000028e1000d0034001e0990008e08900017
:1012b0007e0090000501b0000201d1008180d300c2
:1012c0000080d3008502e800fbff3a00e50037000c
:1012d0000100280000002000e20037006000b80094
:1012e000e00037006011b800adff3700881f7800bc
:1012f000030478000300e00007003d0060001000d8
:10130000e080180060011900e081190002003b0034
:1013100001f02d00030037000301070008f0a700cb
:1013200001f0a0004f04780000000600889fbe0076
:101330008a9fbe00841f78002c0007004f007800b1
:1013400011003300f0ff2f00838f6c0006003b007c
:10135000040565000a00a7000800370009f0a60090
:101360001000200008003700820f5400838f5c00bb
:10137000030039001000200001003e0000002000a2
:1013800009f0a7000000ea004f05be004f04be00b0
:101390000000e00000000600c70ade00f107b2000e
:1013a000f50fb20008003200e1cf42000200320027
:1013b0000170a00024000500810f700001003200c0
:1013c0000408050044000500810f700002003a0087
:1013d000140005008502e9000000400081c04800bb
:1013e000fcff3b000170a000240005000004be00cb
:1013f000e9ff07000003be000405be000200be00b6
:10140000e5ff0700844f7500000006000200be00e3
:101410006450e100050036006420e100020036005f
:101420000968a30001003a000800be000160a000a6
:101430004f0678004f05be004f04be0000000600b6
:10144000f0ff2f00f1ff2700f9ff3700889fbe0053
:101450008a9fbe008c9fbe000404b8000506b80039
:101460008904460060854e000606b8000a0546005d
:10147000e0854e000706b8008b054600040eb80054
:10148000890446000a854e00e0854d00050eb8002f
:101490000a0546008b854e00060eb8008b054600f7
:1014a0000416b8000a0546008b854e000516b800e4
:1014b0008b054600041eb8008b0546000800be00e0
:1014c0000a01be004f06be004f05be004f04be001d
:1014d00000000600889fbe008a9fbe008c9fbe0051
:1014e0000404be000605be00809fbe00829fbe00b1
:1014f000bc000700040678000800be000a01be0018
:10150000b8000700840678004f03be004f02be00fb
:101510008d4f76007fb0970013003300f0ff2f004f
:101520008b8f6b0006003b000d0666000c00a700c9
:101530000a00370007f0a600100020000a0037005c
:10154000880f5200898f5a008a0f5b008b8f5b00d7
:10155000030039001000200001003e0000002000c0
:1015600007f0a7000000ea004f06be004f05be00ce
:101570004f04be0000000600800078005002be004c
:101580005003be004439de00f700b200f37f2000b4
:1015900003016100090032000218e10016003a0060
:1015a00085017200830173008381730000082000ad
:1015b00015003a004000200013003700850172003a
:1015c000830173008381730005003a0004a8be0004
:1015d00006a8be00100020000b0037000201e90041
:1015e0000402420085824a0006034b0087834b00b9
:1015f0000748a300f9ff32000740a00004a8be007e
:1016000006a8be00200020008000980092009800ec
:1016100000000600680447000294be000094be006b
:10162000fc0447008694be008494be000900780044
:10163000d1ff070008007800cfff0700990078006d
:10164000814f70000b003b000800be0077000700d0
:101650004f00b10003003700f3ff2700f2ff2f0017
:101660006110b9004f06be004f05be004f04be001a
:101670000080fa000000060018002000570020003b
:10168000080453000d003d000600200097fc2f00c9
:101690000740e1001e003400848272006102600095
:1016a0008301d1000281d3008180d3000080d30068
:1016b0000804e800f8ff3a004700200061046000d9
:1016c00005047400040464000d0032006100400051
:1016d000e080480060014900e081490003b8a500ae
:1016e000070032000603e8006538e10004003a0014
:1016f0008301d1000281d3008180d3000080d30018
:10170000f87f20000830e10003003500080378006e
:101710006000b8006011b8004433dd00f300b2008f
:101720008301730000000600889fbe008a9fbe00f0
:1017300000827000040271000482710026003200f1
:101740000004be000200be006011b8006b0920005a
:10175000950220000182cf000a0039000541b10046
:101760000082cf00070039000541b1000982cf0097
:10177000040039000541b1000882cf0001003900a2
:101780000541b10005425200120032000a003b0040
:1017900082817100610164008100d1000080d3006a
:1017a0008984d3000884d3008b05e8000442e80054
:1017b000f7ff3a00070037000804440089844c0012
:1017c00000004800818048008b05e9000442e900e0
:1017d000f9ff3a00230007004f05be004f04be008a
:1017e0000000060005ff27000582610007003200a7
:1017f0000428e10001003200240005000600070073
:1018000001003a004400050004080500020007003a
:10181000f9ff3a00140005006f8261008102700038
:10182000850271008502720000000600e48240001b
:101830001078a30007003200640240001178a30072
:101840003400be001401be00040032000330a700c3
:10185000000006003500be001501be000330a000e8
:101860000000060081002000618055000b003d0053
:101870000b00200061fe2f000100e1001d0034007c
:1018800082817100610164008904d1000884d30061
:101890000000e800faff3a007100200061006400d7
:1018a000030070000200600009003200610444007f
:1018b000e0844c000988a500050032008b05e80093
:1018c0006808e10002003a008904d1000884d300ce
:1018d000f20f20000258e10005003d00c75ddd0069
:1018e000f907b20089807500080078000000060042
:1018f0000bf827008b0078000000050080007800be
:101900003104e000feff3a000080ea000080400061
:1019100000000600889fbe0001047800b800900017
:101920008084eb000118a3003a00320018019000f7
:101930000198a30002003a000200e00035003a00de
:101940000190a0003104980080047800f90fb200e3
:101950000200e00002003a0028009000000c78002d
:10196000ea8f540005003a000178a30003003a0012
:1019700088007800d0002000e6ff070018009000e3
:10198000d8009000810f50000b0032000000e800ea
:10199000100498001800780009487800000ce8004e
:1019a00011c0b3002046220001487800ea8f54009d
:1019b00018003a00050037008800780009407800d8
:1019c000c50207008004780012003700380090003c
:1019d0000088a3000f00320018019000a8009000ba
:1019e00048009000e2fb070098009000810f500033
:1019f00004003200380090000003b3003004980067
:101a00008084eb000000eb00100498002800900098
:101a1000000c7800090078004f04be0000000600aa
:101a2000b041780031c1510002003a000304e000e7
:101a3000fbff3a000200fb000000060000017800f6
:101a4000b1417800035978000304e000fcff3a003c
:101a5000000006000000fa0068815700cfb8970028
:101a6000007e2400e40207000080fa000000060067
:101a70000a003700b04178000304e00003003200a0
:101a80000201e900b1cf5100040032008381fb0064
:101a90001480fb0000805100000006000102780065
:101aa0000200e000f3ff3a0000000500800178002a
:101ab000060037000201e900b1427800855978003c
:101ac000030278000504e0000600320003027800fb
:101ad0000200e000f7ff3a0002003700005aeb0076
:101ae0000201e9000200e000fcff3a0000000600ed
:101af0000001780082017800030178003204e000e0
:101b0000fcff3a0031417800825978000204e0007d
:101b1000fcff3a0000000600800178000200370058
:101b2000b15978000201e9000200e000fcff3a0030
:101b300000000600889fbe000004be0005003700bc
:101b40000000fb008900780072ff0700e10f4000f1
:101b500004003200384078000004e000f8ff3a004a
:101b60000000eb004f04be0000000600881f780054
:101b7000017e2400efff070000047800017e2400ae
:101b8000a000200063ff0700080078004f047800e1
:101b9000000006000000fa0068815700cfb89700e7
:101ba000007e2400f70507000080fa000000060010
:101bb00080017800808f50000900310002824000cf
:101bc000800f520006003600840178008200400039
:101bd000c36078000201e900fdff3a000000060042
:101be0000200e00003003200b15978000201e90070
:101bf000fbff3700000006000001e9000080eb0059
:101c0000e50f510004003e0002014100e3442200c0
:101c10006300790081317900000006008000e9004e
:101c2000e58f50000f003e0081804000e24422001a
:101c3000e28078000100e00002003a00100020007d
:101c40002a090700e18f4000080032000001eb0084
:101c5000e18f500006003200010001000001eb009e
:101c6000030037000081eb0001003700010178001c
:101c7000020078000000060010002000e7ff0700c7
:101c800010002000190907000000fa0068815700c1
:101c9000cfb89700007e2400e00907000080fa001a
:101ca000000006000000fa0068815700cfb89700d6
:101cb000007e2400a10f07000080fa00000006004b
:101cc00080007800010078003041780003c2b30042
:101cd000834f5100faff3200e94f5100f8ff320004
:101ce000edc14100834f510003003a0080007800ad
:101cf00013c0b300050037008041eb00b4c2b3004d
:101d0000844f510001003a00800078000000eb0091
:101d1000020037006a02b900040041003101fb00f3
:101d20000203b100e90f5100faff36000304e0009e
:101d3000010032000000ea0000000600889fbe009b
:101d40008a9fbe008c9fbe008e1f7800010678001f
:101d50000c00e00001003200000e780080047800e2
:101d6000090578008a047800b905fb000b007800ab
:101d700011fb07000000e000f9ff3a00d00220004c
:101d8000808f550003003a000905780018c0b300a1
:101d9000050037000044eb00b0022000808f5500a2
:101da00001003a00090578006000b8008004eb00eb
:101db0000007eb00010037000a05e8000a0178007f
:101dc0000848a30005003a00e3c2b3009acf11000f
:101dd00002003a000844a000f7ff37009a45780057
:101de0008b01fb000303b100e98f510016003e0098
:101df0000814a0000801fb00e98f54000e00320017
:101e00000248a300010032000e07e9008904e8003f
:101e1000a2002000030020005ffb070002cdb300fa
:101e200002c145000281fb008001eb00000041007f
:101e300081804900e0ff37000248a300deff3a003e
:101e40000e07e800dcff370053c6b30083cf550010
:101e5000040032008004eb0053c4b30083cf55006c
:101e60002d003a005a417800d3c2b300834f51008d
:101e700002003a000834a00003003700b3c2b300e8
:101e8000834f510001003a000a05e8000a0178007a
:101e9000020578003a42780003c3b300834f520032
:101ea000faff32008402fb000503b1008004eb005e
:101eb000e98f520015003e00834452008984fb00e4
:101ec0000a017800124278008402fb000503b10089
:101ed000e98f52000d003e006a4bb9008344520066
:101ee0008984fb0086844400524278008402fb000f
:101ef0000503b100e98f520004003e006a4bb900af
:101f0000834452008984fb00868444000838a3007f
:101f1000010032008904ea000c00e00003003200f6
:101f20000818a30001003200020e7800d3fa07005f
:101f30000005be000006be006011b800f5fa0700fb
:101f4000000178006000b8000200e0005800320094
:101f50008e84440032f82f00828f540003003d002d
:101f6000220220005223890051003700000820007f
:101f7000808f540007003400200220005023890085
:101f80000808a300450032000000200001f82f00df
:101f9000470037000900e0001b003d008904ea000b
:101fa00006003700922f2000530125000a00be00d2
:101fb000b32207000005be00ea845400e98f5400f4
:101fc000f8ff3c0006003700020020000312240046
:101fd0000a00be00aa2207000005be008904e9002d
:101fe0000900e000f8ff3a000a06be0002002000e7
:101ff000030820000a00be00c6fa07000000e00047
:1020000021003d001b0037000900e00007003a00f6
:102010001d003700922f2000530125000a00be004a
:10202000642407000005be00ea845400e9cf540090
:10203000f8ff3e00060037000200200003122400d3
:102040000a00be005b2407000005be008904e90009
:102050000900e000f8ff3a000a06be00f2ff2f0078
:10206000f3f727000a00be0087fa07000000e0002f
:10207000050034000808a3000b0032000000200017
:10208000010828000a0037000808a30001003200f8
:102090000df0a2000c00be0005003700000020007b
:1020a00001f827000200370000002000010820008e
:1020b0004f0778004f06be004f05be004f04be001c
:1020c000000006001dff37008000eb001bff3700fb
:1020d0000000fa0068815700cfb89700007e240006
:1020e000061207000080fa0000000600889fbe006c
:1020f0000004be000800e00003003a00482381000d
:102100000800e000130032000800be00a41b070016
:10211000000444001804e00004003a000000eb0052
:10212000402389000004eb000a0037000800be00cd
:10213000ae1b070000004400402389001004e000ab
:10214000020032000058eb00010037000000eb00f5
:1021500040238900080078004f04be0000000600fc
:10216000017e2400ebfd37000000fa006881570073
:10217000cfb89700007e2400771c07000080fa008b
:1021800000000600889fbe008a9fbe008c9fbe0094
:10219000e1432200f22181000200e0000b003a003e
:1021a00064814000f221890042228900a100980048
:1021b00031228900214190000204a000a240980031
:1021c000614190000204a000e240980067044000d2
:1021d0004244de004244dd003422810001472200f7
:1021e00009672200818454002d002000110009009d
:1021f0008d04d800800678000886e8000c064600aa
:102200008001eb0002003700130020000b02780071
:10221000a44090000108a300020032000a00370029
:10222000120a780014017800a24090000108a3006f
:10223000fbff320088004200810f5100020039008c
:102240000800e00042003d00940578000b00a1006a
:10225000848f5500edff3e00e18f5100eaff3a0008
:102260008d0f540002003600890f5400140039000d
:102270006141b8006148b900b4ff2f00050020009b
:102280000000520081805a00800f5100818f590058
:1022900002003500640544000a00370000472200b0
:1022a0003a672200000555000805450011000900a5
:1022b0000985d8000980b9000005780001003700c1
:1022c0000c0578000a007800c3f90700e10f400010
:1022d00005003a00640544000a007800bef90700d2
:1022e000e10f40002b00320041228100800878007d
:1022f00041228100e481400021419000830f500081
:10230000020032000204a000010037000204a10014
:10231000a2409800640555000a0540000a087800ac
:102320004a228900e1432200010d78004222810007
:10233000a24090000104a00021419800a04090001c
:102340000104a100214098008001eb00afff37009d
:1023500031228900810f5100070036001101be00b3
:102360005222890063228900940878000041eb0022
:1023700031228100a240980033228100030a7800b4
:10238000a44090000104a000214298006400420093
:10239000010037000000eb004f06be004f05be00f5
:1023a0004f04be00000006000000e00008003200fc
:1023b0006400500031228100810f50000100310083
:1023c00030228900a04090000104a1002140980023
:1023d00000000600889fbe008a9fbe000004be0069
:1023e0000900e00007003a000000eb000800e000f0
:1023f0003600320008007800ebff07000000eb0019
:10240000320037000800e00003003a0009007800bd
:102410005cff07002d003700640054009005780031
:1024200068f897000008a300020032000800780056
:10243000ddff07000900780052ff070080047800e4
:102440000000eb000900e00020003200888f5400fb
:102450001b00320069bd97000905550042d5de001a
:1024600088855500c2ddde000a0178008b0f55001b
:10247000010036000b0178004211dd008800780071
:1024800009007800a4fd0700888f54000e00310079
:102490004255dd000a854400880f55000a003600c9
:1024a0000804550042c4de004244dd0008844400b4
:1024b0005022810061228100008cbe0002003700a2
:1024c0000800780001003700090078004f05be00c1
:1024d0004f04be00000006000200fa00889fbe0004
:1024e000a0ff9f0001047800380090000068a3005e
:1024f00033003a00e200600005003a000003b30038
:1025000030049800110498000080eb002e00370082
:10251000d80490000900e00006003a0012002000f4
:10252000e68057004800900011f907001904980050
:1025300023003700a80090000100e00008003a00e6
:102540005146220021049800010c7800210020004f
:1025500051049800110498000030a0003004980045
:1025600018019000a80090004800900000f90700b2
:10257000280090008080eb0011049800aff89700cd
:1025800001487800000ce8002ff89700ea4f50004f
:102590000b003a00380090000088a30008003200c9
:1025a00018019000a800900048009000f0f8070083
:1025b0000000eb0010049800a8009000010c7800c7
:1025c000aff897000100fb004f04be000080fa0046
:1025d00000000600d0019000028151004240a90095
:1025e0000300340010017800014978000208e80077
:1025f00001007800000006002f02b000889fbe0096
:102600008a9fbe008c9fbe008e1f780080067800d7
:10261000d1af9f0092b79f000007eb004403370043
:10262000dfa897008100e800d1af9f0051c2b3003e
:10263000814f500003003a005fa897000006eb00ae
:1026400011003700bd0090000000fb000168a300ee
:10265000070032000e017800800078000d0078003d
:10266000dcff07000000e00005003a0030033700ff
:102670008d007800a7fc0700e10f40002c0332001a
:102680000e07e8002a033700800078003041780008
:10269000d3c2b300834f51000c00320007003c004e
:1026a000edc15100834f51000a003200ebc14100df
:1026b000834f51000d003a000800370003c3b300f8
:1026c000834f510009003a00060037000c30a0008b
:1026d000edff37000c00a000ebff37000c10a0004e
:1026e000e9ff37000c20a000e7ff37000c18a3001b
:1026f000010032000c00a1000c38a30001003200e0
:102700000c20a1000200fb000003b100e90f500003
:102710000c003e00010178000000eb006a00b900e7
:10272000b201fb000303b100008041008200780089
:102730009201fb000303b100e98f5100f7ff36005f
:10274000080037000000eb00a3c2b300834f510024
:1027500004003a001fb197004200780092b79f0032
:102760008100e8008001eb00a3b79f00e2c2b30044
:10277000914f11000c003a000ce0a00064415100a0
:10278000d14f1100030032000101780003027800ec
:10279000090037001fb29700c402780094b79f0069
:1027a000a5b79f008100e80001017800090037000b
:1027b0006a22b9000482410082007800b201fb0065
:1027c0000303b100e98f5100f9ff3600a4b79f0061
:1027d000f5ff3700b2407800d2af9f00c3c6b30008
:1027e00083cf5000250032000f003c0032c6b300fa
:1027f00082cf5000a000320004003c000104e00041
:10280000d00232006b4151000f00370042c6b300c6
:1028100082cf5000170032006541410082cf500046
:10282000b3003a001300370032c7b30082cf500024
:102830001f00320007003c006441510082cf50006d
:10284000140032000241e80082cf5000a8003a0094
:102850001300370052c7b30082cf5000ab003200e4
:102860006341410082cf5000a1003a00a1d79f00f0
:102870000d003700a1d79f00a600370001012000fe
:102880000c48a30001003200010028000c867000f3
:10289000d0ff3700a1d79f000c60a0009d0037003b
:1028a000a1d79f000c50a0000c70a0009900370029
:1028b000a1d79f009fb39700c700780097b79f00ec
:1028c000b1b79f000100e00002003a00c9de21001c
:1028d000b9b79f003fb197008000eb0001003700bf
:1028e0008100e800e2c178000304e000fcff3a0048
:1028f000c1b79f002fb597000a00e0000500320025
:10290000cfb597008b0f5500020031008a00780088
:10291000c1b79f00cfb097000004eb00810f5000bb
:102920000100360001045000680666002b003a00e2
:10293000110037003d0090000068a300070032003e
:102940000e017800010220000d00780021ff070031
:102950000000e00006003a00060037008d00780015
:1029600000022000ebfb0700e10f400001003200f5
:102970000e07e8000804e9000800e000edff3a0057
:102980000084eb00150037003d0090000068a300b4
:102990000900320008007800b000fb000004780055
:1029a0000e0178000d0078000aff07000000e0002b
:1029b00008003a000f003700880078003100fb0063
:1029c000010478008d007800d2fb0700e10f400081
:1029d000080032000e07e80006003700acb79f0081
:1029e000080678003fb49700cfb497005fb5970012
:1029f000efb59700090078008004e9000000e000ce
:102a0000e1ff3a00b8b79f00c9b79f00dab79f004f
:102a1000ebb79f000c0478002fb697000c00e00085
:102a200043023200110037003d0090000068a3000f
:102a3000070032000e017800010220000d0078002e
:102a4000e4fe07000000e00006003a000600370040
:102a50008d00780000022000aefb0700e10f40006f
:102a6000010032000e07e8000804e9000800e00059
:102a7000edff3a002e0237009fb297004504780020
:102a800095b79f00cfc4de00614db9000802be00bb
:102a90000a03be004822de00c828dd000482700060
:102aa000a4d79f000c48a300090032000404e000f2
:102ab00007003200e14f420005003200b4d79f000a
:102ac000c8d79f0022002000c2b79f000300370034
:102ad000b8d79f0013002000c3b79f0024fd2f002c
:102ae0000f0242000402e800b4b79f0081ff3700e4
:102af000a1d79f0025fd2f0085824700b5b79f0015
:102b000016002000c6b79f007aff3700a1d79f00ac
:102b10000c0cb3008c007800010cb20032003a00bb
:102b20000c00e00005003d009fb097004105be008d
:102b30004104be0091b79f00080037000c48a30075
:102b40000b0032001fb297004401be0094b79f00f3
:102b50000204be004fcdde008a057800b8b79f00a2
:102b6000c9b79f00dab79f00ebb79f000900370095
:102b70009fb49700c900780099b79f00610ab90017
:102b8000612bb900b4b79f00c5b79f00d6b79f00af
:102b9000e7b79f003fb49700cfb497005fb59700a9
:102ba000efb59700e00f5400e08f5c00e00f5d0090
:102bb000e08f5d0022003d003c00b3006022b800c1
:102bc0006033b8000804520089845a000a055b008b
:102bd0008b855b00b8b79f00c9b79f00dab79f002d
:102be000ebb79f00160037000c00e00004003d002a
:102bf0001fb497004803be004802be00050037001e
:102c00000c48a300050032001fb497004802be0024
:102c10006033b80098b79f00050037009fb4970055
:102c2000c900780099b79f00610ab8006033b80006
:102c3000b4b79f00c5b79f00d6b79f00e7b79f0006
:102c4000afb297000500e0000d003a00160020002a
:102c5000a6b79f003fb49700cfb497005fb5970029
:102c6000efb59700e00f5400e08f5c00e00f5d00cf
:102c7000e08f5d00020032008004eb00a9b79f00e6
:102c80000c0578000a0cb2008ab79f0001042000ee
:102c9000810f55003400320003003c000a00e000c0
:102ca0000800320048003700010820008fb5970067
:102cb000818f550014003200010c2000818f5500d7
:102cc00041003a00c2df210011c0b3003202be0051
:102cd0003203be003fb49700cfb497005fb59700b2
:102ce000efb597000440e10005c8e10006d0e1001f
:102cf00007d8e100330039008140e800f4cf5000ec
:102d0000f2ff3a002f00370011c0b3000401200089
:102d1000050020006033b8003fb49700cfb497009f
:102d20005fb59700efb597000440e10005c8e100ea
:102d300006d0e10007d8e100220039004900200058
:102d40000402d0008582d2000683d2008783d2009d
:102d50008904e900faff3a008140e800f0cf500012
:102d6000edff3a001700370011c0b30084002000c7
:102d7000050020006033b8003fb49700cfb497003f
:102d80005fb59700efb597000440e10005c8e1008a
:102d900006d0e10007d8e1000a0039003900200020
:102da0000402d0008582d2000683d2008783d2003d
:102db0008904e900faff3a008140e800f5cf5000ad
:102dc000edff3a00a1d79f002fd597008a00fb00a6
:102dd000afb597008b8f500002003d00abd79f002e
:102de000040037002fb19700810f510001003d0012
:102df000a1b79f000000e00003003200e30066007e
:102e0000010032000000e9000ce8a30006003200d7
:102e1000afb19700830f5000020034000300500050
:102e2000010037000000eb002fd297008400fb0068
:102e30008002eb00f5af9f00810f500002003400cc
:102e400081005000f1af9f000c28a3003c0032002d
:102e5000610166000c18a3000f0032003d009000d5
:102e60000068a30006003200b10220000200e0006a
:102e7000010032008180e8000e0178000d0037006b
:102e8000b00220000200e000010032000080e800f3
:102e90008d0078000e0037000200e00010003200c4
:102ea0003d0090000068a300070032000e0178008a
:102eb000010220000d007800c6fd07000000e000c0
:102ec00006003a00060037008d007800000220005e
:102ed00090fa0700e10f4000010032000e07e80001
:102ee0007fab97000600e000520032000604780035
:102ef0003d0090000068a300070032000e0178003a
:102f0000010320000d007800b2fd07000000e00082
:102f100006003a00060037008d007800000320000c
:102f20007cfa0700e10f4000010032000e07e800c4
:102f30000804e900eeff3a00f8af9f003d003700bb
:102f4000ffab97000700e000160032000c38a3002a
:102f500014003a00070478003d0090000068a300c8
:102f6000070032000e017800010220000d007800f9
:102f700098fd07000000e00006003a000600370058
:102f80008d0078000002200062fa0700e10f400087
:102f9000010032000e07e8000804e900eeff3a00e5
:102fa000f8af9f00610166000c18a3000f0032000b
:102fb0003d0090000068a30006003200b10220002e
:102fc0000200e000010032008180e8000e0178007c
:102fd0000d003700b00220000200e00001003200c6
:102fe0000080e8008d0078000e0037000200e0004d
:102ff000100032003d0090000068a300070032007e
:103000000e017800010220000d00780071fd07001c
:103010000000e00006003a00060037008d0078004e
:10302000000220003bfa0700e10f400001003200df
:103030000e07e8002fb497000800e900c204dd0085
:10304000c9af9f006301b90002057800baaf9f00c5
:103050004300dd0041df210081004000e1af9f001f
:1030600098003700afb597008b05e900abb79f001c
:10307000000420008fb09700808f5000680032005d
:1030800003003c000100e00008003200730037003c
:10309000000820000fb19700800f51004c00320053
:1030a000000c2000800f51006c003a000c00e00082
:1030b0001e003d00efa997003304be002305be00ab
:1030c0000802be000a03be003fb09700cfb09700d1
:1030d0005fb19700efb197001df70700a0d79f00e1
:1030e0000000fb00cf80de006109b9000802be00cd
:1030f0000a03be00a2f707003fb29700cfb29700c5
:103100005fb39700efb397000002520081825a002c
:1031100002035b0083835b00b4b79f00c5b79f00c9
:10312000d6b79f00e7b79f00250037000c48a300e3
:103130001a0032003fb29700cfb297006fab9700f2
:103140003604be002605be000801be000400be0015
:10315000f4b79f0085bf9f0081220700a0d79f0082
:103160000000fb00cf80de000801be008af60700e9
:103170007fb297008fba97000002520081825a00f6
:103180000404be006055b800b8b79f00c9b79f00df
:10319000dab79f00ebb79f0009003700efac97004c
:1031a000190178003fb59700110009000285d80089
:1031b000a2002000110009000280d800a1d79f00c2
:1031c000afd597000b43b000abd79f00230037006b
:1031d000b0dd21000c58a30001003200a0dc21006a
:1031e0003fb29700cfb297005fb39700efb397005d
:1031f000cfa897008100e900050033008703d100c4
:103200000683d3008582d3000482d300f9ff370000
:103210006f02620060427a00a4d79f000f0037005f
:103220003fb09700cfb097005fb19700efb1970024
:103230003faa97000402e900050033008301d10092
:103240000281d3008180d3000080d300f9ff3700d2
:10325000674060000043b000a0d79f00bd00900011
:10326000afd297000500fb000168a3000700320001
:103270000e017800800078000d007800d5fc070072
:103280000000e00005003a00050037008d007800de
:10329000a0f90700e10f4000010032000e07e8002e
:1032a0004fab970064035300c6af9f00bfab9700be
:1032b000e3835300b7af9f006fac970068045400de
:1032c000e8af9f00afb497000900e00065ff3a0047
:1032d0000c38a300160032007fad97000a00e00012
:1032e000130034000a0478003d0090000068a30039
:1032f000070032000e017800010220000d00780066
:10330000b4fc07000000e00006003a0006003700a9
:103310008d007800000220007ef90700e10f4000d8
:10332000010032000e07e8000804e900eeff3a0051
:10333000dfad97001b407800a0d79f000004e0009d
:10334000b7fc3a000e0078004f0778004f06be0029
:103350004f05be004f04be002f02b1000000060062
:10336000d0019000028151004240a90003003400c6
:1033700010017800014978000208e8000100780097
:10338000000006002f02b000889fbe008a9fbe008a
:103390008c9fbe008e1f780080067800d1af9f0002
:1033a00092b79f000007eb0044033700dfa89700a7
:1033b0008100e800d1af9f0051c2b300814f50009f
:1033c00003003a005fa897000006eb0011003700e9
:1033d000bd0090000000fb000168a3000700320060
:1033e0000e017800800078000d007800dcff0700f7
:1033f0000000e00005003a00300337008d0078003f
:1034000044f90700e10f40002c0332000e07e800ea
:103410002a0337008000780030417800d3c2b3001f
:10342000834f51000c00320007003c00edc15100f9
:10343000834f51000a003200ebc14100834f51001d
:103440000d003a000800370003c3b300834f51005a
:1034500009003a00060037000c30a000edff3700ed
:103460000c00a000ebff37000c10a000e9ff3700b4
:103470000c20a000e7ff37000c18a3000100320069
:103480000c00a1000c38a300010032000c20a100a8
:103490000200fb000003b100e90f50000c003e00e9
:1034a000010178000000eb006a00b900b201fb00e6
:1034b0000303b10000804100820078009201fb000c
:1034c0000303b100e98f5100f7ff36000800370011
:1034d0000000eb00a3c2b300834f510004003a0088
:1034e0001fb197004200780092b79f008100e8006a
:1034f0008001eb00a3b79f00e2c2b300914f11001f
:103500000c003a000ce0a00064415100d14f1100c2
:10351000030032000101780003027800090037003f
:103520001fb29700c402780094b79f00a5b79f0010
:103530008100e80001017800090037006a22b90023
:103540000482410082007800b201fb000303b10055
:10355000e98f5100f9ff3600a4b79f00f5ff37004f
:10356000b2407800d2af9f00c3c6b30083cf5000f3
:10357000250032000f003c0032c6b30082cf50005d
:10358000a000320004003c000104e000d002320040
:103590006b4151000f00370042c6b30082cf50008c
:1035a000170032006541410082cf5000b3003a005d
:1035b0001300370032c7b30082cf50001f00320023
:1035c00007003c006441510082cf500014003200db
:1035d0000241e80082cf5000a8003a0013003700f3
:1035e00052c7b30082cf5000ab00320063414100ac
:1035f00082cf5000a1003a00a1d79f000d003700f4
:10360000a1d79f00a6003700010120000c48a300ad
:1036100001003200010028000c867000d0ff370046
:10362000a1d79f000c60a0009d003700a1d79f008c
:103630000c50a0000c70a00099003700a1d79f008b
:103640009fb39700c700780097b79f00b1b79f005e
:103650000100e00002003a0069eb2100b9b79f00c9
:103660003fb197008000eb00010037008100e800c7
:10367000e2c178000304e000fcff3a00c1b79f00fc
:103680002fb597000a00e00005003200cfb5970083
:103690008b0f5500020031008a007800c1b79f00ef
:1036a000cfb097000004eb00810f500001003600fe
:1036b00001045000680666002b003a001100370034
:1036c0003d0090000068a300070032000e01780062
:1036d000010220000d00780021ff07000000e0003b
:1036e00006003a00060037008d0078000002200036
:1036f00088f80700e10f4000010032000e07e800e3
:103700000804e9000800e000edff3a000084eb0047
:10371000150037003d0090000068a300090032004a
:1037200008007800b000fb00000478000e0178006b
:103730000d0078000aff07000000e00008003a00d2
:103740000f003700880078003100fb00010478008a
:103750008d0078006ff80700e10f4000080032008c
:103760000e07e80006003700acb79f000806780097
:103770003fb49700cfb497005fb59700efb59700bf
:10378000090078008004e9000000e000e1ff3a0051
:10379000b8b79f00c9b79f00dab79f00ebb79f008b
:1037a0000c0478002fb697000c00e00043023200b2
:1037b000110037003d0090000068a30007003200b0
:1037c0000e017800010220000d007800e4fe0700e1
:1037d0000000e00006003a00060037008d00780087
:1037e000000220004bf80700e10f4000010032000a
:1037f0000e07e8000804e9000800e000edff3a00c9
:103800002e0237009fb297004504780095b79f00bd
:10381000cfc4de00614db9000802be000a03be003d
:103820004822de00c828dd0004827000a4d79f0073
:103830000c48a300090032000404e0000700320035
:10384000e14f420005003200b4d79f00c8d79f0067
:1038500022002000c2b79f0003003700b8d79f00a6
:1038600013002000c3b79f0024fd2f000f02420069
:103870000402e800b4b79f0081ff3700a1d79f0082
:1038800025fd2f0085824700b5b79f001600200058
:10389000c6b79f007aff3700a1d79f000c0cb3007a
:1038a0008c007800010cb20032003a000c00e000fd
:1038b00005003d009fb097004105be004104be00d9
:1038c00091b79f00080037000c48a3000b0032009e
:1038d0001fb297004401be0094b79f000204be00cf
:1038e0004fcdde008a057800b8b79f00c9b79f00aa
:1038f000dab79f00ebb79f00090037009fb497002d
:10390000c900780099b79f00610ab900612bb9001e
:10391000b4b79f00c5b79f00d6b79f00e7b79f0019
:103920003fb49700cfb497005fb59700efb597000d
:10393000e00f5400e08f5c00e00f5d00e08f5d0061
:1039400022003d003c00b3006022b8006033b800a4
:103950000804520089845a000a055b008b855b00cd
:10396000b8b79f00c9b79f00dab79f00ebb79f00b9
:10397000160037000c00e00004003d001fb4970063
:103980004803be004802be00050037000c48a300f3
:10399000050032001fb497004802be006033b80033
:1039a00098b79f00050037009fb49700c9007800c2
:1039b00099b79f00610ab8006033b800b4b79f00a0
:1039c000c5b79f00d6b79f00e7b79f00afb297007b
:1039d0000500e0000d003a0016002000a6b79f0089
:1039e0003fb49700cfb497005fb59700efb597004d
:1039f000e00f5400e08f5c00e00f5d00e08f5d00a1
:103a0000020032008004eb00a9b79f000c0578008b
:103a10000a0cb2008ab79f0001042000810f5500f4
:103a20003400320003003c000a00e00008003200cd
:103a300048003700010820008fb59700818f55009e
:103a400014003200010c2000818f550041003a0023
:103a500062ec210011c0b3003202be003203be008e
:103a60003fb49700cfb497005fb59700efb59700cc
:103a70000440e10005c8e10006d0e10007d8e100fc
:103a8000330039008140e800f4cf5000f2ff3a00e3
:103a90002f00370011c0b3000401200005002000f2
:103aa0006033b8003fb49700cfb497005fb597007c
:103ab000efb597000440e10005c8e10006d0e10041
:103ac00007d8e10022003900490020000402d0009c
:103ad0008582d2000683d2008783d2008904e90060
:103ae000faff3a008140e800f0cf5000edff3a00c5
:103af0001700370011c0b30084002000050020002b
:103b00006033b8003fb49700cfb497005fb597001b
:103b1000efb597000440e10005c8e10006d0e100e0
:103b200007d8e1000a003900390020000402d00063
:103b30008582d2000683d2008783d2008904e900ff
:103b4000faff3a008140e800f5cf5000edff3a005f
:103b5000a1d79f002fd597008a00fb00afb5970033
:103b60008b8f500002003d00abd79f000400370050
:103b70002fb19700810f510001003d00a1b79f00b8
:103b80000000e00003003200e300660001003200a4
:103b90000000e9000ce8a30006003200afb1970076
:103ba000830f500002003400030050000100370072
:103bb0000000eb002fd297008400fb008002eb0096
:103bc000f5af9f00810f50000200340081005000cb
:103bd000f1af9f000c28a3003c0032006101660099
:103be0000c18a3000f0032003d0090000068a300f5
:103bf00006003200b10220000200e00001003200a5
:103c00008180e8000e0178000d003700b00220002e
:103c10000200e000010032000080e8008d00780022
:103c20000e0037000200e000100032003d0090005e
:103c30000068a300070032000e0178000102200096
:103c40000d007800c6fd07000000e00006003a0005
:103c5000060037008d007800000220002df70700d5
:103c6000e10f4000010032000e07e8007fab970033
:103c70000600e00052003200060478003d0090008b
:103c80000068a300070032000e0178000103200045
:103c90000d007800b2fd07000000e00006003a00c9
:103ca000060037008d0078000003200019f7070098
:103cb000e10f4000010032000e07e8000804e900af
:103cc000eeff3a00f8af9f003d003700ffab9700d2
:103cd0000700e000160032000c38a30014003a0080
:103ce000070478003d0090000068a3000700320040
:103cf0000e017800010220000d00780098fd0700f9
:103d00000000e00006003a00060037008d00780051
:103d100000022000fff60700e10f40000100320022
:103d20000e07e8000804e900eeff3a00f8af9f0034
:103d3000610166000c18a3000f0032003d009000e6
:103d40000068a30006003200b10220000200e0007b
:103d5000010032008180e8000e0178000d0037007c
:103d6000b00220000200e000010032000080e80004
:103d70008d0078000e0037000200e00010003200d5
:103d80003d0090000068a300070032000e0178009b
:103d9000010220000d00780071fd07000000e00026
:103da00006003a00060037008d007800000220006f
:103db000d8f60700e10f4000010032000e07e800ce
:103dc0002fb497000800e900c204dd00c9af9f00ce
:103dd0006301b90002057800baaf9f004300dd001f
:103de000e1eb210081004000e1af9f009800370027
:103df000afb597008b05e900abb79f00000420002a
:103e00008fb09700808f50006800320003003c00a4
:103e10000100e000080032007300370000082000b5
:103e20000fb19700800f51004c003200000c2000b1
:103e3000800f51006c003a000c00e0001e003d00b5
:103e4000efa997003304be002305be000802be00a0
:103e50000a03be003fb09700cfb097005fb1970054
:103e6000efb19700baf30700a0d79f000000fb0056
:103e7000cf80de006109b9000802be000a03be005f
:103e80003ff407003fb29700cfb297005fb39700af
:103e9000efb397000002520081825a0002035b00d8
:103ea00083835b00b4b79f00c5b79f00d6b79f0060
:103eb000e7b79f00250037000c48a3001a00320026
:103ec0003fb29700cfb297006fab97003604be00a9
:103ed0002605be000801be000400be00f4b79f0026
:103ee00085bf9f001e1f0700a0d79f000000fb009a
:103ef000cf80de000801be0027f307007fb29700e5
:103f00008fba97000002520081825a000404be005a
:103f10006055b800b8b79f00c9b79f00dab79f00d7
:103f2000ebb79f0009003700efac9700190178004c
:103f30003fb59700110009000285d800a2002000bb
:103f4000110009000280d800a1d79f00afd59700cb
:103f50000b43b000abd79f002300370050ea21008d
:103f60000c58a3000100320040e921003fb2970045
:103f7000cfb297005fb39700efb39700cfa8970039
:103f80008100e900050033008703d1000683d300d8
:103f90008582d3000482d300f9ff37006f026200ec
:103fa00060427a00a4d79f000f0037003fb097000f
:103fb000cfb097005fb19700efb197003faa97008d
:103fc0000402e900050033008301d1000281d3001f
:103fd0008180d3000080d300f9ff37006740600084
:103fe0000043b000a0d79f00bd009000afd2970063
:103ff0000500fb000168a300070032000e017800f5
:10400000800078000d007800d5fc07000000e0007b
:1040100005003a00050037008d0078003df60700e6
:10402000e10f4000010032000e07e8004fab97009f
:1040300064035300c6af9f00bfab9700e3835300f8
:10404000b7af9f006fac970068045400e8af9f00c3
:10405000afb497000900e00065ff3a000c38a300f8
:10406000160032007fad97000a00e0001300340014
:104070000a0478003d0090000068a30007003200a9
:104080000e017800010220000d007800b4fc07004a
:104090000000e00006003a00060037008d007800be
:1040a000000220001bf60700e10f40000100320073
:1040b0000e07e8000804e900eeff3a00dfad9700c4
:1040c0001b407800a0d79f000004e000b7fc3a0036
:1040d0000e0078004f0778004f06be004f05be0067
:1040e0004f04be002f02b10000000600000478005b
:1040f000581a0700080078004bf207000800fa0081
:10410000889fbe008a9fbe000084fb00d1c6b3001a
:10411000814f5000340036004b062000110009008a
:104120000b84d80081057800720040004300dd0058
:1041300009c52100008044006022b800060020006c
:1041400007fe23005001be004000be00f11e070024
:104150000002be000203be0084bf9f0095bf9f0007
:10416000a6bf9f00b7bf9f00aa0020001100090052
:104170008a85d80080057800e9854500c35ddd00ab
:104180008b8544003b02be002b03be000fb8970096
:104190009fb897002fb99700bfb99700dd1e0700a1
:1041a0000002be000203be0084bf9f0095bf9f00b7
:1041b000a6bf9f00b7bf9f00110009000a84d80066
:1041c000010478004344dd00888444003902be00c5
:1041d0002903be000fb897009fb897002fb997002a
:1041e000bfb997001d003700ea4f5000130036009a
:1041f000aa002000110009000a84d80001057800f7
:10420000690440004344dd0009c5210008844400de
:104210006022b8000600200007fe23003800be0020
:104220002801be00bb1e07004355dd008a84440000
:104230003902be002903be00080037004344dd00f8
:1042400000c52100080440006022b80006002000dc
:1042500007fe23003800be002801be00ad1e070087
:104260004f05be004f04be000080fa0000000600ab
:104270000800fa00889fbe008a9fbe00d1c6b30026
:104280000004e00023003d000040ea000004fb00c1
:10429000814f50000a00340042062000110009003e
:1042a0000204d800a9002000110009008900d800ec
:1042b000e9004000c308dd000ac5210021003700e5
:1042c000ea4f500010003400a20020001100090045
:1042d0000204d80001017800690040004300dd00bd
:1042e00001c52100008040004311dd0082804000b4
:1042f0003102be002103be005001be004000be00de
:10430000841e0700380037004344dd0000c521004b
:10431000320037000004fb00814f500023003400be
:1043200042062000110009000204d800a900200064
:10433000110009008900d800e9004000c308dd0031
:104340000aba2100810045003102be002103be00ef
:104350008b0920008a8545003b00be002b01be0072
:104360006c1e07000002be000203be0084bf9f0057
:1043700095bf9f00a6bf9f00b7bf9f001100090017
:104380000904d800010478004344dd000805450015
:104390003a02be002a03be000fb897009fb89700ec
:1043a0002fb99700bfb99700d5ff3700ea4f5000eb
:1043b00008003400a2002000110009000204d80007
:1043c00001017800690040004300dd0001ba2100ce
:1043d000c4ff37004344dd0000ba21000804400058
:1043e0003800be002801be004f05be004f04be00cd
:1043f0000080fa0000000600d00190000281510008
:104400004240a900030034001001780001497800ff
:104410000208e80001007800000006002f04b00048
:10442000889fbe008a9fbe008c9fbe008e1f7800b2
:1044300000067800e19f9f0082af9f006000b800f7
:104440006011b80080a79f0091a79f00a2a79f00be
:10445000b3a79f008006eb00a3053700ef989700f5
:104460008100e800e19f9f0051c2b300814f5000de
:1044700003003a006f9997000007eb001100370026
:10448000bc0090000000fb000168a30007003200a0
:104490000d017800800078000c007800d6ff07003e
:1044a0000000e00005003a008f0537008c0078001e
:1044b00018f50700e10f40008b0532008d06e8007b
:1044c0008905370002007800b2407800d3c2b300fb
:1044d00083cf50000c00320007003c00edc15100ba
:1044e00083cf50000a003200ebc1410083cf50005f
:1044f0000d003a000800370003c3b30083cf50001b
:1045000009003a00060037000e30a000edff37002a
:104510000e00a000ebff37000e10a000e9ff3700ef
:104520000e20a000e7ff37000e18a30001003200a4
:104530000e00a1000e38a300010032000e20a100e1
:104540000101fb000203b100e90f51000e003e0023
:10455000800078000001eb0092b79f006a11b9005b
:104560003100fb000003b1000201400001007800af
:104570009101fb000303b100e98f5100f7ff360002
:1045800092b79f000a0037008001eb0093b79f00ad
:10459000a2c2b30082cf500005003a000faa9700d4
:1045a000c402780084af9f0095b79f000000e80028
:1045b000e1c2b30090cf100017003a000ee0a00057
:1045c000e4c05000d0cf100003003200800078001b
:1045d0008001eb00090037008fab9700c70078001f
:1045e00087af9f00d1af9f000000e8000001780076
:1045f0000d0037006a1ab9008401410001007800fb
:104600003101fb000203b100e90f5100f9ff360050
:10461000d3af9f00f5ff37000ec0a0000001eb00f4
:10462000d2af9f00f1ff370082017800334078005d
:1046300003017800c1c6b300814f50002b00320047
:10464000e39f9f0014003c00e8c05000814f5000e1
:104650002400320009003c00ecc05000814f5000a3
:104660002e003200ebc04000814f50009800320015
:104670000004e00021053200b400370061c6b30039
:10468000814f50001f003200e3c04000814f5000b6
:10469000ae003a001300370031c7b300814f50001d
:1046a0002200320007003c00e4c05000814f50005f
:1046b000170032008140e800814f5000a3003a000b
:1046c0001600370051c7b300814f5000a4003200dc
:1046d000e3c04000814f50009c003a00a0779f004b
:1046e00010003700a0779f009f00370000012000d6
:1046f0000e48a30001003200000028000e077000e1
:10470000c9ff3700a0779f000ea0a00096003700d9
:10471000a0779f000e60a00093003700a0779f0055
:104720000e50a0000e70a0008f003700a0779f00f1
:104730008fa997004300780083af9f0000047800a2
:104740000000e00001003a0008f82100880078002d
:104750000000eb00010037000000e8006141780034
:104760000204e000fcff3a00800478005faa970092
:104770000400e00003003200890f52000100310004
:10478000840478008001eb009fb29700898f52006b
:10479000010036008981520068036700d6af9f0090
:1047a0002c003a0003077800110037003c0090000d
:1047b0000068a300070032000d017800010220000c
:1047c0000c0078000cff07000000e00006003a0033
:1047d000060037008c007800000220004df407002e
:1047e000e10f4000010032008d06e8000e07e900ed
:1047f0000e00e000edff3a008081eb00150037006d
:104800003c0090000068a300090032000800780016
:10481000b000fb00000478000d0178000c00780067
:10482000f5fe07000000e00008003a000a0037002b
:10483000880078003100fb00010478008c007800cb
:1048400034f40700e10f4000030032008d06e80059
:104850000100370003077800090078008004e900b0
:104860000000e000e6ff3a008e017800dfab970021
:104870000700e0009c0432000307780011003700b5
:104880003c0090000068a300070032000d01780092
:10489000010220000c007800d7fe07000000e000b5
:1048a00006003a00060037008c0078000002200065
:1048b00018f40700e10f4000010032008d06e80007
:1048c0000e07e9000e00e000edff3a008604370015
:1048d0008fa897004100780081af9f006102b90066
:1048e000612bb90094af9f00a5af9f00b6af9f00aa
:1048f000c7af9f004822de004828dd000402700098
:10490000a4779f000e48a300090032000404e000d1
:1049100007003200e14f420005003200b4779f00eb
:10492000afd09700c1779f00290020000300370017
:104930002fd19700b2779f001900200023fb2f0092
:104940008f8141000304e80088ff3700a0779f00b3
:1049500028fb2f000f0444001900200083ff3700bc
:10496000a0779f000e0cb3000070200000006700cd
:10497000640232000ec8a30002003200640020006e
:10498000d4af9f000e48a300090032000faa970081
:104990004401be004400be0084af9f0090af9f0062
:1049a000a1af9f00b2af9f00c3af9f000a003700c6
:1049b0008faa97004500be0085af9f0099f10700c0
:1049c0000002be000203be0094af9f00a5af9f008f
:1049d000b6af9f00c7af9f006022b8006033b80039
:1049e0001fa89700afa897003fa99700cfa99700ed
:1049f000abf107000000e0000a003d001fa897008f
:104a0000afa897003fa99700cfa9970003f0a20095
:104a100090af9f00a1af9f00b2af9f00c3af9f00b8
:104a20003e00b3000000eb00b09f9f006022b80082
:104a30006033b8001fa89700afa897003fa9970060
:104a4000cfa997009bf107000000e000340032007e
:104a500064fb2f000f0242001fa89700afa8970029
:104a60003fa99700cfa99700371d07003f989700ef
:104a70000000e9006302b900a20020001100090053
:104a80000202d800b09f9f000000e00002003d003d
:104a90000000e900b09f9f003f9c97000840ea009b
:104aa000f3fd07001faa9700afaa97003fab97003e
:104ab000cfab9700971c07000002be000203be00a8
:104ac00084a79f0095a79f00a6a79f00b7a79f0058
:104ad0006022b8000600200007ff230070f10700e5
:104ae0000000e00002003d000804e9000b00370070
:104af0006022b80006002000470224000fa09700a3
:104b00009fa097002fa19700bfa197006ef107000b
:104b10000000e000020035000804e800b89f9f0094
:104b2000dfaa9700f88f52000f003c000540780084
:104b300072fd07000002be000203be001fa897001e
:104b4000afa897003fa99700cfa99700001d0700c5
:104b50000002be000203be0094af9f00a5af9f00fd
:104b6000b6af9f00c7af9f003f9c9700e90f54006e
:104b700015003c006022b8006033b8001fa8970001
:104b8000afa897003fa99700cfa9970049f1070068
:104b90000000e000320032001fa89700afa8970085
:104ba0003fa99700cfa997004cf10700e00f5000f4
:104bb000e08f5800e00f5900e08f590028003a00bc
:104bc000e10f5400260034000400200005002e00f0
:104bd000b6e02200170124000fa097009fa09700c5
:104be0002fa19700bfa197002df107000000e00062
:104bf00002003d00730454000100370072045400a9
:104c0000b89f9f006f70970099fd07000002be00db
:104c10000203be0084a79f0095a79f00a6a79f0040
:104c2000b7a79f001fa89700afa897003fa99700bc
:104c3000cfa99700111d070028f107000205be004b
:104c40000004be006000b8006011b80090af9f0083
:104c5000a1af9f00b2af9f00c3af9f001700370006
:104c60001fa89700afa897003fa99700cfa997006a
:104c70001af107000205be000004be0048f107005b
:104c80000002be000203be001fa89700afa8970055
:104c90003fa99700cfa99700ac1c07000002be00f7
:104ca0000203be0094af9f00a5af9f00b6af9f0068
:104cb000c7af9f000000eb00b09f9f0005f92100e7
:104cc00014c0b300080037003500be003501be0037
:104cd0000040e10001c8e10002d0e10003d8e1009a
:104ce000030039000442e800f44f5200f6ff3a0096
:104cf000a4779f003f9897009fb2970000805200d2
:104d00005fab9700860050000400fb00008050005d
:104d100090b79f000600e000020032000000e900aa
:104d200090b79f0063006700030032009fb39700b5
:104d30008703e90097b79f000e28a30050003200b8
:104d4000610167000e18a3000f0032003c009000c4
:104d50000068a30006003200b10220000200e0005b
:104d6000010032008180e8000d0178000d0037005d
:104d7000b00220000200e000010032000080e800e4
:104d80008c0078000e0037000200e0003300320093
:104d90003c0090000068a300070032000d0178007d
:104da000010220000c00780093fd07000000e000e5
:104db00006003a00290037008c007800000220002d
:104dc000d4f20700e10f4000240032008d06e80015
:104dd000220037003c0090000068a3000f00320062
:104de0000d017800010320000c007800f4b79f004b
:104df00085bf9f00d6b79f00e7b79f007efd0700e5
:104e00007fb297008fba97005fb39700efb3970018
:104e10000000e0000e003a000e0037008c00780021
:104e200000032000f4b79f0085bf9f00d6b79f0006
:104e3000e7b79f00b7f207007fb297008fba9700dd
:104e40005fb39700efb39700e10f4000010032001d
:104e50008d06e8008904e900030037000802be005f
:104e60000a03be009fb497000900e000d9ff3c0090
:104e700099b79f000605be000404be006700370016
:104e80000e38a3001e003a00c8a79f00d9a79f00b4
:104e9000eaa79f00fba79f009fb49700110037006f
:104ea0003c0090000068a300070032000d0178006c
:104eb000010220000c0078004ffd07000000e00018
:104ec00006003a00060037008c007800000220003f
:104ed00090f20700e10f4000010032008d06e8006b
:104ee0008904e9000900e000edff3c0099b79f004c
:104ef0004fa49700dfa497006fa59700ffa5970028
:104f0000610167000e18a3000e0032003c00900003
:104f10000068a30005003200b10220000200e0009a
:104f2000250032008180e80023003700b002200015
:104f30000200e000010032000080e8008c007800f0
:104f4000320037000200e000340032003c009000e4
:104f50000068a300030032000d0178000102200068
:104f6000160037008c007800000220002700370070
:104f70003c0190008100fb0080f821000268a30042
:104f800013003200c308dd00010040003002be0003
:104f90002003be000800be000a01be006cef07003f
:104fa000a4002000050020006033b8006fef070068
:104fb00001032000808040000d0178000c00780083
:104fc0000dfd07000000e00013003a001300370059
:104fd000c308dd00010040003002be002003be0017
:104fe0000800be000a01be0059ef0700a40020001f
:104ff000050020006033b8005cef070002032000ca
:10500000000141008c0078000200780041f20700a6
:10501000e10f4000010032008d06e8002f7097007c
:105020008040e900a1779f000004e000d0ff3a0033
:10503000130037003c0090000068a3000700320016
:105040000d017800010320000c007800eafc070045
:105050000000e00006003a00060037008c007800ef
:10506000000320002bf20700e10f40000100320096
:105070008d06e8003f9897000000e900b09f9f0070
:105080003f9897000000e000eaff3c00dfa897008f
:10509000f28f50000300340020c1b300a0779f00be
:1050a000020037002fd99700a2779f002f7097003a
:1050b0008000fb00dfa9970081805100d1af9f00e5
:1050c0000004e000100032003c0090000068a300e3
:1050d000070032000d017800e10220000c0078008a
:1050e000c5fc07000000e00006003a00060037009b
:1050f0008c007800e002200006f20700e10f40007b
:10510000010032008d06e8002f70970058fc070060
:105110000002be000203be001fa89700afa89700c0
:105120003fa99700cfa99700fa1a0700ebef0700f5
:10513000330037003c01900081f821000000fb00a3
:105140000268a300130032004300dd00008040002d
:105150003002be002003be000800be000a01be00ef
:10516000fbee0700a4002000050020006033b8001b
:10517000feee07000003b0000d017800800078000b
:105180000c0078009cfc07000000e00011003a00d1
:10519000110037004300dd00008040003002be00f7
:1051a0002003be000800be000a01be00e8ee0700b2
:1051b000a4002000050020006033b800ebee0700db
:1051c0000003b0008c007800d2f10700e10f40002e
:1051d000010032008d06e8002f7297000400fb00ea
:1051e0004300dd0081f82100008040003002be0055
:1051f0002003be000800be000a01be00dbee07006f
:105200000205be000004be00af7097000140e90037
:10521000a0779f000104e000c6ff3a0098af9f000e
:10522000a9af9f00baaf9f00cbaf9f00dfac970044
:10523000110037003c0090000068a3000700320016
:105240000d017800010320000c0078006afc0700c3
:105250000000e00006003a00060037008c007800ed
:1052600000032000abf10700e10f40000100320015
:105270008d06e8008904e9000900e000edff3a002e
:105280001fac9700afac97003fad9700cfad970034
:105290000e38a300140232009fb097000100e00016
:1052a00011023400d8af9f00e9af9f00faaf9f0012
:1052b0008bb79f00810478003c0090000068a30039
:1052c000070032000d017800010220000c00780078
:1052d00049fc07000000e00006003a000600370025
:1052e0008c007800000220008af10700e10f4000e6
:1052f000010032008d06e8008904e900eeff3a0063
:10530000f90137000e007800000cb20021003a00cd
:105310000e00e00005003d008faa97004505be0085
:105320004504be0085af9f000d0037000e48a30066
:10533000060032000fab97004604be0086af9f0008
:105340004fcdde008a057800050037008fab97004f
:105350004704780087af9f00cfc4de00614db900dd
:10536000e00f5400e08f5c00e00f5d00e08f5d0017
:105370001b003d003e00b3006000b8006011b800a3
:1053800008045000898458000a0559008b8559008b
:10539000130037000e00e00005003d000fa8970045
:1053a0004005be004004be0080af9f000c003700e7
:1053b0000e48a300050032008fa897004104be00ec
:1053c0006055b80081af9f00050037000fa9970016
:1053d0004204780082af9f008004eb006055b80063
:1053e000dfa997000300e00009003a001400200044
:1053f000d4af9f00e00f5400e08f5c00e00f5d0031
:10540000e08f5d00020032008002eb00d5af9f000c
:105410000e037800060cb20096af9f000004200037
:10542000800f53002c00320003003c000600e00017
:10543000080032003c003700000820009fab9700b6
:10544000808f530010003200000c2000808f53002a
:1054500035003a0005f9210014c0b3003500be0044
:105460003501be000040e10001c8e10002d0e100ca
:1054700003d8e1002b0039000442e800f44f520049
:10548000f6ff3a002700370014c0b30000012000e7
:10549000010020006011b8000040e10001c8e100f7
:1054a00002d0e10003d8e1001e00390045002000d1
:1054b0000000d0008180d2000281d2008381d2001e
:1054c0008502e900faff3a000442e800f04f52007a
:1054d000f1ff3a001300370014c0b3008000200031
:1054e000010020006011b8000040e10001c8e100a7
:1054f00002d0e10003d8e1000a00390036002000a4
:105500000000d0008180d2000281d2008381d200cd
:105510000603e900faff3a000442e800f54f5200a2
:10552000f1ff3a00a4779f00af7397000700fb00dc
:10553000dfa89700810f500002003d00a1779f0077
:10554000040037005fa99700800f510001003d0063
:10555000d0af9f009fb197000300e000040032002d
:1055600063006700020032008301e90093b79f00e7
:105570000ee8a300090032001fb29700dfaa9700cf
:10558000850f5200030034000502520094b79f00bb
:10559000020037000003eb0096b79f00af7397003f
:1055a0000700fb008000eb00c1a79f001fb1970020
:1055b000800f51000200340000005100c0a79f007e
:1055c0000e28a30044003200610167000e18a300fa
:1055d0000f0032003c0090000068a300060032007b
:1055e000b10220000200e000010032008180e800ea
:1055f0000d0178000d003700b00220000200e0002d
:10560000010032000080e8008c0078000e003700b6
:105610000200e000100032003c0090000068a3008f
:10562000070032000d017800010220000c00780014
:1056300071fb07000000e00006003a00060037009a
:105640008c00780000022000b2f00700e10f40005b
:10565000010032008d06e800cfa197000300e000b2
:105660006200320098b79f00a9b79f00bab79f00a9
:10567000cbb79f00830478003c0090000068a30033
:10568000070032000d017800010320000c007800b3
:1056900059fb07000000e00006003a000600370052
:1056a0008c007800000320009af00700e10f400012
:1056b000010032008d06e8008904e900eeff3a009f
:1056c000c9a79f001fb49700afb497003fb59700dc
:1056d000cfb5970045003700cfa297000500e00046
:1056e0001e0032000e38a3001c003a0098b79f003d
:1056f000a9b79f00bab79f00cbb79f008504780079
:105700003c0090000068a300070032000d01780003
:10571000010220000c00780037fb07000000e000c9
:1057200006003a00060037008c00780000022000d6
:1057300078f00700e10f4000010032008d06e8001c
:105740008904e900eeff3a00c9a79f001fb4970043
:10575000afb497003fb59700cfb5970061016700e0
:105760000e18a3000f0032003c0090000068a30058
:1057700006003200b10220000200e0000100320009
:105780008180e8000d0178000d003700b002200094
:105790000200e000010032000080e8008c00780088
:1057a0000e0037000200e000100032003c009000c4
:1057b0000068a300070032000d01780001022000fc
:1057c0000c0078000cfb07000000e00006003a0027
:1057d000060037008c007800000220004df0070022
:1057e000e10f4000010032008d06e800dfa89700bd
:1057f0000100e9004201dd00d29f9f006301b90072
:1058000002027800c49f9f004300dd0081f8210060
:1058100081004000f19f9f0098b79f00a9b79f00ab
:10582000bab79f00cbb79f0094003700dfa897005e
:105830008100e900d1af9f00000420001fa997005c
:10584000800f51006400320003003c000200e000c1
:10585000080032006f003700000820009fa9970061
:10586000808f510048003200000c2000808f5100d2
:1058700068003a000e00e0001a003d007f9a970091
:105880003404be002405be000802be000a03be00a8
:105890001fb09700afb097003fb19700cfb197000e
:1058a0002bed0700a0779f000000fb00cf80de00fb
:1058b0006109b9000802be000a03be00b0ed07008e
:1058c0001fb29700afb297003fb39700cfb39700d6
:1058d0000002520081825a0002035b0083835b0056
:1058e000170037000e48a3001a0032001fb29700bd
:1058f000afb297007f9b97003604be002605be001e
:105900000801be000400be00f4b79f0085bf9f00e1
:1059100093180700a0779f000000fb00cf80de00f7
:105920000801be009cec07007fb297008fba970079
:105930000000520081805a000002be006033b800af
:1059400094b79f00a5b79f00b6b79f00c7b79f0049
:1059500009003700ff9a9700150178001fb39700e0
:10596000110009000283d800a200200011000900e4
:105970000280d800a1779f00af7397000743b00063
:10598000a7779f0023003700f0f621000e58a300f0
:1059900001003200e0f521001fb29700afb297007e
:1059a0003fb39700cfb39700df9897008100e900dd
:1059b000050033008703d1000683d3008582d3001e
:1059c0000482d300f9ff37006f02620060427a0060
:1059d000a4779f000f0037001fb09700afb097006b
:1059e0003fb19700cfb197004f9a97000402e900aa
:1059f000050033008301d1000281d3008180d300f0
:105a00000080d300f9ff3700674060000043b0001a
:105a1000a0779f00bc009000af7297000500fb00cc
:105a20000168a300070032000d01780080007800b3
:105a30000c00780070fa07000000e00005003a0052
:105a4000050037008c007800b2ef0700e10f40003e
:105a5000010032008d06e8005f9b9700640353004d
:105a6000d69f9f00cf9b9700e3835300c79f9f0063
:105a70007f98970068005000f09f9f00dfa8970074
:105a80000100e00069ff3a000e38a3001600320062
:105a90004fa197000200e0001300340002077800d5
:105aa0003c0090000068a300070032000d01780060
:105ab000010220000c0078004ffa07000000e0000f
:105ac00006003a00060037008c0078000002200033
:105ad00090ef0700e10f4000010032008d06e80062
:105ae0000e07e900eeff3a00ef99970013407800a7
:105af000a0779f000004e00058fa3a000d007800fb
:105b00004f0778004f06be004f05be004f04be0091
:105b10002f04b10000000600d00190000281510066
:105b20004240a900030034001001780001497800c8
:105b30000208e80001007800000006002f02b00013
:105b4000889fbe008a9fbe008c9fbe008e1f78007b
:105b500000067800f1af9f0092b79f008006eb002f
:105b600092023700ffa897008100e800f1af9f0084
:105b700051c2b300814f500003003a007fa8970044
:105b80008040eb0011003700bc0090000000fb00db
:105b90000168a300070032000d0178008000780042
:105ba0000c007800dcff07000000e00005003a0070
:105bb0007e0237008c00780056ef0700e10f4000ae
:105bc0007a0232008d06e800780237000001780082
:105bd000b0417800d4c2b30084cf51000c00320031
:105be00007003c006d42520084cf51000a00320091
:105bf0006b42420084cf51000d003a00080037008c
:105c000004c3b30084cf510009003a0006003700f6
:105c10000134a000edff37000104a000ebff3700c6
:105c20000114a000e9ff37000124a000e7ff3700be
:105c30000118a300010032000104a1000138a300f3
:105c4000010032000124a1000300fb000003b100a9
:105c5000e90f50000e003e00820178000000eb00ca
:105c6000814278006a00b9003301fb000203b100f1
:105c700000004100030178001302fb000403b1009f
:105c8000e90f5200f7ff3600854078000800370022
:105c90000000eb00a4c2b30084cf510004003a001e
:105ca0009fb197004300780093b79f000201e8007e
:105cb0000007eb00e3c2b30092cf110009003a00e5
:105cc000e4c15100d2cf11000200320082017800fd
:105cd000080037001fb297004407780094b79f0070
:105ce0000201e80082017800080037006a73b900f9
:105cf00006074200030178003302fb000403b100f1
:105d0000e90f5200f9ff3600f6ff37000302780072
:105d1000344178008401780035c7b300854f5100c5
:105d20001c0032000a003c00f0c25200854f5100b6
:105d30008d003200e9c24200854f51000c00320054
:105d4000f4af9f000204e0001d023200a5003700fe
:105d5000f4af9f0053c7b300834f5100a800320037
:105d6000e3c14100834f51009e003a000600370016
:105d700002c1b3000148a300010032000041eb0062
:105d800082c07000e1ff3700a2d79f000174a0001d
:105d90009e003700f4af9f00a2d79f009fb29700ec
:105da0004501780095b79f00b2b79f000200e00060
:105db00002003a00c71b2200b7b79f00bfb197008f
:105dc0000001eb00010037000201e80063427900a6
:105dd0000404e000fcff3a00c2b79f000e00e000a0
:105de000050032004fb49700880f570002003100c1
:105df0008e047800c9b79f004fb197000004eb00f4
:105e0000820f5000010036000204500068876000d5
:105e10002d003a00110037003c0090000068a300fc
:105e2000070032000d017800010220000c0078000c
:105e300039ff07000000e00006003a0006003700c6
:105e40008c00780000022000b2ee0700e10f400055
:105e5000010032008d06e8000804e9000800e000b7
:105e6000edff3a000084eb000e057800aab79f0012
:105e7000170037003c0090000068a30009003200c2
:105e800008007800b000fb00000478000d017800e5
:105e90000c00780020ff07000000e00008003a0036
:105ea00010003700880078003100fb000104780002
:105eb0008c00780097ee0700e10f400009003200e7
:105ec0008d06e800070037008e057800abb79f000d
