:020000040000fa
:080000000002040000000000f2
:020000040000fa
:100400000fb520000e3f24000e0188000000000000
:10041000000020000000e000020032000001200087
:10042000200288000c00070000f6220001002000d6
:100430001f000700100020000000e0000200320052
:10044000b602020000000000302d02000000000093
:100450000040da000000fe004440a900a007200090
:100460000000e0000300320000002000a00188002e
:100470004440a80000000600f03fb1000180b10038
:1004800006003500ee03090000000000403fb10007
:100490000180b100fbff3d001000b000203fb00024
:1004a0000200350000800900000000000000060086
:1004b00091018800800078000000eb0015003700f3
:1004c000e280400032a0b4009101ba00e280400016
:1004d00032a0b4009102ba00e280400032a0b40021
:1004e0000002eb00472bde00f507b200602ce100b4
:1004f00004003a000059eb008301e900fdff3e00d3
:10050000040037006128e100010032000082eb00a6
:10051000040007001101ba000200e000e8ff3a0001
:10052000000006003159ba008301e9000c003200d6
:100530002159ba008301e900080032000400e000fc
:1005400003003a00e280400032a0b400f5ff37001b
:1005500011d9ba008301e900faff3a008100e800ee
:10056000e180400032a0b40000000600aa1502009d
:1005700000000000000006008014040000000000dd
:100580006e0f040000000000b40e04000000000024
:1005900040100400000000005c1104000000000096
:1005a000e8110400000000000c120400000000002c
:1005b000aa120400000000000e1004000000000059
:1005c000d80e040000000000080f04000000000026
:1005d000240f040000000000920f0400000000003f
:1005e000c20f040000000000de0f04000000000045
:1005f0007c100400000000009a10040000000000bd
:10060000be10040000000000ea100400000000001a
:10061000221104000000000080110400000000000e
:100620009e11040000000000c21104000000000040
:1006300030120400000000006012040000000000fe
:1006400084120400000000001e0e040000000000e0
:10065000100e040000000000020e04000000000064
:10066000400e040000000000320e040000000000f4
:100670004e0e0400000000006e0e0400000000009a
:100680007c0e040000000000220c040000000000aa
:10069000340c040000000000460c040000000000c0
:1006a000580c0400000000006a0c04000000000068
:1006b0007c0c0400000000008e0c04000000000010
:1006c0008a0e040000000000940e040000000000e8
:1006d0009e0e0400000000001a0d0400000000003f
:1006e0003c0d0400000000002e0d0400000000007e
:1006f0004a0d040000000000580d04000000000036
:10070000660d040000000000860d040000000000db
:10071000940d040000000000a20d04000000000081
:10072000ac0d040000000000b60d04000000000045
:10073000dc30040000000000602b0400000000001a
:100740006a2d040000000000bc2b04000000000023
:10075000809fbe000000fa00104a8000e10f5000a8
:1007600010003a00501680004200de006140600038
:100770008080fb00204a80000080680000f0a70015
:100780000000ea000000e9004f00de0000407800b1
:100790000004e000030032006094200011c0b300a8
:1007a00001487800404a8000e10f500010003a00f4
:1007b000101680004400de00614060008080fb0075
:1007c000504a80000080680000f0a7000000ea00a6
:1007d0000000e9004f00de00004078000004e00067
:1007e00003003200c094200011c0b300014878001b
:1007f0008660a9000080fa004f00be00004006009d
:100800000800fa00000f78001107980022079800ee
:10081000330798006820ef006a20ef00c842a80064
:100820009e007800114a88009e009000214a8800ae
:10083000609420008040eb00014878001e007800a2
:10084000e10f500001003a0060c0a800c082a8007b
:10085000ae009000414a8800be009000514a8800d6
:10086000c09420008040eb00014878002e009000ea
:10087000e10f500001003a006000a800c802a80083
:10088000c822a8009660a8008660a9000080fa002f
:10089000000006000200fa00104a8000e10f50003c
:1008a0000a003a0060942000104f78001e40780043
:1008b0000004e00003003200609420008040eb0060
:1008c000014878001e40780007003700501680006d
:1008d0006400600000f0a7000000ea000000e900ea
:1008e0004f00de00004078000080fa0000000600a3
:1008f0000200fa00404a8000e10f50000a003a006e
:10090000c0942000104f78001e4078000004e000e2
:1009100003003200c09420008040eb0001487800c2
:100920001e4078000700370010168000700060003d
:1009300000f0a7000000ea000000e9004f00de0020
:10094000004078000080fa00000006000000fa0075
:10095000104a8000e10f500003003a00609420002c
:100960008040eb00014878000080fa00000006009b
:100970000000fa00404a8000e10f500003003a00f6
:10098000c09420008040eb00014878000080fa000d
:10099000000006000040da000000fe00889fbe0054
:1009a00080047800704a80000000e00004003a00f3
:1009b0000e0007000084eb000000e0000800350096
:1009c000784a80000900e000050032000900440078
:1009d000060007000000e00001003d000084eb007d
:1009e000080078004f04be00000006008000780078
:1009f0000100e00003003a0000952000704a8800e2
:100a0000000005000080eb0002b52000828f50003e
:100a100002003e00714a88000000eb000000060062
:100a20001400200000003700889fbe008a9fbe008f
:100a3000841f7800170007004f0078001100330072
:100a4000f0ff2f00838f6c0006003b00040565005b
:100a50000a00a7000800370009f0a60010002000d7
:100a600008003700820f5400838f5c0003003900b8
:100a70001000200001003e000000200009f0a70047
:100a80000000ea004f05be004f04be000000e00079
:100a9000000006000004be00060007000003be00c0
:100aa0000405be000200be0002000700844f75006e
:100ab00000000600c70ade00f107b200f50fb20021
:100ac00008003200e1cf4200020032000170a000b5
:100ad00024000500810f70000100320004080500a9
:100ae00044000500810f700002003a001400050068
:100af0008502e9000000400081c04800fcff3b0087
:100b00000170a0002400050080017800808f500053
:100b10000900310002824000800f520006003600ba
:100b20008401780082004000c36078000201e9007f
:100b3000fdff3a00000006000200e0000300320062
:100b4000b15978000201e900fbff37000000060000
:100b50008001780002003700b15978000201e900f5
:100b60000200e000fcff3a0000000600889fbe0083
:100b70008a9fbe008c9fbe00219320009249800076
:100b80000200e0000b003a006481400092498800b6
:100b9000e2498800a1009800d149880021419000d5
:100ba0000204a000a2409800614190000204a0004d
:100bb000e2409800670440004244de004244dd0009
:100bc000d44980000195200009b52000818454009b
:100bd0002d002000110009008d04d8008006780047
:100be0000886e8000c0646008001eb000200370092
:100bf000130020000b027800a44090000108a3001d
:100c0000020032000a003700120a7800140178004e
:100c1000a24090000108a300fbff320088004200c0
:100c2000810f5100020039000800e00042003d0041
:100c3000940578000b00a100848f5500edff3e0065
:100c4000e18f5100eaff3a008d0f54000200360098
:100c5000890f5400140039006141b8006148b9009f
:100c6000b4ff2f00050020000000520081805a00d0
:100c7000800f5100818f5900020035006405440047
:100c80000a003700009520003ab520000005550005
:100c900008054500110009000985d8000980b90040
:100ca00000057800010037000c0578000a00780084
:100cb0003aff0700e10f400005003a0064054400d8
:100cc0000a00780035ff0700e10f40002b003200da
:100cd000e149800080087800e1498000e48140001b
:100ce00021419000830f5000020032000204a00056
:100cf000010037000204a100a240980064055500dd
:100d00000a0540000a087800ea498800219320007b
:100d1000010d7800e2498000a24090000104a0008b
:100d200021419800a04090000104a10021409800ba
:100d30008001eb00afff3700d1498800810f5100df
:100d4000070036001101be00f2498800034a8800fe
:100d5000940878000041eb00d1498000a24098003f
:100d6000d3498000030a7800a44090000104a00049
:100d70002142980064004200010037000000eb00af
:100d80004f06be004f05be004f04be000000060027
:100d90000000e0000800320064005000d1498000eb
:100da000810f500001003100d0498800a040900020
:100db0000104a1002140980000000600889fbe00a9
:100dc0008a9fbe000004be000900e00007003a0050
:100dd0000000eb000800e000360032000800780058
:100de000ebff07000000eb00320037000800e000d6
:100df00003003a00090078005cff07002d0037006f
:100e0000640054009005780068f897000008a3007b
:100e10000200320008007800ddff070009007800ba
:100e200052ff0700800478000000eb000900e0009a
:100e300020003200888f54001b00320069bd9700eb
:100e40000905550042d5de0088855500c2ddde006b
:100e50000a0178008b0f5500010036000b01780065
:100e60004211dd00880078000900780038ff070093
:100e7000888f54000e0031004255dd000a85440081
:100e8000880f55000a0036000804550042c4de00f1
:100e90004244dd0008844400f0498000014a80009b
:100ea000008cbe0002003700080078000100370007
:100eb000090078004f05be004f04be000000060088
:100ec00007f82700078361000638e10004003a00b4
:100ed000f7072000878361008703710001003a0053
:100ee00003f0a200889fbe008a9fbe008c9fbe00b8
:100ef000470ade000480a100c71ade000580a100b9
:100f0000070028000785600087856100f70f200033
:100f10000720e1009e0032000728e1009c0032001b
:100f2000010678000400e000b4003200f70720005a
:100f3000878060000170a0000500e000c000320062
:100f4000f7072000878161000370a00005065200aa
:100f50000f003a000b50e1000b0032000308e100e3
:100f600002003a000200e1007e003200020450005c
:100f700083845800040031000001fd008101fd0060
:100f80008402fd008a05fd006044b800210037009e
:100f90000520e10005003d000001fd008101fd008c
:100fa0008402fd008a05fd00050652007a60e1001a
:100fb000050035000170a1004722dd00848070002b
:100fc0008a807000630037006044b800ef0266005a
:100fd00007ff2f00070666000500e000060034004a
:100fe000f08312008714dd000511de00071bdd0011
:100ff000060171008519de007060e1000500350012
:101000000904780082047800030178008001eb0075
:10101000700656000b50e10003003a000200400049
:10102000838048000400370060041400e0841c0042
:1010300002005800838058000188a3000600320097
:101040008100d1000080d3008984d3000884d300bc
:101050000402e800270037000178a30025003a00c9
:101060000100e000030032008186cf00698656004f
:101070000a0037008c0020000000e00004003a0065
:1010800009007800880478000004eb007002520028
:101090008086cf000d0646000c06e9007060e10076
:1010a0000600350080007800090078008804780088
:1010b0000004eb0070065600700252000c00e000c5
:1010c0000c0034008c08dd00f00316000703de007e
:1010d000868070000c00dd00074bde00060070000b
:1010e0008c4cdd000743de00868474000c44dd0078
:1010f0000c0252006120e100200035006101600017
:101100000700280087816400f7ff270087836400b9
:10111000070374000300e00006003200820373003e
:10112000040032000000e800e08048000188a300cd
:101130000e003a00f70f20000720e1004a003d00b2
:101140000170a1004722dd00810072008a807000da
:101150000000be004f06be004f05be004f04be009b
:10116000000006006000b800faff37008100d100df
:101170000080d3000402e800eeff3700040178008d
:10118000890174003c0007008a807000f1ff37007d
:1011900063000700070278000001fd008101fd00e7
:1011a0005f00070087027800850372000778a300bc
:1011b000040032000001fd008101fd007200070003
:1011c000e4ff3700850362000768a30008003200cf
:1011d0000b50e10003003200f0ff2f00f1ff270069
:1011e000dcff37000001fd008101fd00d9ff370061
:1011f0000468a300d7ff3200faff3700f8ff27008a
:10120000888360000b003a000000e00009003a000b
:101210008303640082837300020032000200be0078
:10122000ccff37000b50e100ceff3a000200be00b9
:10123000c8ff370014002000810064003eff370023
:10124000f8ff27008883610004003a000200e000f4
:1012500002003a008c007800beff37001500200025
:101260008301640039ff370001f8270000002000e7
:1012700081007500b7ff37000100e0002600320052
:10128000610111007810e10023003c006022b800e9
:101290007010e10004003500800278000100780041
:1012a0008000eb00700151000200e00009003400f2
:1012b00070031100062add00822ade008603dd00ad
:1012c000878272000200de00860bdd0007007000de
:1012d0008208de0084817100f4ff2700048262002e
:1012e0008481710004002800848262006102600031
:1012f00005f0a6000000060004827100070032001d
:101300000000e800e0804800000006000002be0087
:101310006000b800efff37006000b8000000060072
:101320002700200001f0a70017002000470bde0077
:10133000f60fb200040032000643e8000a00320053
:101340004702b3000000060001037800f607b20070
:101350000603700002003a000703b3000000060015
:101360008702b3000000060001037800f607b20010
:1013700006037000020032000770a00000000600a3
:101380000760a000000006000478a30004003200fb
:101390000578a300030032000168a30001003a00b1
:0c13a0000200be000160a000000006007a
:020000040000fa
:020000040002f8
:10a000000a530400010000000600fa00100798003f
:10a010002107980080002000000f78000a00370018
:10a020001e009000900078001e017800660041003c
:10a03000008040002e0190009e00780081004100c9
:10a0400091407800014878001e00780000f0a700d9
:10a050000000ea000000ea004f00de000040780047
:10a060001e0fe9000004e000edff3a003064a80094
:10a070000000000080218000680060000000e00017
:10a08000fcff3a000080fa00000006000600fa001b
:10a09000100798002107980080002000000f78002a
:10a0a0000000000000218000620060000000e0006d
:10a0b000fcff32000a003700ae0090001e0078005e
:10a0c000008040009e009000110190009e017800e9
:10a0d000e68041008100410091407800014878000d
:10a0e0001e00780000f0a7000000ea000000ea006f
:10a0f0004f00de00004078001e0fe9000004e00081
:10a10000edff3a002024a9000080fa0000000600bc
:10a110000a00fa0030079800410798003e009000be
:10a12000640f40000000eb0010079800210037008a
:10a130001e007800104078000080fb00ce009000e8
:10a1400000806800400798001e0fe8000000eb0048
:10a1500020079800110037004e0090006100600059
:10a16000004078000004e000060032004e0090003d
:10a170008000d10010002a0000806800400798008d
:10a18000030037004e0090000000d1004007980007
:10a190002e0090000000e800200798002e0090009c
:10a1a000e70f5000ecff34001e0090000000e800b4
:10a1b000100798009e009000f00b2000808f500048
:10a1c000dbff34004e0090000080fa000000060023
:10a1d0001000fa0050079800620798007307980073
:10a1e000ee009000210798006e009000fe009000a5
:10a1f0004008de000040780032e0b7005e009000ca
:10a2000064004000100798000000eb00000f780089
:10a21000210037001e007800000040008000780018
:10a220002e00900000804000300798003e00900013
:10a230001000ba00400798004e009000804078005f
:10a240001e009000014878001e0090000000e80009
:10a25000100798004e0090004800de008040780013
:10a260001e009000014878001e0090000000e800e9
:10a27000100798003e0090001080ba0080407800df
:10a280001e009000014878001e0090000000e800c9
:10a29000100798001e0fe800f00320009e007800d1
:10a2a000808f5000dbff36000080fa0000000600bf
:10a2b0000a00fa0020079800320798004307980028
:10a2c00080002000000f78000080eb00100798004d
:10a2d0000e0037003e019000ce0190002e0090004d
:10a2e000bbff07003e009000ce0090000008b000c9
:10a2f0000180b00030079800410798009e00900050
:10a300002e00900082ff0700100798001e007800c2
:10a3100000f0a7000000ea000000ea004f00de00a5
:10a32000004078001e0fe9000004e000e9ff3a0059
:10a330001e0090000080fa00000006000600fa00ef
:10a3400010079800210798001e00900040a0900080
:10a35000e10f4000210032001e009000c0a09000dc
:10a36000000c2000808f500004003a001e00900076
:10a370008080eb0041a09800180037000000eb003f
:10a38000000f78000d0037001e00900040a09000e4
:10a390009e0078002e01900081004100114178005c
:10a3a0009e00900080804000c24098008000e8003d
:10a3b0001e00900041a098001e0fe8001e007800cb
:10a3c000e60f500005003c001e009000c0a0900069
:10a3d000f00b2000808f5000ebff34000080fa006b
:10a3e000000006000600fa001007980021079800f8
:10a3f0001e00900040a09000e10f400005003200d8
:10a400001e009000c0a09000000c2000808f500023
:10a4100004003a001e0090008080eb0041a09800ec
:10a42000180037000000eb00000f78000d00370027
:10a430001e007800ae009000808040001e0090005a
:10a4400040a090009e0190006401400063417900ab
:10a45000824878008000e8001e00900041a098002b
:10a460001e0fe8001e007800e50f500005003c00bc
:10a470001e009000c0a09000f00b2000808f5000c4
:10a48000ebff34000080fa00000006000400fa0030
:10a49000008fbe001e00be004008de0000407800b5
:10a4a00032e0b7001e0078008000eb000108bb001e
:10a4b00020042400003b880050052000303b880029
:10a4c000a00a2000303b880061e7a80000000000df
:10a4d000000000000080fa00000006000e00fa00f4
:10a4e00050079800610798005e009000b0a09000af
:10a4f00020a09000200798005e009000640f4000ac
:10a500005e009000c0a09000000c2000808f5000e2
:10a5100006003a008080eb005e009000fcfe070021
:10a52000ee009000810f5000020032000000eb00ae
:10a530003600370010002400003b88005e009000c9
:10a54000b0a0900020a090004008de0000407800fd
:10a5500032e0b7000000eb00100798001f00370042
:10a560001e00900000004000800078002e00900047
:10a5700000804000300798001e00780010407800ee
:10a580000080fb00400798001e0fe8001e007800c6
:10a59000104078000080fb004800dd00ce009000f5
:10a5a00001007000400798001e0fe8003e00900078
:10a5b000ce0090000108bb001e007800104078001b
:10a5c0008080fb001e0fe8003e0090000188bb0069
:10a5d0001e0090000000e800100798009e00900008
:10a5e000f0032000808f5000ddff36005005200072
:10a5f000303b8800a00a2000303b880061e7a800bb
:10a600000000000000000000100020000080fa00a0
:10a61000000006001200fa00000f98008e0078007b
:10a620000e08900099fe07001e0078004400de002e
:10a630006f4060000080fb006f0060004400dd00a0
:10a640004e019000f1f02f008100610001007000c8
:10a65000400798001e0078006f4060000080fb00fb
:10a66000e30f500020003200e30f500007003c00d1
:10a67000e10f500011003200e10f500016003c00c5
:10a680000000e0000800320037003700e50f5000fe
:10a6900029003200e50f500022003500e60f50007f
:10a6a0002b00320030003700f033200050079800b4
:10a6b00090622000600798002d0037002e00900067
:10a6c000be0090000001be000e089000f8fe0700da
:10a6d00050079800260037002e009000be00900022
:10a6e0006aff0700220037002e009000be00900095
:10a6f0000e09900020a1980031a198000e0890004a
:10a70000b0a0900020a090000001be000e089000b4
:10a71000affe07000e0890008000eb0041a09800fb
:10a72000130037000e00e800800078000e0890004b
:10a7300002ff07000e0037001e0090008000780026
:10a740000e08900065ff07005007980008003700ca
:10a75000680047000080e800800078000e08900044
:10a7600020ff0700020037000000fe00ffff370057
:10a7700068004700800078000e08900022fe070065
:04a78000a6ff3700f9
:020000040000fa
:0200000401f009
:04000c00f8ff0000f9
:020000040000fa
:0200000401f009
:040010007bff000072
:020000040000fa
:0200000401f009
:040014007fff00006a
:020000040000fa
:0200000401f009
:04001800f8ff0000ed
:020000040000fa
:0200000401f009
:04001c00ddff000004
:020000040000fa
:10000800ca040000ca040000ca040000ca040000b0
:10001800ca040000ca040000ca040000ca040000a0
:10002800ca040000ca040000ca040000ca04000090
:10003800f4210000ca040000ca040000ca04000039
:10004800ca040000ca040000ca040000ca04000070
:10005800ca040000ca040000fc210000ca04000011
:10006800ca040000ca040000ca040000a803000073
:10007800ca040000ca040000ca040000ca04000040
:1000880004220000ca040000ca040000ca040000d8
:10009800ca040000ca040000ca040000ca04000020
:1000a800ca040000ca040000ca0400008c21000031
:1000b8000c220000ca040000ca040000ca040000a0
:1000c800ca040000ca040000ca040000ca040000f0
:1000d800ca040000ca04000014220000ca04000078
:1000e800ca040000ca040000ca040000ca040000d0
:1000f800ca040000ca040000ca040000ca040000c0
:10010800ca040000ca040000ca040000ca040000af
:10011800ca0400001c220000ca040000ca0400002f
:10012800ca040000ca040000ca040000ca0400008f
:10013800242200002c220000ca040000ca04000087
:10014800ca040000ca040000ca040000ca0400006f
:10015800ca040000ca040000ca040000ca0400005f
:10016800ca040000ca040000ca040000ca0400004f
:10017800ca040000ca040000ca040000ca0400003f
:10018800ca040000ca040000ca040000ca0400002f
:10019800ca040000ca040000ca040000ca0400001f
:1001a800ca040000ca040000ca040000ca0400000f
:1001b800ca040000ca040000ca040000ca040000ff
:1001c800ca040000ca040000ca040000ca040000ef
:1001d800ca040000ca040000ca040000ca040000df
:1001e800ca040000ca040000ca040000ca040000cf
:0801f800ca040000ca04000063
:020000040000fa
:10020800ca040000ca040000ca040000ca040000ae
:10021800ca040000ca040000ca040000ca0400009e
:10022800ca040000ca040000ca040000ca0400008e
:10023800f4210000ca040000ca040000ca04000037
:10024800ca040000ca040000ca040000ca0400006e
:10025800ca040000ca040000fc210000ca0400000f
:10026800ca040000ca040000ca040000a803000071
:10027800ca040000ca040000ca040000ca0400003e
:1002880004220000ca040000ca040000ca040000d6
:10029800ca040000ca040000ca040000ca0400001e
:1002a800ca040000ca040000ca0400008c2100002f
:1002b8000c220000ca040000ca040000ca0400009e
:1002c800ca040000ca040000ca040000ca040000ee
:1002d800ca040000ca04000014220000ca04000076
:1002e800ca040000ca040000ca040000ca040000ce
:1002f800ca040000ca040000ca040000ca040000be
:10030800ca040000ca040000ca040000ca040000ad
:10031800ca0400001c220000ca040000ca0400002d
:10032800ca040000ca040000ca040000ca0400008d
:10033800242200002c220000ca040000ca04000085
:10034800ca040000ca040000ca040000ca0400006d
:10035800ca040000ca040000ca040000ca0400005d
:10036800ca040000ca040000ca040000ca0400004d
:10037800ca040000ca040000ca040000ca0400003d
:10038800ca040000ca040000ca040000ca0400002d
:10039800ca040000ca040000ca040000ca0400001d
:1003a800ca040000ca040000ca040000ca0400000d
:1003b800ca040000ca040000ca040000ca040000fd
:1003c800ca040000ca040000ca040000ca040000ed
:1003d800ca040000ca040000ca040000ca040000dd
:1003e800ca040000ca040000ca040000ca040000cd
:0803f800ca040000ca04000061
:020000040000fa
:1013ac0000000000000000001e0e0000100e0000e7
:1013bc00020e0000400e0000320e00004e0e000027
:1013cc006e0e00007c0e0000220c0000340c00009d
:1013dc00460c0000580c00006a0c00007c0c00004d
:1013ec008e0c00008a0e0000940e00009e0e000071
:1013fc0000000000000000001a0d00003c0d000071
:10140c002e0d00004a0d0000580d0000660d000066
:10141c00860d0000940d0000220c0000340c00001e
:10142c00460c0000580c00006a0c00007c0c0000fc
:10143c008e0c0000a20d0000ac0d0000b60d0000db
:10144c000000000000000000dc300000dc30000078
:10145c00dc300000dc300000dc300000dc30000050
:10146c00dc300000dc300000220c0000340c0000ea
:10147c00460c0000580c00006a0c00007c0c0000ac
:10148c008e0c0000dc300000dc300000dc30000092
:04149c000400000048
:020000040000fa
:1014a0000c00fa00400798005107980020a4200083
:1014b000b1032000f0fb07004e00900000407800d0
:1014c000004f78005e009000f10f20008100600066
:1014d000c808dd009e017800f20f20000281610043
:1014e00082807000010f7800c800de00f00f20003d
:1014f000008060001e01900001f02f00810061005b
:1015000001007000100798008001eb0082002000ad
:101510008e007800e0772000d30b07000080fa00ef
:10152000000006001000fa00889fbe008a9fbe00df
:10153000000f7800110798002207980033079800e1
:1015400044079800550798006607980077079800a9
:1015500000482100000578002b0020001e80e800d4
:101560000a01be00ea0407001e007800a1a22800bc
:10157000010878001e0078009e0090000108980085
:101580001e007800ae009000110898001e00780040
:10159000be009000210898001e007800ce00900048
:1015a000310898001e007800de0090004108980085
:1015b0001e007800ee009000510898001e00780090
:1015c000fe009000610898001e007800ceb89700d9
:1015d000710898001e007800beb8970001109800ae
:1015e0001e007800aeb89700111098001e00780019
:1015f0009eb89700211098001e0078008eb89700c2
:10160000311098001e0078008040eb0001689800bf
:101610000048210000047800290020001e80e80016
:101620008000eb000801be00cd0407004f05be009e
:101630004f04be000080fa00000006000400fa001b
:10164000000f7800214798001e007800ae409000ff
:1016500001689800e2f620008001eb001e80e8009f
:101660008000eb00be0407000080fa0000000600c6
:101670000200fa00000f780042eb20008001eb002e
:101680001e80e8008000eb00b50407000080fa002f
:10169000000006000400fa00000f780021479800bf
:1016a0001e007800ae4090000168980002042100fe
:1016b0008001eb001e80e8008000eb00a80407001a
:1016c0000080fa00000006000200fa00000f780017
:1016d000c21521008001eb001e80e8008000eb00b5
:1016e0009f0407000080fa00000006000200fa00d4
:1016f000000f7800821e21008001eb001e80e800b0
:101700008000eb00960407000080fa00000006004d
:101710000200fa00000f7800c22021008001eb00d7
:101720001e80e8008000eb008d0407000080fa00b6
:10173000000006000200fa00000f7800a22a210033
:101740008001eb001e80e8008000eb0084040700ad
:101750000080fa00000006000200fa00889fbe0028
:10176000000f78001e007800100078000002b00022
:10177000900078001e007800010001008000eb005e
:101780000000eb004c0f07008000eb001000200071
:10179000490f07008000eb0060002000460f0700a3
:1017a0008000eb0070002000430f0700004821007c
:1017b00000047800290020001e80e8008000eb0073
:1017c0000801be00660407004f04be000080fa0056
:1017d000000006000200fa00000f78001e007800ea
:1017e000a00890001e007800100890002cff070051
:1017f0000080fa00000006000400fa00000f7800e4
:10180000110798001e0090000000e00006003a005a
:101810001e007800b00890001e00780010089000ac
:101820001fff0700050037001e007800c008900069
:101830001e0078001008900019ff07000080fa00d1
:10184000000006000200fa00000f78001e00780079
:10185000d00890001e0078000008900010ff0700dc
:101860000080fa00000006000200fa00000f780075
:101870001e007800e00890001e007800000890002c
:1018800007ff07000080fa00000006000200fa00cf
:10189000000f78001e007800f00890001e0078000d
:1018a00000089000fefe07000080fa00000006001d
:1018b0000200fa00000f78001e00780080109000ef
:1018c0001e00780000089000f5fe07000080fa0076
:1018d000000006000200fa00000f78001e007800e9
:1018e000901090001e00780000089000ecfe0700a9
:1018f0000080fa00000006000200fa00000f7800e5
:101900001e007800a01090001e00780000089000d3
:10191000e3fe07000080fa00000006000200fa0063
:10192000000f78001e007800b01090001e007800b4
:1019300000089000dafe07000080fa0000000600b0
:101940000600fa00200798002e0090000080e800b2
:10195000800078000e007800130407009e007800d5
:1019600000482100808f500008003a001e009000bf
:10197000e20f5000030032001e0078000000e0007b
:1019800002003a000000eb000d0037009e007800d6
:10199000e0002100808f500008003a001e009000f7
:1019a0000000e000030032001e0078000000e000ac
:1019b00002003a0010002000010037002000200043
:1019c0000080fa00000006000200fa00000f780014
:1019d0001e007800610e2000811f78002130200059
:1019e000811f780001192000811f780081162000d6
:1019f000811f780001202000811f7800a728200087
:101a00004633200045332000c40d200083202000f1
:101a10003202200041022000c2fe0700ea87570080
:101a20001e00780021a02800010878000080fa003c
:101a3000000006000200fa00000f7800613120006b
:101a40000000eb009c0e07008139200010002000f0
:101a5000990e07000080fa00000006000200fa005c
:101a6000000f7800a141200010002000920e070016
:101a70000080fa00000006000200fa00000f780063
:101a8000812520000000eb008b0e07000080fa008b
:101a9000000006000200fa00000f78000119200083
:101aa0000000eb00840e07000080fa000000060032
:101ab0000200fa00000f78004151200010002000c1
:101ac0007d0e07000080fa00000006000200fa0008
:101ad000000f78001e007800100078006c004000b5
:101ae000900078001e007800010001001e007800c0
:101af000100078006e004000900078001e00780012
:101b0000010001000080fa00000006000200fa0057
:101b1000000f7800e11a200010002000660e070078
:101b20000080fa00000006000200fa00000f7800b2
:101b3000214e20000000eb005f0e07000080fa003d
:101b4000000006000200fa00000f7800c462a8003e
:101b50000080fa00000006000200fa00000f780082
:101b6000c462a9000080fa00000006000200fa002a
:101b7000000f7800501680006400600000f0a7009d
:101b80000000ea000000e9004f00de00004078009d
:101b90000080fa00000006000200fa00000f780042
:101ba0001e00780021122000811f7800813420005f
:101bb000811f7800211c2000811f7800a1192000be
:101bc000811f780001232000811f7800c72b20008f
:101bd0006636200045332000840c2000832020003e
:101be00012032000010320004efe0700ea87570081
:101bf0001e007800a19d2800010878000080fa00ee
:101c0000000006000200fa00000f7800e147200003
:101c100060002000280e07000080fa000000060087
:101c20000200fa00000f78006122200070002000fe
:101c3000210e07000080fa00000006000200fa00f2
:101c4000000f7800313e2000600020001a0e0700cf
:101c5000812a200070002000170e07000080fa0083
:101c6000000006000200fa00000f7800c1532000b7
:101c700060002000100e07000080fa00000006003f
:101c80000200fa00000f7800011920007000200007
:101c9000090e07000080fa00000006000200fa00aa
:101ca000000f78001e007800100078006c004000e3
:101cb000900078001e007800010001001e007800ee
:101cc000100078006e004000900078001e00780040
:101cd000010001000080fa00000006000200fa0086
:101ce000000f7800c121200060002000f20d0700e5
:101cf0000080fa00000006000200fa00000f7800e1
:101d0000a146200070002000eb0d07000080fa00c3
:101d1000000006000200fa00000f7800c442a8008c
:101d20000080fa00000006000200fa00000f7800b0
:101d3000c442a9000080fa00000006000200fa0078
:101d4000000f7800101680007000600000f0a700ff
:101d50000000ea000000e9004f00de0000407800cb
:101d60000080fa00000006000200fa00889fbe0012
:101d7000000f78001e007800100078000080e80056
:101d8000900078001e0078000100010088ed20001e
:101d90008004eb001e80e800910120000801be00d5
:101da000ef0207004f04be000080fa0000000600aa
:101db0000200fa00889fbe00000f78001e00780025
:101dc0001000780064004000900078001e00780049
:101dd000010001001e00780010007800740040002f
:101de000900078001e0078000100010088f02000bb
:101df0008004eb001e80e800910120000801be0075
:101e0000d70207004f04be000080fa000000060061
:101e10000200fa00889fbe00000f78001e007800c4
:101e20006cfe070048f220008004eb001e80e800f2
:101e3000910120000801be00c90207004f04be0046
:101e40000080fa00000006000200fa00889fbe0031
:101e5000000f78001e00780010007800700040002d
:101e6000900078001e007800010001001e0078003c
:101e7000100078007e004000900078001e0078007e
:101e8000010001001e00780010007800660040008c
:101e9000900078001e007800010001001e0078000c
:101ea0001000780068004000900078001e00780064
:101eb00001000100004821000004780029002000f2
:101ec0001e80e8008000eb000801be00a4020700ad
:101ed0004f04be000080fa00000006000200fa0075
:101ee000889fbe00000f78001e0078001000780068
:101ef0000080e800900078001e00780001000100da
:101f000028f920008004eb001e80e80091012000e9
:101f10000801be00920207004f04be000080fa00d4
:101f2000000006000200fa00889fbe00000f780043
:101f30001e007800100078006400400090007800d7
:101f40001e007800010001001e00780010007800db
:101f500074004000900078001e007800010001002d
:101f600028fc20008004eb001e80e8009101200086
:101f70000801be007a0207004f04be000080fa008c
:101f8000000006000200fa00889fbe00000f7800e3
:101f90001e0078000ffe0700e8fd20008004eb0023
:101fa0001e80e800910120000801be006c020700bd
:101fb0004f04be000080fa00000006000200fa0094
:101fc000889fbe00000f78001e0078001000780087
:101fd00070004000900078001e00780001000100b1
:101fe0001e007800100078007e004000900078000d
:101ff0001e00780001000100e80021008004eb00d1
:102000001e80e800910120000801be005402070074
:102010004f04be000080fa00000006000200fa0033
:10202000889fbe00000f78001e0078001000780026
:102030002002b000900078001e007800010001002e
:102040000004e0000b0032001e0078001000780051
:10205000900078001e0078000100010008042100b3
:102060008004eb001e80e800610920000801be002a
:102070003b0207004f04be000080fa00000006008b
:102080000200fa00889fbe00000f78001e00780052
:10209000100078000080e800900078001e007800b2
:1020a000010001001e00780010007800640040006c
:1020b000900078001e007800010001001e007800ea
:1020c0001000780072004000900078001e00780038
:1020d00001000100c80721008004eb001e80e80019
:1020e000910120000801be001d0207004f04be0040
:1020f0000080fa00000006000200fa00889fbe007f
:10210000000f78008000eb001e007800bafd070089
:10211000a80921008004eb001e80e8009101200046
:102120000801be000e0207004f04be000080fa0046
:10213000000006000200fa00889fbe00000f780031
:102140001e007800100078007400400090007800b5
:102150001e00780001000100e80b21008004eb0064
:102160001e80e800910120000801be00fc0107006c
:102170004f04be000080fa00000006000200fa00d2
:10218000889fbe00000f78001e0078000068900055
:102190000004e000060032001e0078001000780005
:1021a00078004000900078001e00780001000100d7
:1021b000a80e21008004eb001e80e80091012000a1
:1021c0000801be00e60107004f04be000080fa00cf
:1021d000000006000200fa00889fbe00000f780091
:1021e0001e007800006890000004e0000600320045
:1021f0001e00780010007800760040009000780003
:102200001e007800010001001e0078001000780018
:102210006c004000900078001e0078000100010072
:10222000281221008004eb001e80e80091012000ac
:102230000801be00ca0107004f04be000080fa007a
:10224000000006000200fa00889fbe00000f780020
:102250001e007800006890000004e00006003200d4
:102260001e007800100078000002b0009000780096
:102270001e007800010001001e00780010007800a8
:102280006e004000900078001e0078000100010000
:102290000048210000047800290020001e80e8008a
:1022a0008000eb000801be00ad0107004f04be0036
:1022b0000080fa00000006000200fa00889fbe00bd
:1022c000000f78001e007800100078007c004000ad
:1022d000900078001e00780001000100081821001d
:1022e0008004eb001e80e8008000eb000801be00c7
:1022f0009b0107004f04be000080fa0000000600aa
:102300000200fa00889fbe00000f78008000eb00fa
:102310001e00780038fd0700e81921008004eb005a
:102320001e80e800910120000801be008c0107001a
:102330004f04be000080fa00000006000200fa0010
:10234000889fbe00000f78001e0078001000780003
:102350006c004000900078001e0078000100010031
:10236000281c21008004eb001e80e800c101200031
:102370000801be007a0107004f04be000080fa0089
:10238000000006000200fa00889fbe00000f7800df
:102390001e007800100078006e0040009000780069
:1023a0001e007800010001000048210000047800b0
:1023b000290020001e80e8008000eb000801be001c
:1023c000670107004f04be000080fa00000006000d
:1023d0000200fa00889fbe00000f78001e007800ff
:1023e0001000780074004000900078001e00780013
:1023f00001000100081821008004eb001e80e800a5
:10240000910120000801be00550107004f04be00e5
:102410000080fa00000006000200fa00889fbe005b
:10242000000f78001e007800100078006600400061
:10243000900078001e0078000100010008232100b0
:102440008004eb001e80e800910120000801be001e
:10245000430107004f04be000080fa0000000600a0
:102460000200fa00889fbe00000f78001e0078006e
:102470001000780068004000900078001e0078008e
:10248000010001001e007800100078007a00400072
:10249000900078001e00780001000100082621004d
:1024a0008004eb001e80e800410620000801be0009
:1024b0002b0107004f04be000080fa000000060058
:1024c0000200fa00889fbe00000f78001e0078000e
:1024d000100078000002b000900078001e00780024
:1024e00001000100482821008004eb001e80e80064
:1024f000210320000801be00190107004f04be009f
:102500000080fa00000006000200fa00889fbe006a
:10251000000f78001e007800100078007400400062
:10252000900078001e0078000100010000482100a2
:1025300000047800290020001e80e8008000eb00e5
:102540000801be00060107004f04be000080fa002b
:10255000000006000200fa00889fbe00000f78000d
:102560001e007800100078007e0040009000780087
:102570001e007800010001001e00780010007800a5
:1025800076004000900078001e00780001000100f5
:102590000048210000047800290020001e80e80087
:1025a0008000eb000801be00ed0007004f04be00f4
:1025b0000080fa00000006000000fa00c842a800ef
:1025c000c082a800c042a900c862a900c062a900d8
:1025d000c442a900c462a900cc62a900807c240086
:1025e00002010700e0792400000107000080fa00e2
:1025f000000006000800fa00807c240009010700a2
:10260000e079240007010700b040800080007800d6
:102610000110a20001f0a7008100ea008100e9009a
:10262000cf08de00814078000000e800b04088005c
:102630000104e0001e0032001628ef00607c240038
:10264000bffc070000407800004f7800c0792400ec
:10265000bbfc07000040780010479800501680002f
:102660006400600000f0a7000000ea000000e9003c
:102670004f00de00004078002047980010168000d0
:102680007000600000f0a7000000ea000000e90010
:102690004f00de0000407800304798008001eb00da
:1026a000820020008e007800804020006e07070026
:1026b0000080fa00000006000200fa00000f780017
:1026c0001e007800904090008180fb002040900028
:1026d0000080fb004800dd00008070008000eb00ff
:1026e000c202200003002000820f5000838f580098
:1026f0007e003e00006001002c00370075003700ae
:102700007200370077003700740037007900370017
:102710007800370077003700760037007500370003
:102720007400370073003700720037007100370003
:10273000700037006f0037003a0037003100370073
:10274000340037003a0037003d00370040003700c2
:102750004200370067003700660037006500370029
:102760006400370063003700620037006100370003
:10277000600037005f003700430037003a00370041
:102780003d0037004300370046003700490037005e
:102790004b00370057003700090037000d003700a5
:1027a0000f0037001100370013003700c0792400f4
:1027b000e9fb0700607c2400e7fb07004e003700c0
:1027c000607c2400c0fb0700c0792400befb07002a
:1027d00049003700607c2400bbfb0700460037003f
:1027e000c0792400b8fb070043003700607c240058
:1027f000befb070040003700c0792400bbfb070088
:102800003d00370011c0b300607c24008bfb070043
:10281000390037008040eb00607c240087fb070014
:1028200035003700607c240091fb07003200370040
:1028300011c0b300607c240096fb07002e00370017
:102840008040eb00607c240092fb07002a003700e8
:10285000607c2400aefb070027003700607c24006a
:10286000b4fb07002400370011c0b300c079240076
:1028700072fb0700200037008040eb00c079240085
:102880006efb07001c003700c079240078fb0700ae
:102890001900370011c0b300c07924007dfb070088
:1028a000150037008040eb00c079240079fb070059
:1028b00011003700c079240095fb07000e00370097
:1028c000c07924009bfb07000b003700c462a800fe
:1028d00009003700c462a90007003700c442a800fd
:1028e00005003700c442a9000300370000000000c3
:1028f00001003700000000000080fa000000060020
:102900000200fa00000f78000080fa0000000600c4
:102910000600fa00000f78001207980023079800bd
:102920001e0078008040eb00014878001e0078000f
:102930001e019000ae019000120098002300980044
:102940001e0078008000eb00310098001e00780027
:102950008000eb00410098000080fa0000000600b3
:102960000800fa00000f780012079800230798006b
:10297000310798001e0078001e019000ae01900003
:1029800012009800230098001e007800be019000fd
:10299000630098001e0078008000eb005100980052
:1029a0000080fa00000006000200fa00010f780023
:1029b0009e007800b10090000100e00005003200a8
:1029c0009e00780031019000c10190000288be0095
:1029d000040037009e00780011019000a1019000d2
:1029e0000288be000080fa00000006000200fa0023
:1029f000000f78001e0078008000eb006100980056
:102a00001e007800e00090001e0078005100980041
:102a10001e00780011c0b300014878000080fa0061
:102a2000000006000200fa00000f78001e00780087
:102a3000104078000004e000350032001e007800ed
:102a4000500090008000e8001e00780051009800bf
:102a50001e007800d00090001e00780060009000fa
:102a6000808f50002a0035001e0078008000eb00a7
:102a7000510098001e0078009e007800110190001f
:102a8000a101900032009800430098001e007800d9
:102a90003000900061006000004078000004e00019
:102aa0000d0032001e0078008080e9001e007800d2
:102ab0004000900000804000900078001e007800e8
:102ac000300090000000e900008040001000780015
:102ad00080007800020037001e007800b0009000ef
:102ae0001e0078000081e9001e0078004000900080
:102af00000004100010001001e0078008000eb0092
:102b0000310098001e0078008000eb004100980022
:102b10000080fa00000006000400fa00000f7800b0
:102b2000110798001e007800e10f500007003a00de
:102b30001e009000e10f400004003a00c07924001c
:102b400015fc0700607c24009ffb07000080fa0052
:102b5000000006000000fa008080eb00100020005a
:102b6000edff07000080fa00000006000400fa00f4
:102b7000000f7800110798001e007800e10f500048
:102b800012003200e10f500005003900e20f500042
:102b90001a003200e30f5000240032002e003700ec
:102ba0001e009000004078006f4060000080fb0035
:102bb0006f0060000221800001ff2f008100610092
:102bc0000100700000218800230037001e009000e3
:102bd000004078006f4060000080fb006f006000e4
:102be0004400dd0002218000f1f02f00810061002f
:102bf0000100700000218800170037001e009000bf
:102c0000004078006f4060000080fb006f006000b3
:102c10004800dd0002218000f10f2f0081006100db
:102c200001007000002188000b0037001e0090009a
:102c3000004078006f4060000080fb004c00dd0029
:102c400002218000f1ff200081006100010070007e
:102c500000218800000000000080fa00000006004b
:102c60000400fa00000f7800110798009e00780019
:102c7000648f50001e007800e10f500012003200f7
:102c8000e10f500005003900e20f50001a00320039
:102c9000e30f5000240032002e0037001e00900089
:102ca000004078006f4060000080fb006f00600013
:102cb0001221800001ff2f008100610001007000df
:102cc00010218800230037001e009000004078008b
:102cd0006f4060000080fb006f0060004400dd007a
:102ce00012218000f1f02f008100610001007000ce
:102cf00010218800170037001e0090000040780067
:102d00006f4060000080fb006f0060004800dd0045
:102d100012218000f10f2f0081006100010070007e
:102d2000102188000b0037001e0090000040780042
:102d30006f4060000080fb004c00dd00122180002d
:102d4000f1ff200081006100010070001021880067
:102d5000000000000080fa00000006000400fa00f5
:102d6000000f7800110798009e007800688f5000cf
:102d70001e007800e10f500012003200e10f5000f9
:102d800005003900e20f50001a003200e30f500036
:102d9000240032002e0037001e0090000040780012
:102da0006f4060000080fb006f0060002221800007
:102db00001ff2f00810061000100700020218800c8
:102dc000230037001e009000004078006f40600034
:102dd0000080fb006f0060004400dd0022218000c5
:102de000f1f02f00810061000100700020218800b7
:102df000170037001e009000004078006f40600010
:102e00000080fb006f0060004800dd002221800090
:102e1000f10f2f0081006100010070002021880067
:102e20000b0037001e009000004078006f406000eb
:102e30000080fb004c00dd0022218000f1ff20001b
:102e40008100610001007000202188000000000066
:102e50000080fa00000006000400fa00000f78006d
:102e6000110798009e0078006c8f50001e007800bb
:102e7000e10f500012003200e10f50000500390050
:102e8000e20f50001a003200e30f5000240032001d
:102e90002e0037001e009000004078006f40600058
:102ea0000080fb006f0060003221800001ff2f00d6
:102eb000810061000100700030218800230037008c
:102ec0001e009000004078006f4060000080fb0012
:102ed0006f0060004400dd0032218000f1f02f001f
:102ee0008100610001007000302188001700370068
:102ef0001e009000004078006f4060000080fb00e2
:102f00006f0060004800dd0032218000f10f2f00cb
:102f10008100610001007000302188000b00370043
:102f20001e009000004078006f4060000080fb00b1
:102f30004c00dd0032218000f1ff200081006100a3
:102f40000100700030218800000000000080fa00bd
:102f5000000006002000fa00200f9800320f9800b1
:102f6000430f9800510f9800640f9800750f980058
:102f70006000b800008fbe006000b8002007980015
:102f8000310798006000b80040079800510798008a
:102f90000004a8002e08900000004000000040003f
:102fa0008000780000442000008040006007980006
:102fb0002e0890004380de00000040008000780072
:102fc00080412000008040007007980040412000b0
:102fd000000f98005e089000e10f500049003a0091
:102fe0003e099000ce099000f0ff2f000100200064
:102ff0000202780003017800800178000100780067
:1030000003026200000061008000eb00c000dd00f0
:10301000000020000001be006120b8000001710026
:103020008181710022079800330798003e089000c4
:10303000ce0890004088de00cf80de000001be0098
:103040003000200001002000020278000301780017
:103050008001780001007800030262000000610036
:103060008000eb00c000dd00000020000001be0079
:103070006120b80000017100818171004207980051
:10308000530798003e089000ce0890004288de006a
:10309000cf80de000001be00f07f20000100200094
:1030a00002027800830178000001780001007800b6
:1030b00002016200008061008000eb00c000dd00c2
:1030c00000002000008fbe006110b8001e1f7000bd
:1030d0001e9770001e007800c500dd004e009000b5
:1030e00000804000e80040006e0090000108780079
:1030f0006e0090000080e800ae00900001087800ab
:10310000190037003e099000ce099000f07f2000a2
:10311000010020000202780083017800000178009d
:103120000100780002016200008061008000eb0075
:10313000c000dd0000002000008fbe006110b8005c
:103140001e1f70001e9770001e007800c500dd0075
:103150006e009000010878006e0090000080e8008a
:103160008000eb00010878002e0890004280de000d
:10317000100f98001e089000e10f50000e00320062
:10318000e10f500003003c000000e00006003200a8
:1031900015003700e20f50000b003200e30f500023
:1031a0000d003200100037002e089000ee0890004d
:1031b0006efe07000c0037002e089000ee0890000d
:1031c000a7fe0700080037002e089000ee089000c8
:1031d000e2fe0700040037002e089000ee08900081
:1031e0001dff0700000000007e00900090007800a6
:1031f0002e089000670060000000400032002000b0
:103200000010dd000080ea00808060007e009000f9
:10321000010878002e089000670060000000400060
:10322000fe0890008008dd007e009000100078000d
:10323000810070007e0090000108780011002000dd
:103240002e0890000008dd00800078000e08900035
:1032500010007800810070000e08900001087800ce
:103260000004a9000080fa00000006001800fa001f
:1032700070079800020f9800130f9800210f980014
:10328000340f98006000b800008fbe006000b800e6
:1032900020079800310798006000b80040079800a8
:1032a000510798000004a8007e0090000000400034
:1032b00000004000800078000043200000804000b3
:1032c000600798003e089000e10f500053003a005c
:1032d0000e0990009e099000f0ff2f0001002000d1
:1032e0000202780003017800800178000100780074
:1032f00003026200000061008000eb00c000dd00fe
:10330000000020000001be006120b8000001710033
:103310008181710022079800330798000e08900001
:103320009e0890004088de00cf80de000001be00d5
:103330003000200001002000020278000301780024
:103340008001780001007800030262000000610043
:103350008000eb00c000dd00000020000001be0086
:103360006120b8000001710081817100420798005e
:10337000530798000e0890009e0890004288de00d7
:10338000cf80de000001be00f07f200001002000a1
:1033900002027800830178000001780001007800c3
:1033a00002016200008061008000eb00c000dd00cf
:1033b00000002000008fbe006110b8001e1f7000ca
:1033c0001e9770002e089000e10f500008003a0090
:1033d0001e007800c500dd004e0090000080400017
:1033e000e80040006e0090000108780006003700f9
:1033f0001e007800c500dd004e0090008080400077
:103400006e009000010878006e0090000080e800d7
:10341000ae00900001087800220037000e099000ed
:103420009e099000f07f2000010020000202780039
:103430008301780000017800010078000201620039
:10344000008061008000eb00c000dd000000200073
:10345000008fbe006110b8001e1f70001e97700024
:103460002e089000e10f500006003a001e00780080
:103470004500dd00e80040006e0090000108780083
:10348000040037001e007800c500dd006e009000cb
:10349000010878006e0090000080e8008000eb00da
:1034a000010878000004a9000080fa00000006006e
:1034b0002200fa00400f9800520f9800630f980006
:1034c000710f9800041798006000b800008fbe00cc
:1034d0006000b80020079800310798006000b8002d
:1034e00040079800510798006000b80060079800f6
:1034f000710798006000b800000f9800110f980045
:103500006000b800200f9800310f98007e089000ee
:103510000000e000460032005e099000ee099000d5
:10352000f00320000100200002027800030178006f
:103530008001780001007800030262000000610051
:103540008000eb00c000dd00000020000001be0094
:103550006120b8000001710081817100020f9800a4
:10356000130f98005e089000ee0890004a09dd00f5
:103570004600de0000007100c688de000001be00cb
:10358000f0ff200001002000020278000301780013
:1035900080017800010078000302620000006100f1
:1035a0008000eb00c000dd00000020000001be0034
:1035b0006120b8000001710081817100220f980024
:1035c000330f98005e089000ee0890004288de00fd
:1035d000cf80de000001be00f07f2000010020004f
:1035e0000202780003017800800178000100780071
:1035f00003026200000061008000eb00c000dd00fb
:10360000000020000001be006120b8000001710030
:103610008181710062079800730798002e0990005d
:10362000be09900022079800330798001300370066
:103630005e099000ee099000f07f2000010020005c
:103640000202780003017800800178000100780010
:1036500003026200000061008000eb00c000dd009a
:10366000000020000001be006120b80000017100d0
:103670008181710062079800730798000e10900016
:10368000e10f50001a003a006e009000fe0090001a
:103690004209dd00ce01de00830171004201dd0040
:1036a0007e0890008000eb000000710081807100b6
:1036b0000001be000210a000028fbe000e089000a4
:1036c0009e0890004a09dd00c601de0083017100fa
:1036d0004a01dd00002020000100200000007100f0
:1036e0008180710040079800510798001200370050
:1036f0006e009000fe0090004209dd00ce01de0069
:10370000830171004201dd007e0890008000eb0023
:10371000001f7100019771000e0990009e09900032
:103720004a18dd00c610de00810070004a10dd007e
:1037300040079800510798007e0890000000e000c4
:10374000090032001e007800800078000110a000ff
:103750004e0890004401dd000040240000004100bc
:1037600001087800060037009e0078004e0890009f
:103770004401dd0000402400000041000108780001
:10378000ae0090004e0890004401dd00204024006f
:103790000000410001087800ce0090004e08900023
:1037a0004401dd0040402400000041000108780091
:1037b0000080fa00000006000c00fa00000f7800fc
:1037c00011079800220798003307980044079800d3
:1037d000550798001e0078004400dd00e40040001a
:1037e00000402400008040009000780000ff2f007f
:1037f000808060001e009000808040001e007800e5
:103800004401dd0040402400000041000108780030
:103810001e007800c400dd006040240000804000ed
:10382000ae009000010878001e007800c400dd00a2
:103830008040240000804000be0090000108780015
:103840001e007800c400dd00a0402400008040007d
:10385000ce009000010878001e007800c400dd0052
:10386000c040240000804000de0090000108780085
:103870000080fa00000006000600fa00000f780041
:1038800011079800220798001e0078004400dd0010
:10389000e4004000004024000080400090007800d8
:1038a00000ff2f00808060002e009000808040008c
:1038b0001e0078004401dd0040402400000041006b
:1038c000010878001e0078004400dd00e60040009a
:1038d00000402400008040002e0190009e009000d7
:1038e0009bf407000080fa00000006000200fa00c6
:1038f000000f78001e007800e30f5000180032001f
:10390000e30f500007003c00e10f500010003200b0
:10391000e10f500010003c000000e0000a003200ff
:1039200019003700e50f500011003200e50f50007c
:103930000d003500e60f50000f003200e70f500079
:103940000f003200100037003064a8000e0037006e
:103950003164a8000c0037003264a8000a00370068
:103960003364a800080037003464a800060037005c
:103970003564a800040037003664a8000200370050
:103980003764a800000000000080fa000000060074
:103990000200fa00000f78001e007800e30f5000cc
:1039a00021003200e30f500007003c00e10f5000ff
:1039b00013003200e10f500016003c000000e00050
:1039c0000a00320031003700e50f500020003200bd
:1039d000e50f500019003500e60f500021003200bd
:1039e000e70f5000240032002800370080218000bb
:1039f0004300de00614060000080fb0024003700cf
:103a0000802180004b00de00614060000080fb00f0
:103a10001f003700902180004300de0061406000fd
:103a20000080fb001a003700902180004b00de0070
:103a3000614060000080fb0015003700a02180007d
:103a40004300de00614060000080fb001000370092
:103a5000a02180004b00de00614060000080fb0080
:103a60000b003700b02180004300de0061406000a1
:103a70000080fb0006003700b02180004b00de0014
:103a8000614060000080fb00010037000000eb0097
:103a90000080fa00000006000200fa00000f780023
:103aa000014024001e0078004400dd00008040003a
:103ab0000080fa00000006000200fa00000f780003
:103ac0001e007800e30f50001f003200e30f50008b
:103ad00007003c00e10f500013003200e10f5000de
:103ae00014003c000000e0000a003200290037000a
:103af000e50f50001c003200e50f500015003500a6
:103b0000e60f50001b003200e70f50001e0032008d
:103b1000200037008021800080007800f00f200016
:103b2000008060001c003700802180004800de001b
:103b3000190037009021800080007800f00f2000ed
:103b40000080600014003700902180004800de00f3
:103b500011003700a021800080007800f00f2000c5
:103b6000008060000c003700a02180004800de00cb
:103b700009003700b021800080007800f00f20009d
:103b80000080600004003700b02180004800de00a3
:103b9000010037000000eb000080fa000000060082
:103ba0000200fa00000f78001e007800ef0f5000ae
:103bb0000c003c00110020001e0078000008dd0011
:103bc00080007800002180000080600000f0a700e5
:103bd0000000ea000000ea004f00de00004078002c
:103be0000c0037009e00780070805000110020000b
:103bf0000008dd0080007800102180000080600057
:103c000000f0a7000000ea000000ea004f00de001c
:103c1000004078000080fa00000006000200fa0070
:103c2000000f78001e007800ef0f500009003c00e4
:103c3000110020001e0078000008dd000080ea006e
:103c40008000780000218000008060000021880052
:103c5000090037009e00780070805000110020009d
:103c60000008dd000080ea0080007800102180005c
:103c700000806000102188000080fa00000006002b
:103c80000400fa00100798000004a800404120003a
:103c9000000f78001e0078009000780012002000cd
:103ca0001e0090000010dd000080ea0080806000af
:103cb0001e007800010878000004a9000080fa00c6
:103cc000000006000200fa00000f78001e007800d5
:103cd000004078007f4060000080fb007f006000b3
:103ce000a235800001fe2f008100610001007000fc
:103cf000a03588000080fa00000006000200fa00eb
:103d0000000f78001e0078008000eb00f200200019
:103d100003002000820f5000838f580079003e007e
:103d2000006001000f003700140037001a00370050
:103d30001f003700250037002a0037003000370009
:103d4000350037003b0037004000370046003700a1
:103d50004b00370051003700560037005c00370039
:103d6000610037000136800000fe2f0000806000f7
:103d70000040a00000368800620037000136800055
:103d8000f00f2e0080806000000021000100700014
:103d9000003688005b0037001136800000fe2f00df
:103da000008060000040a0001036880055003700f9
:103db00011368000f00f2e0080806000000021008e
:103dc00001007000103688004e0037002136800058
:103dd00000fe2f00008060000040a0002036880018
:103de0004800370021368000f00f2e0080806000f0
:103df00000002100010070002036880041003700db
:103e00003136800000fe2f00008060000040a000de
:103e1000303688003b00370031368000f00f2e002e
:103e200080806000000021000100700030368800b2
:103e3000340037004136800000fe2f000080600013
:103e40000040a000403688002e0037004136800038
:103e5000f00f2e0080806000000021000100700043
:103e600040368800270037005136800000fe2f00c2
:103e7000008060000040a00050368800210037001c
:103e800051368000f00f2e0080806000000021007d
:103e900001007000503688001a003700613680003b
:103ea00000fe2f00008060000040a0006036880007
:103eb0001400370061368000f00f2e008080600013
:103ec0000000210001007000603688000d003700fe
:103ed0007136800000fe2f00008060000040a000ce
:103ee000703688000700370071368000f00f2e0012
:103ef00080806000000021000100700070368800a2
:103f0000000000000080fa00000006000600fa0031
:103f1000000f780011079800424798005347980017
:103f20001e009000110020000008dd008080ea00e3
:103f30004016800000806000401688001e00780057
:103f4000110020000008dd0080007800401680008d
:103f500001007000401688001e00780059ff07001d
:103f60001e00900065ff07004e4090000004e00036
:103f7000070032001e009000110020000008dd0044
:103f800080007800701680000100700070168800b4
:103f9000ee0307005e4090000004e00004003200e1
:103fa0009860a8000c24a8000c04a80003003700a7
:103fb0009860a9000c24a9000c04a9000a24a900f7
:103fc0008840a9009840a9009480a90095c0a90044
:103fd0009700a9009880a9008480a90085c0a90045
:103fe0008700a9008880a90099c0a9009ba0a9000a
:103ff0009c80a9009ca0a90089c0a9008ba0a90051
:104000008c80a9008ca0a9008000eb000000eb00d0
:10401000520307000080fa00000006001400fa00b6
:10402000100f9800100280004500de00674060001d
:104030000080fb0010079800910280002107980083
:10404000ff3ffc00100280000050a0000060a000b4
:104050000070a000100288002e00900090028800de
:10406000000088001e0890000008900062006000b8
:104070000000e0001a003200924080000200780048
:104080006a00b90080007800c06f2400008f4000f3
:104090000200e8009040880090408000f00f50003f
:1040a00001003a001228ef00a04080000000e90063
:1040b000a0408800a04080000000e0000400320022
:1040c0001e08900011c0b300614898000900370035
:1040d0001e0890008040eb00614898000500370002
:1040e0009e089000010f78001e0890008040eb00b1
:1040f000614898001e007800900078003107980011
:104100009e80e8006a0047003e01900090f20700a0
:104110009102800041079800ff3ffc001e009000c4
:1041200000407800674060000080fb00670060008e
:104130004500dd0012028000f1f12f0081006100d6
:1041400001007000100288004e009000900288006c
:10415000000088001e089000e00190001e089000fa
:10416000d00090006a00470001017800be00900076
:10417000030001000080fa00000006000400fa00bd
:10418000000f7800110798001e00900064004000a6
:1041900010007800004078000080fb00ef00600015
:1041a0001e007800010878001e00780010017800d9
:1041b0001e009000e60040001e80e80064f2070048
:1041c0000080fa00000006000600fa0010079800c0
:1041d000210798001e0090007200b900800078004e
:1041e00000602400008f40002e0090002afe07008f
:1041f000800078001e007800e0ff07002e0090008d
:1042000086fe07001e007800000890006100600034
:10421000004078000004e000030032001e00780037
:104220007eff0700030037001e00780011c0b300b6
:10423000614898000080fa00000006000600fa00bd
:1042400010079800210798001e0090007200b90026
:104250008000780000602400008f4000a0408000b3
:10426000f00f500009003a00904080000000e80084
:104270009040880090408000f00f500001003a000c
:104280001228ef00f0002000a04088002e009000cf
:1042900001fe070080017800a2408000904080006d
:1042a0008000410000012000000278001100090098
:1042b0008400d8008000fd006a00b900800078000a
:1042c000c06f2400008040008200e800a140880008
:1042d00083007800a9ff07002e0090004ffe070022
:1042e0001e00780000089000610060000040780027
:1042f0000004e000030032001e00780047ff0700c2
:10430000030037001e00780011c0b3006148980018
:104310000080fa00000006003600f800809fbe0012
:10432000829fbe00849fbe00869fbe000200fa00ee
:104330000a04a9008860a900502080006200600083
:104340000000e000210032000a24a9000000eb0078
:10435000000f7800090037001e00e80010fe07007b
:104360000004e000040032001e00e8008000780035
:104370001e00780094ff07001e0fe8001e00780062
:10438000ed0f5000f4ff3400d0408000e10f4000fa
:104390000e00320006003700402080000040780008
:1043a000f043b2008080fb00d0408000a3ff0700f4
:1043b0004020800000407800f043b2000080fb0005
:1043c000f7fd07000004e000f3ff3a000080fa0068
:1043d0004f03be004f02be004f01be004f00be00a3
:1043e0003600f900004006000000fa008480a900b1
:1043f0000080fa00004006000000fa0085c0a90015
:104400000080fa00004006000000fa008700a900c2
:104410000080fa00004006000000fa008880a90031
:104420000080fa00004006000000fa0089c0a900e0
:104430000080fa00004006000000fa008ba0a900ee
:104440000080fa00004006000000fa008c80a900fd
:104450000080fa00004006000000fa008ca0a900cd
:104460000080fa00004006000c00fa0020079800c7
:104470003107980042079800530798000000eb00ae
:10448000000f78002e0090006101b9001e00780036
:104490000002eb008000eb0005fc07001e00780026
:1044a0004e019000be009000f3fc07001e00780053
:1044b0000efd07005e009000e10f500003003a007f
:1044c0001000200010003700000000001e007800df
:1044d00079fd0700100798001e009000680060003a
:1044e0000000e00002003a00100020000600370043
:1044f0009e00900000072000008060000000e000a7
:10450000f1ff32000080eb000080fa00000006009e
:104510000c00fa0010079800210798003207980055
:1045200043079800540798001e009000ed0f5000bc
:1045300030003c005e009000620060000000e0007f
:1045400003003a001e009000000fe800040037004e
:10455000f0002000000f78009e009000d1408800fd
:104560001e007800ae0090006109b9008002eb00e7
:10457000000278008000eb001e00900075fa070032
:104580001e0090007200b9008000780000612400d5
:1045900000804000de009000010878001e009000be
:1045a0007200b90080007800e060240000804000c4
:1045b0008040eb00014878001e0090007200b900b6
:1045c00080007800c060240000804000be009000a1
:1045d000010878001e0090007200b9008000780089
:1045e000a060240000804000ce0090000108780008
:1045f00001003700000000000080fa000000060003
:104600000200fa00000f78001e0078009cfd0700f1
:10461000d04080009e007800808f500011003a004a
:104620000080eb00d040880005003700402080006b
:1046300000407800f043b2000080fb0077fd0700e7
:104640004020800000407800f043b2000080fb0072
:1046500053fd07000004e000f4ff3a001428ef00c7
:10466000020037001e00e8006cfd07001e00780005
:104670007200b90080007800e060240000804000f3
:104680008040eb00014878000080fa00000006003e
:104690000400fa00100798001e0090007200b90094
:1046a0008000780000602400008f40001e00780029
:1046b000604890000004e000040032001e00780012
:1046c00056fe070010c0b300010037000040eb00a9
:1046d0000080fa00000006000200fa00000f7800d7
:1046e0001e007800e30f500037003200e30f500047
:1046f00005003e00e10f500019003200e10f5000ac
:1047000024003e0009003700e50f50004800320049
:10471000e50f500039003900e60f5000510032001b
:10472000e70f50005c00320068003700e023ef0024
:1047300000022200001c880020442000401c880049
:1047400070002000501c880060042000101c8800ad
:1047500000402000201c880081e3a8005b00370097
:10476000e023ef0000022200601c880020442000ab
:10477000a01c880070002000b01c8800600420008d
:10478000701c880000402000801c88008de3a80079
:104790004e003700e023ef0000022200c01c88001a
:1047a00020442000001d880070002000101d88009b
:1047b00060042000d01c880000402000e01c88001d
:1047c00099e3a80041003700e023ef000002220037
:1047d000201d880020442000601d880070002000fb
:1047e000701d880060042000301d880000402000fb
:1047f000401d8800a5e3a80034003700e023ef0047
:1048000000022200801d880020442000c01d880076
:1048100070002000d01d880060042000901d8800da
:1048200000402000a01d8800b1e3a8002700370049
:10483000e023ef0000022200e01d88002044200059
:10484000201e880070002000301e880060042000b8
:10485000f01d880000402000001e8800bde3a80075
:104860001a003700e023ef0000022200401e8800fb
:1048700020442000801e880070002000901e8800c8
:1048800060042000501e880000402000601e880048
:10489000c9e3a8000d003700e023ef00000222006a
:1048a000a01e880020442000e01e88007000200028
:1048b000f01e880060042000b01e88000040200028
:1048c000c01e8800d5e3a800000000000080fa00a8
:1048d000000006000200fa00000f78001e007800b9
:1048e000e30f500037003200e30f500005003e0098
:1048f000e10f500019003200e10f500024003e008b
:1049000009003700e50f500048003200e50f500065
:1049100039003900e60f500051003200e70f500017
:104920005c00320068003700e023ef000002200046
:10493000001c880000442000401c880070002000fb
:10494000501c880020022000101c8800004020001d
:10495000201c880081e3a8005b003700e023ef0003
:1049600000022000601c880000442000a01c880079
:1049700070002000b01c880020022000701c8800fd
:1049800000402000801c88008de3a8004e00370006
:10499000e023ef0000022000c01c8800004420003b
:1049a000001d880070002000101d880020022000db
:1049b000d01c880000402000e01c880099e3a8007b
:1049c00041003700e023ef0000022000201d880096
:1049d00000442000601d880070002000701d8800c9
:1049e00020022000301d880000402000401d88006b
:1049f000a5e3a80034003700e023ef000002200008
:104a0000801d880000442000c01d88007000200028
:104a1000d01d880020022000901d8800004020004a
:104a2000a01d8800b1e3a80027003700e023ef00b5
:104a300000022000e01d880000442000201e8800a5
:104a400070002000301e880020022000f01d880029
:104a500000402000001e8800bde3a8001a003700b7
:104a6000e023ef0000022000401e880000442000e8
:104a7000801e880070002000901e88002002200008
:104a8000501e880000402000601e8800c9e3a80076
:104a90000d003700e023ef0000022000a01e880078
:104aa00000442000e01e880070002000f01e8800f6
:104ab00020022000b01e880000402000c01e880098
:104ac000d5e3a800000000000080fa000000060006
:104ad0000a00fa00000f78001107980022079800da
:104ae00033079800440798001e00900000407800ab
:104af0000040e900634060000080fb00630060004c
:104b00004600dd0082208000f1f32f00810061006b
:104b100001007000802088001e00780000407800ae
:104b2000f043b2008080fb00f003200000806000b2
:104b30008220800001fc2f008100610001007000d4
:104b4000802088002e009000004078000040e9009e
:104b5000674060000080fb00670060004300dd00ec
:104b60009220800071fc2f00810061000100700024
:104b70009020880012e4a8003e00900000407800d9
:104b80000040e900674060000080fb0067006000b3
:104b90004800dd0092208000f18f2f00810061002d
:104ba00001007000902088004e00900000407800c6
:104bb0000040e900674060000080fb006700600083
:104bc0009220800081ff2f008100610001007000b1
:104bd0009020880012c4a8000080fa00000006009f
:104be0000200fa00000f78001e00780000407800f4
:104bf000674060000080fb00670060004800dd0047
:104c000002208000f18f2f00810061000100700000
:104c10000020880000000000002080004500de0029
:104c2000674060000080fb009e0f5000faff3a00d2
:104c30000080fa00000006000200fa00000f780071
:104c40001e007800ec0f500020003200ec0f5000e6
:104c500007003e00e60f500012003200e80f50003f
:104c600015003200e40f5000090032002b0037001d
:104c7000f80f50001f00320001022000810f500089
:104c800021003200f00f50001500320023003700e1
:104c90003020800000d0a10000e0a10000f0a100c1
:104ca000302088003020800000d0a00000e0a1006b
:104cb00000f0a100302088003020800000d0a1004a
:104cc00000e0a00000f0a10030208800302080002b
:104cd00000d0a00000e0a00000f0a100302088007b
:104ce0003020800000d0a10000e0a10000f0a00072
:104cf000302088003020800000d0a00000e0a1001b
:104d000000f0a000302088003020800000d0a100fa
:104d100000e0a00000f0a000302088000080fa0031
:104d2000000006000200fa00000f78001e00780064
:104d3000004078007f4060000080fb007f00600042
:104d40003220800001fe2f00810061000100700010
:104d5000302088000080fa00000006000400fa00fd
:104d6000000f7800110798001e007800e30f500034
:104d700035003200e30f500005003e00e10f500007
:104d800018003200e10f500023003e0009003700f8
:104d9000e50f500045003200e50f500037003900a4
:104da000e60f50004e003200e70f5000580032006e
:104db0006400370030e4a8001e0090000040780036
:104dc000634060000080fb0063006000822180007f
:104dd000c1ff2f0081006100010070008021880068
:104de0005800370031e4a8001e0090000040780011
:104df000634060000080fb00630060004800dd004d
:104e000082218000f1cf2f0081006100010070003d
:104e1000802188004b00370032e4a8001e0090007b
:104e200000407800634060000080fb006300600089
:104e300092218000c1ff2f008100610001007000fd
:104e4000902188003f00370033e4a8001e00900046
:104e500000407800634060000080fb006300600059
:104e60004800dd0092218000f1cf2f008100610019
:104e700001007000902188003200370034e4a8005f
:104e80001e00900000407800634060000080fb003e
:104e900063006000a2218000c1ff2f00810061003b
:104ea00001007000a02188002600370035e4a8002a
:104eb0001e00900000407800634060000080fb000e
:104ec000630060004800dd00a2218000f1cf2f00c8
:104ed0008100610001007000a021880019003700e6
:104ee00036e4a8001e009000004078006340600097
:104ef0000080fb0063006000b2218000c1ff2f0032
:104f00008100610001007000b02188000d003700b1
:104f100037e4a8001e009000004078006340600065
:104f20000080fb00630060004800dd00b2218000cb
:104f3000f1cf2f008100610001007000b0218800d6
:104f4000000000000080fa00000006000000fa00e7
:104f50004000200022ff07005400200063002000d2
:104f600082002000410020000000eb00d8fe070076
:104f70000002200030ff07000001200069ff070049
:104f80000000eb00d4fd07001000200051fe0700d8
:104f90000002eb0011002000f2ff2f00f3ff2100c0
:104fa0000000eb00b1f80700140020001100200001
:104fb000f2ff2f00f3ff210010002000abf80700e4
:104fc0002a24ef00502180004021880040218000e9
:104fd0001021880010218000002188000000eb00d3
:104fe000fffe07000080fa00000006000800fa003b
:104ff000201680006200600000f0a7000000ea00b8
:105000000000e9004f00de00004078000080fb0057
:10501000610060000000400022168000d1ff2f00d8
:1050200081006100010070002016880084e0a90062
:1050300011e1a90006c8bf000080fb00800040000d
:10504000007f240000804000900078002107980035
:105050002e0090000000e00003003a000000eb008a
:105060001007980020003700404080000000e0005a
:1050700015003a002e0090006600b900800078000c
:10508000608e200000804000300798003e009000b5
:10509000100078000000e000070032003e009000a1
:1050a000a00090003e009000110098003e0090008b
:1050b0008000eb00010878003e0090001001900095
:1050c00012079800080037002e0090006600b90013
:1050d000000078008080e800608e200000804000a2
:1050e00090007800110798001e0090000000e0007a
:1050f000060032004040800000f0a7000000ea00f7
:105100000000e9004f00de00404088002e009000c3
:10511000e50f500026003200e50f500005003c006e
:10512000e10f50000a003200e30f5000140032007b
:105130004f003700e80f500035003200e90f5000f3
:105140003f003200e70f50002500320048003700d2
:105150004040800000407800614060000080fb001b
:10516000610060004e00dd0062168000f1ff2b0040
:105170008100610001007000601688003c0037006b
:105180004040800000407800614060000080fb00eb
:10519000610060004c00dd0062168000f1ff2e000f
:1051a0008100610001007000601688003000370047
:1051b0004040800000407800614060000080fb00bb
:1051c000610060004a00dd0062168000f1bf2f0020
:1051d0008100610001007000601688002400370023
:1051e0004040800000407800614060000080fb008b
:1051f000610060004800dd0062168000f1ef2f00c2
:1052000081006100010070006016880018003700fe
:105210004040800000407800614060000080fb005a
:10522000610060004700dd0062168000f1f72f008a
:105230008100610001007000601688000c003700da
:105240004040800000407800614060000080fb002a
:10525000610060004600dd0062168000f1fb2f0057
:1052600081006100010070006016880000000000ed
:10527000404080000000e000030032001e0190006a
:10528000020f780018003700915e20001e00900089
:1052900000805000000f780006c8bf000080fb00af
:1052a0008000e80080002000000178001100090063
:1052b0008200d8008000fd000040780006e8b700ba
:1052c00006c8bf000080fb000000e9004f00de00c0
